:020000040800F2
:1000000000500020CD1C0008711B0008731B000865
:10001000751B0008771B0008791B00080000000012
:100020000000000000000000000000007B1B000832
:100030007D1B0008000000007F1B0008811B0008DA
:10004000151D0008151D0008151D0008151D0008C8
:10005000151D0008151D0008151D0008151D0008B8
:10006000151D0008151D0008151D0008151D0008A8
:10007000151D0008151D0008151D0008151D000898
:10008000151D0008151D0008151D0008151D000888
:10009000151D0008151D0008151D0008151D000878
:1000A000151D0008151D0008151D0008151D000868
:1000B000151D0008151D0008151D0008151D000858
:1000C000151D0008151D0008151D0008151D000848
:1000D000151D0008891B0008151D0008151D0008C6
:1000E000011C0008151D0008151D00080000000077
:1000F0000000000000000000000000000000000000
:0C01000000000000000000005FF808F1A3
:1001100010B5054C237833B9044B13B10448AFF341
:1001200000800123237010BDD00D002000000000CE
:1001300008BE000808B5034B1BB103490348AFF3E1
:10014000008008BD00000000D40D002008BE00089B
:10015000844641EA000313F0030349D1403A23D314
:100160000B6803604B6843608B688360CB68C36037
:100170000B6903614B6943618B698361CB69C3611F
:100180000B6A03624B6A43628B6A8362CB6AC36207
:100190000B6B03634B6B43638B6B8363CB6BC363EF
:1001A00040304031403ADBD230320BD30B68036031
:1001B0004B6843608B688360CB68C360103010313C
:1001C000103AF3D20C3205D351F8043B40F8043B0B
:1001D000043AF9D2043208D0D2071CBF11F8013B0F
:1001E00000F8013B01D30B8803806046704700BFD5
:1001F000082A13D38B07B1D010F00303AED0C3F19C
:100200000403D21ADB071CBF11F8013B00F8013BC5
:10021000A4D331F8023B20F8023B9FE7043AD9D33C
:10022000013A11F8013B00F8013BF9D20B78037059
:100230004B7843708B7883706046704781F0004143
:1002400002E000BF83F0004330B54FEA41044FEABB
:10025000430594EA050F08BF90EA020F1FBF54EA56
:10026000000C55EA020C7FEA645C7FEA655C00F0F2
:10027000E2804FEA5454D4EB5555B8BF6D420CDDC3
:100280002C4480EA020281EA030382EA000083EA46
:10029000010180EA020281EA0303362D88BF30BDE6
:1002A00011F0004F4FEA01314FF4801C4CEA11313C
:1002B00002D0404261EB410113F0004F4FEA03339B
:1002C0004CEA133302D0524263EB430394EA050F26
:1002D00000F0A780A4F10104D5F1200E0DDB02FA95
:1002E0000EFC22FA05F2801841F1000103FA0EF229
:1002F000801843FA05F359410EE0A5F120050EF1EF
:10030000200E012A03FA0EFC28BF4CF0020C43FA1F
:1003100005F3C01851EBE37101F0004507D54FF02C
:10032000000EDCF1000C7EEB00006EEB0101B1F57C
:10033000801F1BD3B1F5001F0CD349085FEA3000C2
:100340004FEA3C0C04F101044FEA445212F5800FCD
:1003500080F09A80BCF1004F08BF5FEA500C50F16A
:10036000000041EB045141EA050130BD5FEA4C0C4D
:10037000404141EB0101013C28BFB1F5801FE9D2AA
:1003800091F0000F04BF01460020B1FA81F308BFCD
:100390002033A3F10B03B3F120020CDA0C3208DD99
:1003A00002F1140CC2F10C0201FA0CF021FA02F174
:1003B0000CE002F11402D8BFC2F1200C01FA02F1E4
:1003C00020FA0CFCDCBF41EA0C019040E41AA2BF09
:1003D00001EB0451294330BD6FEA04041F3C1CDAD1
:1003E0000C340EDC04F11404C4F1200220FA04F0F1
:1003F00001FA02F340EA030021FA04F345EA03019B
:1004000030BDC4F10C04C4F1200220FA02F001FA5C
:1004100004F340EA0300294630BD21FA04F02946DE
:1004200030BD94F0000F83F4801306BF81F4801177
:100430000134013D4EE77FEA645C18BF7FEA655CEA
:1004400029D094EA050F08BF90EA020F05D054EABC
:10045000000C04BF1946104630BD91EA030F1EBFC1
:100460000021002030BD5FEA545C05D140004941C5
:1004700028BF41F0004130BD14F580043CBF01F5B8
:10048000801130BD01F0004545F0FE4141F470019E
:100490004FF0000030BD7FEA645C1ABF1946104679
:1004A0007FEA655C1CBF0B46024650EA013406BF7A
:1004B00052EA033591EA030F41F4002130BD00BF39
:1004C00090F0000F04BF0021704730B54FF48064F6
:1004D00004F132044FF000054FF0000150E700BF77
:1004E00090F0000F04BF0021704730B54FF48064D6
:1004F00004F1320410F0004548BF40424FF00001C3
:100500003EE700BF42004FEAE2014FEA31014FEA05
:1005100002701FBF12F07F4393F07F4F81F0605154
:10052000704732F07F4208BF704793F07F4F04BF9F
:1005300041F40021704730B54FF4607401F000457C
:1005400021F000411CE700BF50EA010208BF7047DC
:1005500030B54FF000050AE050EA010208BF7047CD
:1005600030B511F0004502D5404261EB41014FF436
:10057000806404F132045FEA915C3FF4D8AE4FF03E
:1005800003025FEADC0C18BF03325FEADC0C18BF21
:10059000033202EBDC02C2F1200300FA03FC20FA72
:1005A00002F001FA03FE40EA0E0021FA02F11444BF
:1005B000BDE600BF70B54FF0FF0C4CF4E06C1CEAD8
:1005C00011541DBF1CEA135594EA0C0F95EA0C0F49
:1005D00000F0DEF82C4481EA030621EA4C5123EABC
:1005E0004C5350EA013518BF52EA033541F48011EB
:1005F00043F4801338D0A0FB02CE4FF00005E1FB9E
:1006000002E506F00042E0FB03E54FF00006E1FBE7
:1006100003569CF0000F18BF4EF0010EA4F1FF042A
:10062000B6F5007F64F5407404D25FEA4E0E6D416A
:1006300046EB060642EAC62141EA55514FEAC5207B
:1006400040EA5E504FEACE2EB4F1FD0C88BFBCF5F7
:10065000E06F1ED8BEF1004F08BF5FEA500E50F1A8
:10066000000041EB045170BD06F0004646EA01016E
:1006700040EA020081EA0301B4EB5C04C2BFD4EBA0
:100680000C0541EA045170BD41F480114FF0000E99
:10069000013C00F3AB8014F1360FDEBF002001F007
:1006A000004170BDC4F10004203C35DA0C341BDC81
:1006B00004F11404C4F1200500FA05F320FA04F053
:1006C00001FA05F240EA020001F0004221F0004187
:1006D00010EBD37021FA04F642EB06015EEA430EFA
:1006E00008BF20EAD37070BDC4F10C04C4F120052A
:1006F00000FA04F320FA05F001FA04F240EA0200DD
:1007000001F0004110EBD37041F100015EEA430EAD
:1007100008BF20EAD37070BDC4F1200500FA05F2CD
:100720004EEA020E20FA04F301FA05F243EA02034C
:1007300021FA04F001F0004121FA04F220EA02005B
:1007400000EBD3705EEA430E08BF20EAD37070BDA1
:1007500094F0000F0FD101F00046400041EB010181
:1007600011F4801F08BF013CF7D041EA060195F063
:10077000000F18BF704703F00046520043EB03031D
:1007800013F4801F08BF013DF7D043EA060370470A
:1007900094EA0C0F0CEA135518BF95EA0C0F0CD015
:1007A00050EA410618BF52EA4306D1D181EA03015B
:1007B00001F000414FF0000070BD50EA410606BF55
:1007C0001046194652EA430619D094EA0C0F02D19A
:1007D00050EA013613D195EA0C0F05D152EA0336DF
:1007E0001CBF104619460AD181EA030101F00041FD
:1007F00041F0FE4141F470014FF0000070BD41F046
:10080000FE4141F4780170BD70B54FF0FF0C4CF41F
:10081000E06C1CEA11541DBF1CEA135594EA0C0F3E
:1008200095EA0C0F00F0A7F8A4EB050481EA030E8B
:1008300052EA03354FEA013100F088804FEA033372
:100840004FF0805545EA131343EA12634FEA022240
:1008500045EA111545EA10654FEA00260EF0004101
:100860009D4208BF964244F1FD0404F5407402D253
:100870005B084FEA3202B61A65EB03055B084FEAE4
:1008800032024FF480104FF4002CB6EB020E75EBE1
:10089000030E22BFB61A754640EA0C005B084FEA09
:1008A0003202B6EB020E75EB030E22BFB61A754686
:1008B00040EA5C005B084FEA3202B6EB020E75EBD1
:1008C000030E22BFB61A754640EA9C005B084FEA49
:1008D0003202B6EB020E75EB030E22BFB61A754656
:1008E00040EADC0055EA060E18D04FEA051545EA45
:1008F00016754FEA06164FEAC30343EA52734FEAEE
:10090000C2025FEA1C1CC0D111F4801F0BD141EA66
:1009100000014FF000004FF0004CB6E711F4801FCB
:1009200004BF01430020B4F1FD0C88BFBCF5E06FAB
:100930003FF6AFAEB5EB030C04BFB6EB020C5FEABB
:10094000500C50F1000041EB045170BD0EF0004E10
:100950004EEA113114EB5C04C2BFD4EB0C0541EA42
:10096000045170BD41F480114FF0000E013C90E63F
:1009700045EA060E8DE60CEA135594EA0C0F08BF03
:1009800095EA0C0F3FF43BAF94EA0C0F0AD150EA02
:1009900001347FF434AF95EA0C0F7FF425AF104695
:1009A00019462CE795EA0C0F06D152EA03353FF4BD
:1009B000FDAE1046194622E750EA410618BF52EA3A
:1009C00043067FF4C5AE50EA41047FF40DAF52EA0E
:1009D00043057FF4EBAE12E74FF0FF3C06E000BFAB
:1009E0004FF0010C02E000BF4FF0010C4DF804CDB8
:1009F0004FEA410C7FEA6C5C4FEA430C18BF7FEA78
:100A00006C5C1BD001B050EA410C0CBF52EA430CA5
:100A100091EA030F02BF90EA020F0020704710F125
:100A2000000F91EA030F58BF994208BF90422CBFB4
:100A3000D8176FEAE37040F0010070474FEA410CAD
:100A40007FEA6C5C02D150EA013C07D14FEA430CCB
:100A50007FEA6C5CD6D152EA033CD3D05DF8040B3C
:100A6000704700BF8446104662468C46194663466E
:100A700000E000BF01B5FFF7B7FF002848BF10F145
:100A8000000F01BD4DF808EDFFF7F4FF0CBF01208A
:100A900000205DF808FB00BF4DF808EDFFF7EAFF06
:100AA00034BF012000205DF808FB00BF4DF808EDC1
:100AB000FFF7E0FF94BF012000205DF808FB00BFB6
:100AC0004DF808EDFFF7CEFF94BF012000205DF840
:100AD00008FB00BF4DF808EDFFF7C4FF34BF01204D
:100AE00000205DF808FB00BF4FEA410C7FEA6C5C18
:100AF00002D150EA013C0AD14FEA430C7FEA6C5C18
:100B000002D152EA033C02D14FF0000070474FF08F
:100B1000010070474FEA410212F5001215D211D5BB
:100B20006FF47873B3EB625212D94FEAC12343F0EA
:100B3000004343EA505311F0004F23FA02F018BF6C
:100B4000404270474FF00000704750EA013005D135
:100B500011F0004008BF6FF0004070474FF00000F8
:100B6000704700BF53B94AB9002908BF00281CBF0D
:100B70004FF0FF314FF0FF3000F076B9ADF1080CC7
:100B80006DE904CE00F006F8DDF804E0DDE90223AB
:100B900004B070472DE9F047089E0D46044688468C
:100BA000002B4DD18A42944668D9B2FA82F252B1F2
:100BB00001FA02F3C2F1200120FA01F10CFA02FC61
:100BC00041EA030894404FEA1C41B8FBF1F71FFAD1
:100BD0008CFE01FB178807FB0EF0230C43EA084349
:100BE00098420AD91CEB030307F1FF3580F01E8100
:100BF000984240F21B81023F63441B1AB3FBF1F0A1
:100C000001FB103300FB0EFEA4B244EA0344A645E8
:100C10000AD91CEB040400F1FF3380F00981A645DA
:100C200040F20681644402380021A4EB0E0440EA3D
:100C300007401EB10023D440C6E90043BDE8F08759
:100C40008B4208D9002E00F0EE800021C6E9000595
:100C50000846BDE8F087B3FA83F100294AD1AB42D8
:100C600002D3824200F2FC80841A65EB0303012068
:100C70009846002EE2D0C6E90048DFE702B9FFDE61
:100C8000B2FA82F2002A40F09180A1EB0C0001211F
:100C90004FEA1C471FFA8CFEB0FBF7F307FB13006B
:100CA000250C45EA00450EFB03F0A84208D91CEBD1
:100CB000050503F1FF3802D2A84200F2CE80434678
:100CC0002D1AB5FBF7F007FB10550EFB00FEA4B282
:100CD00044EA0544A64508D91CEB040400F1FF359D
:100CE00002D2A64500F2B6802846A4EB0E0440EAE4
:100CF00003409EE7C1F120078B4022FA07FC4CEA33
:100D0000030C25FA07FA4FEA1C49BAFBF9F820FA56
:100D100007F309FB18AA8D401FFA8CFE1D4300FA49
:100D200001F308FB0EF02C0C44EA0A44A04202FA3C
:100D300001F20BD91CEB040408F1FF3A80F0888023
:100D4000A04240F28580A8F102086444241AB4FB52
:100D5000F9F009FB104400FB0EFEADB245EA044475
:100D6000A64508D91CEB040400F1FF356CD2A6455A
:100D70006AD90238644440EA0840A0FB0295A4EB1B
:100D80000E04AC42C846AE4656D353D0002E69D0AE
:100D9000B3EB080264EB0E0422FA01F304FA07F73E
:100DA0001F43CC40C6E90074002147E70CFA02FC5F
:100DB000C2F1200125FA01F34FEA1C4720FA01F1A4
:100DC00095400D43B3FBF7F107FB11331FFA8CFE7F
:100DD000280C40EA034001FB0EF3834204FA02F4BC
:100DE00008D91CEB000001F1FF382FD283422DD926
:100DF00002396044C01AB0FBF7F307FB1300ADB231
:100E000045EA004503FB0EF0A84208D91CEB050596
:100E100003F1FF3816D2A84214D9023B6544281AC0
:100E200043EA014138E73146304607E72F46E4E61A
:100E30001846F9E64B45A9D2B9EB020865EB0C0E52
:100E40000138A3E74346EAE7284694E74146D1E75D
:100E5000D0467BE76444023847E7023B65442FE70E
:100E6000084606E73146E9E6704700BF00B587B09F
:100E70008DF80F004FF47A73009301230DF11702E0
:100E80000DF10F01034802F038FB9DF8170007B081
:100E90005DF804FBEC0D002010B5074C0022022188
:100EA000204601F083F90620FFF7E0FF012202212E
:100EB000204601F07BF910BD0008014070B5114ECD
:100EC00000220221304601F071F99020FFF7CEFF99
:100ED0000020FFF7CBFF0020FFF7C8FF0020FFF73F
:100EE000C5FFFF20FFF7C2FF0402A5B2FF20FFF7F6
:100EF000BDFF84B22C4301220221304601F056F995
:100F0000204670BD0008014070B506460C461546E7
:100F100000220221104801F049F90320FFF7A6FF43
:100F2000C4F30740FFF7A2FFC4F30720FFF79EFFBB
:100F3000E0B2FFF79BFF05E0FF20FFF797FF06F801
:100F4000010B25466B1E9CB2002DF5D1012202211A
:100F5000014801F02BF970BD0008014008B50022DE
:100F60000221094801F022F90520FFF77FFFFF2049
:100F7000FFF77CFF10F0010FF9D101220221024896
:100F800001F014F908BD00BF0008014038B504465F
:100F9000FFF782FFFFF7E2FF0D4D002202212846F6
:100FA00001F004F92020FFF761FFC4F30740FFF7C9
:100FB0005DFFC4F30720FFF759FFE0B2FFF756FFCC
:100FC00001220221284601F0F1F8FFF7C7FF38BDE2
:100FD0000008014070B506460C461546FFF75CFF59
:100FE00000220221134801F0E1F80220FFF73EFF42
:100FF000C4F30740FFF73AFFC4F30720FFF736FFBB
:10100000E0B2FFF733FFB5F5807F07D94FF4807565
:1010100004E016F8010BFFF729FF25466B1E9CB272
:10102000002DF6D101220221024801F0BFF8FFF79E
:1010300095FF70BD000801402DE9F84305460C46B8
:101040001746CBB2110AD3B971B92146FFF7C2FFD7
:1010500013E04FF4807221462846FFF7BBFF04F5EA
:10106000807405F5807531464B1EDEB20029F0D143
:10107000FAB221462846FFF7ADFFBDE8F883C3F179
:1010800000085FFA88F8D6B299B9B0450DD233445A
:10109000DEB242462146FFF79DFF324608EB0401CF
:1010A00005EB0800FFF796FFE7E72146FFF792FF01
:1010B000E3E7A2EB08071FFA87F9C7F30726FFB299
:1010C00042462146FFF786FF444445440AE04FF478
:1010D000807221462846FFF77DFF04F5807405F5F0
:1010E00080754646731E5FFA83F8002EEFD1002FFD
:1010F000C3D05FFA89F221462846FFF76BFFBCE7B1
:101100002DE9F04788B000250495059506950795CB
:10111000384B9A6942F010029A619A6902F0100203
:101120000192019A9A6942F004029A619A6902F066
:1011300004020292029A9A6942F008029A619B693B
:1011400003F008030393039BDFF8AC800122042122
:10115000404601F02BF8DFF8A4A0012202215046FE
:1011600001F024F8DFF8989001220321484601F0AD
:101170001DF84FF400530493224B05930226069664
:1011800004A9404600F000FF01240494059506964A
:1011900004A9404600F0F8FE042304930594069643
:1011A0000327079704A9404600F0EEFE0496059435
:1011B0000694079704A9504600F0E6FE04940594AF
:1011C0000694079704A9484600F0DEFE04960594AD
:1011D0000696079704A9484600F0D6FE2A462946F7
:1011E000282000F009FE282000F03EFE08B0BDE8EF
:1011F000F08700BF001002400010014000080140CD
:10120000000C01400000111010B5ADF5895D86B0ED
:101210000DF1880C4A4C0FCCACE80F000FCCACE8B9
:101220000F000FCCACE80F0094E803004CF8040B5F
:101230008CF800104B2200210DF1BD0004F076FD6A
:1012400002AB002119607C2203A804F06FFD3D4829
:1012500004F020FE01223C4942A803F0E9FE0D28DB
:101260003AD03A4804F016FE0A223949394803F0C8
:1012700011FF002854D1384804F00CFE01AB802245
:1012800022A9344804F0ABF8014600284CD122A929
:10129000324804F09DFD2F4C204604F0D7F9304829
:1012A00004F0F8FD01222A49204603F0F3FE00284D
:1012B0003ED101AB802202A9264803F0D4FF0028CA
:1012C0003AD102A9274804F083FD224804F0BEF970
:1012D0000DF5895D06B010BD234804F0DBFD00224A
:1012E0001146194804F0C4F9B0B9204804F0D2FD01
:1012F000154C01222146002003F09AFE01461C48AD
:1013000004F066FD0122214642A803F091FE014649
:10131000184804F05DFDA4E7174804F0BBFDA0E702
:10132000164804F0B7FDA9E7154804F051FDB2E7EF
:10133000144804F0AFFDCBE7134804F0ABFDC7E75A
:1013400020BE0008A0BE0008ECBE0008B8BF000820
:1013500004C00008C41000200CC000084CC00008E5
:1013600094C0000810C10008F0BE000828BF0008A3
:1013700050BF000870BF000890BF00082CC00008D4
:101380006CC00008E0C00008F8C0000830B5A1B08B
:10139000002421461D4804F01BFDFFF78FFD054684
:1013A000642000F003FD2946194804F011FD204691
:1013B000FFF7ECFD214605E001F180036B4403F8E3
:1013C000401C01313F29F7DD402200210DEB0200D6
:1013D000FFF732FE402200216846FFF795FD0D48D9
:1013E00004F058FD002409E004F180036B4413F875
:1013F000801C094804F0ECFC0134A4B23F2CF3D962
:10140000064804F047FD21B030BD00BF2CC10008E4
:1014100064C1000884C10008A0C10008A8C1000878
:1014200010B584B0002303E0214AD35401339BB2AA
:10143000FF2BF9D94FF47A730293082301931C4BC5
:10144000009310230022A0211A4801F0F7F9C8B92F
:10145000194804F01FFD4FF47A7000F0A7FC4FF418
:101460007A73029308230193144B009310230022F4
:10147000A121104801F094FAB0B9114804F00AFD16
:1014800000240AE00F4804F005FDE4E70B4B195D6A
:101490000D4804F09DFC0134A4B2072CF6D90B488A
:1014A00004F0F8FC04B010BD064804F0F3FCF9E7C2
:1014B000440F00209C150020ACC10008440E002001
:1014C000D4C10008C0C10008A0C10008A8C100081C
:1014D00008B50121034800F06FFE034804F0DAFC70
:1014E00008BD00BF000C0140E8C1000800B583B092
:1014F00001904FF6FF73012201A9034802F011FA8F
:10150000019803B05DF804FBF010002070B582B0C4
:1015100000F046FA002403E0023B2B550134E4B20C
:101520001F2C12D8A000C0B20A4D295D4B1C421CD2
:1015300001260096DBB2D2B200F018FA2B5DB3425E
:10154000EAD8044B3F221A55E8E700F0B1F902B09F
:1015500070BD00BF4410002010B500F00DF900F080
:1015600087F900F077F900240BE004F09BFC43427C
:1015700000F03F0003F03F0358BF5842054B185599
:1015800001347F2CF1DD322000F010FCFFF7BEFFAC
:10159000F9E700BF4410002072B6FEE708B50D4819
:1015A0000D4B03604FF4E133436000238360C3605D
:1015B00003610C2242618361C36102F083F930B997
:1015C000044B1A68D36843F03003D36008BDFFF7BB
:1015D000E3FF00BFF01000200038014008B50A48C2
:1015E0000A4B03600A4B436000238360C3604FF4DF
:1015F0008042026143618361C361036201F040F88C
:1016000000B908BDFFF7C8FF9C150020005400403A
:10161000801A060008B50D480D4B03604FF4827325
:10162000436000238360C360036143614FF4007231
:1016300082611822C2610362436283620A23C36229
:1016400001F000FF00B908BDFFF7A6FFEC0D002078
:101650000030014000B591B02822002106A804F016
:1016600065FB0023019302930393049305930122E6
:1016700006924FF4803307930A9202220D920E9342
:101680004FF4E0130F9306A801F044FB80B90F2339
:10169000019302210291002303934FF4806204928C
:1016A000059301A801F076FD20B911B05DF804FBA7
:1016B000FFF772FFFFF770FF08B500F053FBFFF76D
:1016C000C9FFFFF71DFDFFF769FFFFF787FFFFF772
:1016D000A1FF02F089FBFFF7A3FEFFF757FEFFF71C
:1016E00093FDFFF739FF000000B587B08DF81700B4
:1016F00064230293012301930DF11702009200224B
:101700007821034801F09AF807B05DF804FB00BFA8
:101710009C15002000B587B08DF817006423029354
:10172000012301930DF11702009240227821034812
:1017300001F084F807B05DF804FB00BF9C150020A1
:1017400008B519B1C0B2FFF7E5FF08BDC0B2FFF799
:10175000CBFFFAE700B585B06423029301910090B6
:10176000012340227821034801F068F805B05DF8B4
:1017700004FB00BF9C15002008B50021AE20FFF738
:10178000DFFF00210846FFF7DBFF00211020FFF7F5
:10179000D7FF00214020FFF7D3FF0021B020FFF743
:1017A000CFFF00218120FFF7CBFF0021FF20FFF7B3
:1017B000C7FF0021A120FFF7C3FF0021A620FFF7EC
:1017C000BFFF0021A820FFF7BBFF00213F20FFF74C
:1017D000B7FF0021C820FFF7B3FF0021D320FFF798
:1017E000AFFF00210846FFF7ABFF0021D520FFF730
:1017F000A7FF00218020FFF7A3FF0021D820FFF7DB
:101800009FFF00210520FFF79BFF0021D920FFF754
:1018100097FF0021F120FFF793FF0021DA20FFF767
:101820008FFF00211220FFF78BFF0021DB20FFF745
:1018300087FF00213020FFF783FF00218D20FFF775
:101840007FFF00211420FFF77BFF0021AF20FFF76F
:1018500077FF08BD08B500218D20FFF771FF00213B
:101860001420FFF76DFF0021AF20FFF769FF08BDCF
:1018700038B500250AE001210020FFF761FF01349F
:10188000E4B214F0800FF6D00135EDB2072D0ED87A
:10189000002105F1B000FFF753FF00210846FFF7D4
:1018A0004FFF00211020FFF74BFF0024E9E738BD70
:1018B00010B54FF0000C0EE0164A02EBCC12D15CD2
:1018C000154800EBCC10C05C0143D15401337F2B91
:1018D000F2DD0CF1010CBCF1070F01DC0023F6E78F
:1018E000002414E0002104F1B000FFF729FF0021DB
:1018F0000846FFF725FF00211020FFF721FF802178
:10190000044800EBC410FFF725FF0134E4B2072CB4
:10191000E8D910BD9C1100200000002010F0800FBD
:1019200020D13F291ED8CB08C3F10703DBB201F059
:101930000701C1F107014FF0010C0CFA01F15FFA48
:1019400081FC42B1084A02EBC3131A5C4CEA020C58
:1019500003F800C07047044A02EBC3131A5C22EA82
:1019600001011954704700BF9C1100202DE9F84374
:101970000546894690461E469DF820700AE03A4684
:1019800021462846FFF7CAFF0134E4B2B442F6D933
:101990000135EDB2454501D84C46F7E7BDE8F8837F
:1019A00000200BE0084A02EBC0120021D1540133A1
:1019B000DBB213F0800FF5D00130C0B2072801D898
:1019C0000023F6E7704700BF9C11002082B00E4B49
:1019D0009A6942F001029A619A6902F0010200924A
:1019E000009ADA6942F08052DA61DB6903F08053D1
:1019F0000193019B054A536823F0E06343F00073B1
:101A0000536002B0704700BF001002400000014068
:101A100010B586B0002302930393049305930268E4
:101A2000114B9A4201D006B010BD104CA36943F08F
:101A30000803A361A36903F008030093009BC0237C
:101A40000293122303930323059302A9084800F08D
:101A50009BFAE36943F40013E361E36903F40013C1
:101A60000193019BDFE700BF0054004000100240DB
:101A7000000C014010B586B0002302930393049339
:101A800005930268164B9A4201D006B010BD03F5CB
:101A900060439A6942F480529A619A6902F48052D2
:101AA0000092009A9A6942F004029A619B6903F0DD
:101AB00004030193019BA0230293022303930323B6
:101AC0000593084C02A9204600F05EFA40230293D9
:101AD00000230393049302A9204600F055FAD4E7AB
:101AE000003001400008014030B587B00023029368
:101AF00003930493059302681B4B9A4201D007B0ED
:101B000030BD03F558439A6942F480429A619A695C
:101B100002F480420092009A9A6942F004029A61AB
:101B20009B6903F004030193019B4FF4007302933C
:101B300002230393032305930C4D02A9284600F0CA
:101B400023FA4FF48063029300240394049402A9BF
:101B5000284600F019FA22462146252000F04CF9CB
:101B6000252000F081F9CAE7003801400008014053
:101B7000FEE7FEE7FEE7FEE7FEE7704770477047C7
:101B800008B500F001F908BD10B582B0184B1B680C
:101B90001B6813F0200F14D1154B1B681A6812F044
:101BA000100F09D0002201921A6801925B6801931C
:101BB000019B104B01221A700D4802F013F802B07D
:101BC00010BD0D4C21784B1C2370002301220B48C3
:101BD0000144074801F011FF2378632B01D900224B
:101BE0002270034B1B686FF020021A60D4E700BF1D
:101BF000F0100020991100209811002034110020CD
:101C000008B54FF4005000F0E1FA08BD012070471C
:101C100008B504F061F8162303604FF0FF3008BDEB
:101C200008B54FF0FF31FFF7F3FFFEE770B50C4644
:101C30001646002506E0AFF30080214601F8010BAF
:101C400001350C46B542F6DB304670BD70B50C462A
:101C50001646002504E014F8010BFFF747FC013598
:101C6000B542F8DB304670BD4FF0FF3070474FF49F
:101C700000534B60002070470120704700207047E0
:101C800010B503460C4A0D490D48006840B10C4898
:101C900000680344521A934206D8094A136010BDE3
:101CA0000748084C0460F2E704F016F80C230360C0
:101CB0004FF0FF30F3E700BF00500020001000009D
:101CC000F015002080160020704700000C480D49D8
:101CD0000D4A002302E0D458C4500433C4188C4287
:101CE000F9D30A4A0A4C002301E013600432A242ED
:101CF000FBD3FFF7E9FF03F0F5FFFFF7DDFC7047CB
:101D000000000020D00D002064C60008D00D002087
:101D10007C160020FEE7000010B504460E4B187834
:101D20004FF47A73B3FBF0F30C4A1068B0FBF3F096
:101D300000F0A8F868B90F2C01D901200AE00022B0
:101D400021464FF0FF3000F057F8054B1C60002093
:101D500000E0012010BD00BF0404002000040020AA
:101D60000804002008B5074A136843F01003136005
:101D7000032000F02FF80F20FFF7CEFFFFF726FE1D
:101D8000002008BD00200240034A1168034B1B7865
:101D90000B441360704700BFF415002004040020BA
:101DA000014B1868704700BFF415002038B5044691
:101DB000FFF7F6FF0546B4F1FF3F02D0044B1B7856
:101DC0001C44FFF7EDFF401BA042FAD338BD00BF13
:101DD00004040020074AD36823F4E0631B041B0CAF
:101DE000000200F4E060034343F0BF6343F40033B8
:101DF000D360704700ED00E000B5194BDB68C3F31A
:101E00000223C3F1070CBCF1040F28BF4FF0040CF0
:101E100003F1040EBEF1060F18D9033B4FF0FF3E4D
:101E20000EFA0CFC21EA0C0199400EFA03F322EAA7
:101E30000303194300280BDB0901C9B200F160401C
:101E400000F5614080F800135DF804FB0023E5E72E
:101E500000F00F000901C9B2024B1954F4E700BFAA
:101E600000ED00E014ED00E0002807DB00F01F02A9
:101E7000400901239340024A42F82030704700BFD6
:101E800000E100E00138B0F1807F0BD24FF0E02399
:101E90005861054AF02182F823100020986107223A
:101EA0001A6170470120704700ED00E090F8213082
:101EB000022B06D004238363002380F82030012006
:101EC00070470268136823F00E03136002681368FA
:101ED00023F001031360036CC16B012202FA03F3C8
:101EE0004B6080F82120002380F82030184670478E
:101EF00008B590F82130022B03D00423836301201E
:101F000008BD0268136823F00E03136002681368AB
:101F100023F0010313600368194A934214D014326A
:101F200093421FD0143293421ED0143293421ED0DB
:101F3000143293421ED01432934202D04FF080727A
:101F400003E04FF4801200E001220E4B5A6001239F
:101F500080F82130002380F82030436B6BB1984724
:101F60000020CDE71022F0E74FF48072EDE74FF448
:101F70008052EAE74FF48032E7E70020C0E700BF75
:101F8000080002400000024070B582B00024A44660
:101F9000A6E0804DAA4210D007D97F4DAA420CD0AE
:101FA00005F58035AA4208D013E0A5F58015AA42B0
:101FB00003D005F57025AA4207D18A68002A58D0B7
:101FC000012A51D04361082403E0A5F58015AA42F7
:101FD000F3D0BEF1FF0F4ED80646BEF1FF0F4CD82E
:101FE0004FEA8C0233680F25954023EA050304FA73
:101FF00002F2134333604B6813F0805F6ED0674B7F
:102000009A6942F001029A619B6903F0010301930E
:10201000019B4FEA9C02951C614B53F825600CF024
:1020200003039D000F23AB4026EA03065D4B984255
:1020300029D003F58063984200F08E8003F5806319
:10204000984200F08B8003F58063984219D00423F6
:102050001AE0CC68BDE7CC680434BAE7CC68083431
:10206000B7E7CC680C34B4E703610824B1E7002477
:10207000AFE70424ADE7061DAFE7ACF1080292001C
:10208000B0E7032300E00023AB4033430232444D6A
:1020900045F822304B6813F4803F61D0424A136800
:1020A00043EA0E0313604B6813F4003F5ED03E4AD0
:1020B000536843EA0E0353604B6813F4801F5BD0F0
:1020C000394A936843EA0E0393604B6813F4001F88
:1020D00058D0354AD36843EA0E03D3600CF1010CA3
:1020E0000A6832FA0CF353D0012303FA0CF302EA24
:1020F000030E33EA0202F1D14A68122A3FF649AFD1
:10210000122A3FF666AF01A555F822F0BB1F000862
:10211000532000085D2000086F200008D31F00082E
:10212000D31F0008D31F0008D31F0008D31F0008C7
:10213000D31F0008D31F0008D31F0008D31F0008B7
:10214000D31F0008D31F0008D31F0008D31F0008A7
:102150005720000863200008012395E7022393E736
:10216000114A136823EA0E0313609CE70E4A536872
:1021700023EA0E0353609FE70B4A936823EA0E039A
:102180009360A2E7084AD36823EA0E03D360A5E769
:1021900002B070BD0000221000003110001002409B
:1021A0000000014000080140000401400AB1016143
:1021B0007047090401617047C36801EA030221EA1C
:1021C000030141EA024101617047000008B5054B77
:1021D0005B69034200D108BD024B5861FFF778F9F3
:1021E000F9E700BF0004014003685A6912F4806FE8
:1021F00001D1002070476FF480625A6100230363AD
:10220000202280F83D2080F83E30026C42F004022B
:10221000026480F83C30012070472DE9F041074608
:102220000D4690461E4624E0FFF7BAFD069BC01AF5
:10223000B04200D8EEB900233B63202287F83D204E
:1022400087F83E303A6C42F020023A6487F83C301E
:1022500001201EE03B689C6925EA040C1FFA8CFCF7
:10226000BCFA8CFC4FEA5C1CE04511D1B6F1FF3F93
:10227000DAD1C5F30743012BECD13B685B6925EA52
:10228000030C1FFA8CFCBCFA8CFC4FEA5C1CEBE7DD
:102290000020BDE8F0812DE9F04105460E461746C5
:1022A00098463DE01A6842F400721A602B686FF499
:1022B00080625A6100232B63202285F83D2085F837
:1022C0003E302A6C42F004022A6485F83C3001203A
:1022D00034E0FFF765FDA0EB0800B84200D8FFB975
:1022E00000232B63202285F83D2085F83E302A6CA0
:1022F00042F020022A6485F83C3001201EE02B6861
:102300009C6926EA0404A4B2003C18BF0124A4B1CD
:102310002B685A6912F4806FC4D1B7F1FF3FD8D14E
:10232000C6F30743012BEAD12B685C6926EA040453
:10233000A4B2003C18BF0124E9E70020BDE8F08109
:1023400070B504460D46164623685B6913F0800F8E
:102350001CD12046FFF748FFD0B9B5F1FF3FF3D0BD
:10236000FFF71EFD801BA84201D8002DECD10023F1
:102370002363202284F83D2084F83E30226C42F012
:102380002002226484F83C30012000E0002070BD6F
:102390000120FCE72DE9F04385B004460D46914647
:1023A0001F46DDF830800D9E0368196841F4807186
:1023B00019600096434600224FF00111FFF72DFFF0
:1023C00060B9236805F0FE051D6133464246264983
:1023D0002046FFF760FF68B1012008E023681B6812
:1023E00013F4807F02D04FF400732364032005B000
:1023F000BDE8F0830023039323685A6903929B6925
:102400000393039B324641462046FFF799FF30B9BC
:10241000012F0FD123685FFA89F61E61E7E7236C6D
:10242000042B01D00120E2E72268136843F4007313
:102430001360F7E723684FEA19221A6132464146D2
:102440002046FFF77DFF20B923685FFA89F61E61F9
:10245000CDE7236C042B01D00120C8E72268136864
:1024600043F400731360F7E7020001002DE9F04721
:1024700084B004460D46164699460C9FDDF834801C
:102480000268136843F4806313600368196841F4B9
:1024900080711960CDF800803B4600224FF0011199
:1024A000FFF7BBFE70B95FFA85FA236805F0FE05F9
:1024B0001D6143463A4641492046FFF7ECFE68B1AC
:1024C000012008E023681B6813F4807F02D04FF4DA
:1024D00000732364032004B0BDE8F0870023039356
:1024E00023685A6903929B690393039B42463946CA
:1024F0002046FFF725FF80B9B9F1010F18D12368F5
:10250000F6B21E61424639462046FFF719FF68B30E
:10251000236C042B24D00120DDE7236C042B01D095
:102520000120D8E72268136843F400731360F7E7CB
:102530002368320A1A61424639462046FFF700FFF7
:1025400018B92368F6B21E61DCE7236C042B01D0B6
:102550000120C0E72268136843F400731360F7E7B3
:102560002268136843F400731360D4E72268136889
:1025700043F480731360CDF800803B4600224FF097
:1025800001112046FFF749FE68B922684AF00103AD
:10259000136143463A4609492046FFF77CFE00286E
:1025A00099D0012097E723681B6813F4807F02D03D
:1025B0004FF40073236403208DE700BF0200010085
:1025C00070B504460D46164623685B6913F0040F88
:1025D0001CD12046FFF708FED0B9B5F1FF3FF3D07C
:1025E000FFF7DEFB801BA84201D8002DECD10023B1
:1025F0002363202284F83D2084F83E30226C42F090
:102600002002226484F83C30012000E0002070BDEC
:102610000120FCE770B505460C4616462B68596943
:1026200011F0400F29D1596911F0100F15D1FFF7A2
:10263000B7FB801BA04201D8002CEFD100232B63F5
:10264000202285F83D2085F83E302A6C42F0200299
:102650002A6485F83C30012070BD6FF010025A6189
:1026600000232B63202285F83D2085F83E302A6C1C
:102670002A6485F83C300120EEE70020ECE70000FA
:10268000002800F0CC8070B5044690F83D30002B57
:1026900077D0242384F83D302268136823F00103A7
:1026A00013602268136843F40043136022681368C0
:1026B00023F40043136000F029FE62685A4B9A42EB
:1026C00064D85A4B98428CBF00230123002B40F062
:1026D000A8805749A1FB00318B0C25686A6822F05D
:1026E0003F0242EA91426A6021680A6A22F03F0290
:1026F00066684D4DAE424FD8013313430B622168DB
:10270000CA6922F44F4222F0FF026668464B9E429D
:102710004CD8431E7600B3FBF6F3013340F6FC7051
:10272000034278D0C3F30B031343CB6121680B68DA
:1027300023F0C003E269206A024313430B6021685F
:102740008B6823F4034323F0FF032269E06802430C
:1027500013438B602168CB6823F0FF036269A06993
:1027600002431343CB602268136843F001031360F4
:1027700000202064202384F83D30206384F83E004C
:1027800070BD80F83C30FFF743F982E7294B98424F
:102790008CBF0023012399E74FF4967505FB03F3E3
:1027A000254DA5FB03539B090133A6E7A368BBB9DD
:1027B000451E06EB460CB5FBFCF50135C5F30B05D4
:1027C000B5FA85F56D0945BBC3B9013806EB46037B
:1027D000B0FBF3F30133C3F30B0343F40043A3E76C
:1027E000451E06EB860C0CEB8C0CB5FBFCF501359D
:1027F000C5F30B05B5FA85F56D09E4E7013806EB7D
:10280000860303EB8303B0FBF3F30133C3F30B0342
:1028100043F4404388E7042386E7012384E701204B
:1028200070470120ACE700BFA08601007F841E0036
:1028300083DE1B43FF083D00D34D62102DE9F043BA
:1028400083B004460F46904699460C9EFFF7A8FABF
:10285000054694F83D00C0B2202803D0022003B002
:10286000BDE8F0830095192301224B492046FFF76C
:10287000D4FC002840F0898094F83C30012B00F013
:102880008680012384F83C3023681A6812F0010F17
:1028900003D11A6842F001021A602268136823F417
:1028A00000631360212384F83D30402384F83E30D8
:1028B000002323640A9B6362BDF82C306385638D1B
:1028C0002385364BE362019500964B4642463946D6
:1028D0002046FFF75FFD00285BD1238D002B35D00C
:1028E0002A4631462046FFF72BFD20BB626A23684B
:1028F00012781A61626A531C6362218D013989B2B0
:102900002185638D9BB2013B9BB263852368586927
:1029100010F0040FE1D00029DFD052781A61636A09
:1029200001336362238D013B2385638D9BB2013BA1
:102930009BB26385D1E7236C042B01D001208EE785
:102940002268136843F400731360F7E72A463146A0
:102950002046FFF735FE50B1236C042B01D0012037
:102960007DE72268136843F400731360F7E7226879
:10297000136843F400731360202384F83D30002370
:1029800084F83E3084F83C3069E7022067E7022093
:1029900065E7012063E700BF020010000000FFFFB1
:1029A0002DE9F04389B004460F4690469946129EA1
:1029B00000230793FFF7F4F9054694F83D00C0B2F1
:1029C000202804D00227384609B0BDE8F0830095DE
:1029D0001923012281492046FFF71FFC002840F0FF
:1029E000728194F83C30012B00F06F81012384F850
:1029F0003C3023681A6812F0010F03D11A6842F0C4
:102A000001021A602268136823F400631360222312
:102A100084F83D30402384F83E3000232364109B2B
:102A20006362BDF844306385638D23856C4BE3623C
:102A3000019500964B46424639462046FFF716FD63
:102A40000746002840F04381238D5BB90393236838
:102A50005A6903929A690392039A1A6842F40072BF
:102A60001A60EDE0012B0FD0022B21D022681368F1
:102A700043F4806313600023069323685A69069227
:102A80009B690693069BDBE02268136823F480634E
:102A9000136072B60023049323685A6904929A69FA
:102AA0000492049A1A6842F400721A6062B6C7E08F
:102AB0002268136843F40063136072B60023059321
:102AC00023685A6905929A690592059A1A6822F450
:102AD00080621A6062B6B3E02A4631462046FFF7AC
:102AE00099FD002840F0F58023681A69636A1A701E
:102AF000636A01336362238D013B2385638D9BB23F
:102B0000013B9BB263859BE000953346002235492B
:102B10002046FFF782FB002840F0DF802268136820
:102B200023F48063136072B623681A69636A1A70AB
:102B3000636A01336362238D013B2385638D9BB2FE
:102B4000013B9BB26385284B1B68DB08274AA2FB2D
:102B500003231B0A03EB8303C3EBC3030793079B06
:102B6000013B0793079B002B28D023685A6912F07A
:102B7000040FF4D01A6842F400721A6023681A69CC
:102B8000636A1A70636A01336362238D013B238594
:102B9000638D9BB2013B9BB2638562B623681A6961
:102BA000636A1A70636A01336362238D013B238574
:102BB000638D9BB2013B9BB2638541E0236320227E
:102BC00084F83D2084F83E30226C42F020022264DA
:102BD00062B684F83C300127F5E600BF0200100021
:102BE0000000FFFF040001000004002089B5F81474
:102BF0002A4631462046FFF70DFD00286FD1236895
:102C00001A69636A1A70626A531C6362238D013BFE
:102C10002385638D9BB2013B9BB263852368596911
:102C200011F0040F0CD01B695370636A01336362A7
:102C3000238D013B2385638D9BB2013B9BB2638552
:102C4000238D002B36D0032BD2D8012B3FF444AF79
:102C5000022B7FF459AF00953346002221492046CC
:102C6000FFF7DBFA002836D172B62268136843F406
:102C70000073136023681A69636A1A70636A013308
:102C80006362238D013B2385638D9BB2013B9BB225
:102C9000638562B623681A69636A1A70636A0133CE
:102CA0006362238D013B2385638D9BB2013B9BB205
:102CB0006385C5E7202384F83D30002384F83E3047
:102CC00084F83C307FE602277DE602277BE6012779
:102CD00079E6012777E6012775E6012773E60127E4
:102CE00071E600BF0400010082B0084B1B68084A6F
:102CF000A2FB03235B0A00FB03F3019300BF019BCC
:102D00005A1E0192002BF9D102B070470004002036
:102D1000D34D6210002800F0F18170B582B00446F6
:102D2000036813F0010F2CD0994B5B6803F00C0380
:102D3000042B1DD0964B5B6803F00C03082B12D0BC
:102D40006368B3F5803F41D0002B55D103F1804338
:102D500003F504331A6822F480321A601A6822F4E8
:102D600080221A6037E08A4B5B6813F4803FE7D01B
:102D7000874B1B6813F4003F03D06368002B00F0FF
:102D8000BF81236813F0020F75D0814B5B6813F08D
:102D90000C0F5FD07E4B5B6803F00C03082B54D004
:102DA0002369002B00F08A807A4B01221A60FEF71B
:102DB000F7FF0546764B1B6813F0020F75D1FEF73F
:102DC000EFFF401B0228F5D903209EE1704A1368EB
:102DD00043F480331360636843B3FEF7E1FF0546B5
:102DE0006B4B1B6813F4003FCBD1FEF7D9FF401BA0
:102DF0006428F5D9032088E1B3F5A02F09D0644BEE
:102E00001A6822F480321A601A6822F480221A604A
:102E1000E1E703F18043A3F53C331A6842F48022D2
:102E20001A601A6842F480321A60D4E7FEF7B8FFDD
:102E30000546574B1B6813F4003FA2D0FEF7B0FFC6
:102E4000401B6428F5D903205FE1514B5B6813F404
:102E5000803FA5D14E4B1B6813F0020F03D02369AE
:102E6000012B40F04F814A4A136823F0F80361694F
:102E700043EAC1031360236813F0080F33D0A3693A
:102E8000002B5CD0434B0122C3F88024FEF788FF5F
:102E900005463F4B5B6A13F0020F21D1FEF780FF1E
:102EA000401B0228F5D903202FE1394A136823F08B
:102EB000F803616943EAC1031360DCE7354B002284
:102EC0001A60FEF76DFF0546314B1B6813F0020FC9
:102ED000D1D0FEF765FF401B0228F5D9032014E18D
:102EE0000120FFF701FF236813F0040F00F0968024
:102EF000274BDB6913F0805F34D1254BDA6942F050
:102F00008052DA61DB6903F080530193019B012554
:102F1000214B1B6813F4807F26D0E368012B3DD042
:102F2000002B53D103F1804303F504331A6A22F0D6
:102F300001021A621A6A22F004021A6233E0154B87
:102F40000022C3F88024FEF72BFF0546104B5B6A76
:102F500013F0020FC7D0FEF723FF401B0228F5D95C
:102F60000320D2E00025D3E70B4A136843F48073B3
:102F70001360FEF715FF0646074B1B6813F4807FAE
:102F8000CBD1FEF70DFF801B6428F5D90320BCE0F0
:102F90000010024000004242007000405F4A136A85
:102FA00043F001031362E36833B3FEF7F9FE06460C
:102FB0005A4B1B6A13F0020F2FD1FEF7F1FE801B54
:102FC00041F288339842F3D903209EE0052B09D0C3
:102FD000524B1A6A22F001021A621A6A22F00402A3
:102FE0001A62E0E74D4B1A6A42F004021A621A6A4A
:102FF00042F001021A62D6E7FEF7D2FE0646474BC0
:103000001B6A13F0020F08D0FEF7CAFE801B41F2C4
:1030100088339842F3D9032077E0E5B9E369002BC0
:1030200072D03E4A526802F00C02082A56D0022B97
:1030300017D03B4B00221A66FEF7B2FE0446374B10
:103040001B6813F0007F47D0FEF7AAFE001B022882
:10305000F5D9032059E0314AD36923F08053D36175
:10306000DCE72F4B00221A66FEF79AFE05462B4B33
:103070001B6813F0007F06D0FEF792FE401B02286B
:10308000F5D9032041E0236AB3F5803F1AD02349E4
:103090004B6823F47413226A606A024313434B6043
:1030A0001F4B01221A66FEF77BFE04461B4B1B6872
:1030B00013F0007F0ED1FEF773FE001B0228F5D936
:1030C000032022E0154A536823F40033A1680B4320
:1030D0005360DCE7002018E0002016E0012B16D03A
:1030E0000E4B5B6803F48031226A914211D103F4E4
:1030F0007013626A93420ED1002006E001207047EF
:10310000012002E0012000E0002002B070BD01209B
:10311000FBE70120F9E70120F7E700BF00100240BC
:103120000000424286B0174B0FCB0DF1180C0CE992
:103130000F0040F20123ADF80430134B5B6803F03D
:103140000C02082A02D0114806B07047C3F383422C
:1031500018326A4412F8100C13F4803F0DD00A4B59
:103160005B68C3F3404318336B4413F8143C074ABD
:1031700002FB00F0B0FBF3F0E6E7054B03FB00F0C9
:10318000E2E700BF14C200080010024000127A00FB
:1031900000093D00002800F0A08070B50D460446EF
:1031A000524B1B6803F007038B420BD24F4A136844
:1031B00023F007030B431360136803F007038B42EC
:1031C00040F08D80236813F0020F17D013F0040F26
:1031D00004D0474A536843F4E0635360236813F014
:1031E000080F04D0424A536843F460535360404A86
:1031F000536823F0F003A1680B435360236813F076
:10320000010F31D06368012B20D0022B25D0384A22
:10321000126812F0020F64D035494A6822F00302A6
:1032200013434B60FEF7BCFD0646314B5B6803F071
:103230000C036268B3EB820F16D0FEF7B1FD801B62
:1032400041F288339842F0D9032045E0284A1268B9
:1032500012F4003FE0D101203EE0254A126812F04E
:10326000007FD9D1012037E0204B1B6803F0070312
:10327000AB420AD91D4A136823F007032B4313609E
:10328000136803F00703AB422DD1236813F0040F3A
:1032900006D0174A536823F4E063E1680B43536098
:1032A000236813F0080F07D0114A536823F46053C2
:1032B000216943EAC1035360FFF734FF0C4B5B689D
:1032C000C3F303130B4AD35CD8400B4B18600B4B72
:1032D0001868FEF721FD002070BD01207047012015
:1032E000FAE70120F8E70120F6E700BF00200240DE
:1032F00000100240FCC10008000400200804002067
:10330000014B1868704700BF0004002008B5FFF7A4
:10331000F7FF044B5B68C3F30223034AD35CD84036
:1033200008BD00BF001002400CC2000808B5FFF73E
:10333000E7FF044B5B68C3F3C223034AD35CD84066
:1033400008BD00BF001002400CC200082DE9F04784
:1033500082B00546884617461E46FEF721FD0A9BA9
:103360001B1A03EB0609FEF71BFD82462B4B1B685D
:10337000C3F3CB3309FB03F301932B689C6838EA52
:1033800004030CBF4FF0010C4FF0000CBC4540D0C3
:10339000B6F1FF3FF1D0FEF703FDA0EB0A00484570
:1033A0000AD2B9F1000F07D0019A02B14A46019B37
:1033B000013B01939146E0E72A68536823F0E0035C
:1033C00053606B68B3F5827F0BD0AB6AB3F5005FD7
:1033D00014D0012385F85130002385F850300320A4
:1033E00018E0AB68B3F5004F02D0B3F5806FECD1B5
:1033F0002A68136823F040031360E6E72A6813681D
:1034000023F4005313602A68136843F400531360D5
:10341000DFE7002002B0BDE8F08700BF0004002015
:1034200010B582B004460B46009200228021FFF7BF
:103430008DFF08B902B010BD636D43F020036365D2
:103440000320F7E7002856D010B50446436A33B985
:103450004368B3F5827F05D00023C36102E00023F7
:10346000036143610023A36294F85130002B3CD0E8
:10347000022384F851302268136823F0400313605C
:10348000636803F48273A26802F404421343E2689F
:1034900002F400621343226902F0020213436269DC
:1034A00002F001021343A26902F400721343E269BD
:1034B00002F038021343226A02F080021343A26A28
:1034C00002F40052216813430B60638B226803F0FF
:1034D000040353602268D36923F40063D36100209E
:1034E0006065012384F8513010BD84F850302046C7
:1034F000FEF7C0FABCE7012070472DE9F04383B026
:103500001F460A9D90F85030012B00F010810446B0
:1035100088469146012380F85030FEF741FC06466C
:1035200094F85130DBB26268012B0AD0B2F5827F89
:1035300040F0E380A268002A40F0E980042B40F0CC
:10354000E880B8F1000F00F0E680B9F1000F00F05C
:10355000E480002F00F0E38094F85130DBB2042BBC
:1035600002D0052384F8513000236365C4F83890F5
:10357000E787A787C4F83080E786A786236463645B
:1035800023681A6812F0400F03D11A6842F0400213
:103590001A60E368B3F5006F11D063680BB1012FB7
:1035A0000BD1226B236812781A73236B01332363C8
:1035B000E38E9BB2013B9BB2E38601276BE063681D
:1035C0000BB1012F0BD1226B23681288DA60236BB9
:1035D00002332363E38E9BB2013B9BB2E386012758
:1035E0001CE023689A6812F0010F0ED0E28F92B2AD
:1035F0005AB1DA68A36B1A80A36B0233A363E38F1B
:103600009BB2013B9BB2E3870127FEF7C9FB801BFE
:10361000A84203D3B5F1FF3F40F08380E38E9BB215
:103620001BB9E38F9BB2002B53D023689A6812F02A
:10363000020FD6D0E28E92B2002AD2D0002FD0D084
:10364000226B1288DA60236B02332363E38E9BB212
:10365000013B9BB2E3860027C3E723689A6812F018
:10366000010F0ED0E28F92B25AB1DA68A36B1A70D2
:10367000A36B0133A363E38F9BB2013B9BB2E38750
:103680000127FEF78DFB831BAB4202D3B5F1FF3F51
:1036900049D1002D49D0E38E9BB213B9E38F9BB281
:1036A000BBB123689A6812F0020FD6D0E28E92B2B4
:1036B000002AD2D0002FD0D0226B12781A73236B3D
:1036C00001332363E38E9BB2013B9BB2E386002769
:1036D000C3E7324629462046FFF7A2FE48B9A36851
:1036E00063B901932368DA6801929B680193019B97
:1036F00004E020236365012000E00220012384F818
:103700005130002384F8503003B0BDE8F08302202C
:10371000F4E70220F2E70120F0E70120EEE70120C4
:10372000ECE70320EAE70320E8E70320E6E70220CE
:10373000EAE70268D36823F49073D36002685369A0
:1037400023F001035361036B012B05D0202380F884
:103750003E300023036370470268D36823F01003F0
:10376000D360F3E790F83D30DBB2212B01D002208B
:1037700070478368B3F5805F17D0036A5A1C0262F2
:103780001A7803685A60C38C9BB2013B9BB2C38416
:103790004BB90268D36823F08003D3600268D36812
:1037A00043F04003D360002070470369002BE4D14D
:1037B000036A1B880268C3F308035360036A023379
:1037C0000362E0E710B504460268136923F440532E
:1037D000C1680B43136183680269134342691A434A
:1037E0000168CB6823F4B05323F00C031343CB6080
:1037F0000268536923F4407381690B435361026883
:10380000134B9A4220D0FFF781FD024602EB820261
:1038100002EB820263689B00B2FBF3F20D48A0FB4F
:1038200002314909642303FB11231B013233A0FB3E
:1038300003235B0903F0F00202EB011203F00F0314
:10384000216813448B6010BDFFF770FD0246DDE771
:10385000003801401F85EB512DE9F84305460F461E
:1038600016469946DDF820802C68246837EA040360
:103870000CBF4FF0010C4FF0000CB4451FD1B8F154
:10388000FF3FF1D0B8F1000F05D0FEF789FAA0EBA9
:1038900009004045E8D92A68D36823F4D073D3607F
:1038A0002A68536923F001035361202385F83D30D2
:1038B00085F83E30002385F83C30032000E00020EE
:1038C000BDE8F88358B310B5044690F83D300BB30B
:1038D000242384F83D302268D36823F40053D36056
:1038E0002046FFF76FFF2268136923F490431361AA
:1038F0002268536923F02A0353612268D36843F492
:103900000053D36000202064202384F83D3084F8E5
:103910003E3010BD80F83C30FEF7E6F8D8E70120D5
:1039200070472DE9F04182B01E4690F83D30DBB281
:10393000202B54D104460D469046002953D0002A2E
:1039400053D090F83C30012B51D0012380F83C300B
:1039500000230364212380F83D30FEF721FA074657
:10396000A4F82480A4F82680A368B3F5805F05D06E
:103970004FF00008002384F83C3012E0236913B1B3
:103980004FF00008F6E7A8460025F3E738F8023BB9
:103990002268C3F308035360E28C92B2013A92B2F8
:1039A000E284E38C9BB273B100963B4600228021F7
:1039B0002046FFF751FFE0B9002DE7D015F8012BA5
:1039C00023685A60E8E700963B46002240212046E3
:1039D000FFF742FF78B9202384F83D3000E0022051
:1039E00002B0BDE8F0810120FAE70120F8E70220EB
:1039F000F6E70320F4E70320F2E72DE9F04182B077
:103A00001E4690F83E30DBB2202B5CD104460D46BA
:103A1000904600295BD0002A5BD090F83C30012B07
:103A200059D0012380F83C3000230364222280F81F
:103A30003E200363FEF7B4F90746A4F82C80A4F8EF
:103A40002E80A368B3F5805F05D04FF000080023F7
:103A500084F83C3017E0236913B14FF00008F6E713
:103A6000A8460025F3E723685B68C3F3080328F83A
:103A7000023B03E023685B682B700135E28D92B254
:103A8000013A92B2E285E38D9BB2BBB100963B4610
:103A9000002220212046FFF7DFFEF0B9002DE2D002
:103AA000A368B3F5805FE5D013B92369002BE1D09B
:103AB00023685B6803F07F032B70DEE7202384F824
:103AC0003E30002000E0022002B0BDE8F08101207D
:103AD000FAE70120F8E70220F6E70320F4E7704751
:103AE00008B50168CA6822F04002CA60202280F846
:103AF0003D20FFF7F4FF002008BD7047704708B570
:103B0000406A0023C385C384FFF7F8FF08BD7047F0
:103B100090F83E30DBB2222B60D18368B3F5805F32
:103B200046D0826AB3F5805F04D0002B4DD1036983
:103B3000002B4AD103685B681370836A0133836288
:103B4000C38D9BB2013B9BB2C385002B48D100B50E
:103B500083B00268D36823F02003D3600268D3687F
:103B600023F48073D3600268536923F00103536127
:103B7000202380F83E30036B012B2CD100230363FC
:103B80000268D36823F01003D36003681A6812F048
:103B9000100F06D0002201921A6801925B6801930F
:103BA000019B818DFFF7B3FF002003B05DF804FB9C
:103BB0000269002AB5D1826A03685B68C3F308030F
:103BC0001380836A02338362BAE703685B6803F099
:103BD0007F031370B1E7FFF790FFE5E7022070471E
:103BE0000020704730B583B0044602681368D0687F
:103BF000516913F00F0505D113F0200F02D010F01A
:103C0000200F19D12DB111F0010119D110F4907FBD
:103C100016D1216B012975D013F0800F03D010F05D
:103C2000800F40F0D78013F0400F03D010F0400F0A
:103C300040F0D48003B030BD2046FFF769FFF9E7BC
:103C400013F0010F06D010F4807F03D0226C42F0F5
:103C50000102226413F0040F04D019B1226C42F067
:103C60000202226413F0020F04D019B1226C42F058
:103C70000402226413F0080F07D010F0200F00D1C7
:103C800019B1226C42F008022264226C002AD1D0C1
:103C900013F0200F02D010F0200F21D123685B69B0
:103CA00003F04003226C12F0080F00D123B320462A
:103CB000FFF73FFD23685A6912F0400F18D05A6988
:103CC00022F040025A61A36B73B1464A5A63A06B5B
:103CD000FEF70EF90028ADD0A06B436B9847A9E71B
:103CE0002046FFF715FFD9E72046FFF707FFA1E7BA
:103CF0002046FFF703FF9DE72046FFF7FFFE002366
:103D0000236497E713F0100F86D010F0100F83D0C4
:103D1000002301931368019353680193019B536936
:103D200013F0400F32D0A16B0B685B689BB2002B85
:103D300080D0A08D98427FF67DAFE3858B69202BE4
:103D400008D1A18DE38D9BB2C91A89B22046FFF735
:103D5000DEFE6FE7D36823F48073D3602268536973
:103D600023F0010353612268536923F04003536138
:103D7000202384F83E30002323632268D36823F095
:103D80001003D360A06BFEF791F8DAE7A18DE38D05
:103D90009BB2C91A89B2E38D9BB2002B3FF44AAFA4
:103DA00000293FF447AFD36823F49073D3602268AF
:103DB000536923F001035361202384F83E3000232C
:103DC00023632268D36823F01003D3602046FFF7F3
:103DD0009EFE2FE72046FFF7C5FC2BE72046FFF7A6
:103DE0007FFE27E7FF3A000808B50349034801F0C2
:103DF0006DFF034B187008BDF8150020100400205B
:103E0000FC15002000207047094B01221A7038B1C0
:103E1000904209D1064B04221A70054B187870475E
:103E2000034B00221A70F8E7014B04221A70F4E7E2
:103E30000C040020044B01221A7008B900221A70E9
:103E4000014B1878704700BF0C0400200346A8B946
:103E5000032915D8DFE801F00209040E084670476F
:103E60004FF480511160184670474FF400611160A3
:103E700018467047012111601846704704207047AA
:103E80000420704708B10420704710B58C461146D5
:103E900004461B0303F4704209036046FDF734F83F
:103EA000204610BD08B104207047F8B50E461D46E7
:103EB000074614032046FDF769F82A0302F470420E
:103EC00021463046FDF7B8F83846F8BD08B5044B32
:103ED00003EB8002526852680344187B904708BD88
:103EE0002416002008B5084B1B5C53B9064B012271
:103EF0001A5403EB8002526812681844007B904702
:103F000008BD0020FCE700BF2416002038B5044C93
:103F100004EB80056D68AD680444207BA84738BD7C
:103F20002416002038B5044C04EB80056D68ED685C
:103F30000444207BA84738BD2416002010B5044B4C
:103F400003EB8004646824690344187BA04710BD18
:103F50002416002004E011F8012B00F8012B1A466A
:103F6000531E002AF7D1704702E000F8011B1A46E1
:103F7000531E002AF9D1704710B40346002014469E
:103F8000013A34B113F8010B11F801CBB0EB0C007E
:103F9000F5D010BC7047034600E00133187808B133
:103FA0008842FAD17047000030B400252B4601E06A
:103FB00001250133012B1BD803EB43021A4C54F8A3
:103FC0002220002AF4D00468A242F2D103EB43027B
:103FD000154C04EB8202546882689442E9D103EBE9
:103FE0004302114C04EB82021489C2889442E0D14E
:103FF000022B0CD0B1B903EB43030B4A02EB830352
:104000005B89B3F5807F0BD0002030BC70472DB9A1
:10401000022901D01220F8E70020F6E70020F4E79B
:104020001020F2E71020F0E708160020002000E042
:104030000130012806D800EB40029300034AD35810
:10404000002BF5D1023818BF012070470816002058
:1040500010B5002300E00133012B19D803EB430214
:104060002B4C54F8224002689442F4D103EB4302F3
:10407000274C04EB8202546882689442EBD103EB34
:104080004302234C04EB82021489C2889442E2D199
:10409000022B11D031B103EB43021D4800EB820229
:1040A000528992BB29BB03EB4302194901EB8202FF
:1040B0005189013189B21EE00023012B07D803EB9F
:1040C0004302134C54F822200AB10133F5E7022BC6
:1040D00019D00F4C03EB430C04EB8C02D0F800E03A
:1040E00044F82CE084685460C0881081002050811E
:1040F000D0E74FF4807103EB4300054A02EB8002E6
:104100005181581C10BD0020FCE70020FAE700BFD9
:1041100008160020013801281AD800EB40030E4A87
:1041200002EB83035B89B3F5807F03D01BB1013BB6
:104130009BB200E0002300EB4002074901EB820242
:1041400053813BB900EB400083000020C85070470A
:10415000022070470020704708160020002302E06C
:1041600010BC70470133012B17D803EB43020B49F6
:1041700051F822208242F5D110B403EB43029200A1
:1041800000248C500133012BEAD803EB430203498E
:1041900051F822208242F5D1EFE77047081600203F
:1041A000436A0433090B026802F580529278B1FB2E
:1041B000F2F101E0091A0833186818B18142F9D206
:1041C000586808447047CA7E8B7E43EA022300F594
:1041D00080500278032A01D018467047487D0A7D36
:1041E00042EA002243EA0243F6E78176C1F307235D
:1041F000C376C1F307430375090E4175704700008C
:104200002DE9F84F89460C6800E0013423782F2B04
:10421000FBD05C2BF9D0D0F818A00B2220215046FF
:10422000FFF7A2FE002633460827B04603F1010B34
:10423000E55C202D53D92F2D51D05C2D4FD02E2D44
:1042400001D0B7420ED8082F74D12E2D02D00620EF
:10425000BDE8F88F4FEA88085FFA88F83E465B466B
:104260000B27E3E715F0800F1AD105F17F02D2B2D8
:104270007D2A18D8023314F80B10A1F14002D2B2F3
:104280003E2A03D981F080027E2A55D87A1EB24296
:1042900054D9721C0AF806500AF802100236C5E713
:1042A00048F00308E1E729462748FFF774FE002895
:1042B00046D1A5F14103DBB2192B06D848F002081C
:1042C0000AF8065001365B46B0E7A5F16103DBB2A0
:1042D000192BF5D848F00108203DEDB2F0E75C4419
:1042E000C9F80040202D14D804235EB39AF80020AA
:1042F000E52A10D0082F12D008F00302012A13D0AB
:1043000008F00C08B8F1040F11D08AF80B30002027
:104310009EE70023E9E705228AF80020EAE74FEA52
:1043200088085FFA88F8E7E743F01003E8E743F00E
:104330000803EAE706208BE7062089E7062087E7DF
:10434000062085E7062083E728C2000801460068AA
:1043500038B102461378202B06D93A2B04D001320B
:10436000F8E74FF0FF3070473A2B01D0002070473C
:10437000034613F8010B303809280CD89A4202D0B2
:104380004FF0FF307047012802D94FF0FF307047DF
:1043900001320A6070474FF0FF307047F8B500F502
:1043A00080531D790DB92846F8BD04461846DE6ACB
:1043B0000123324621464078FFF7B4FD0546D0B9C7
:1043C00004F5805200231371136AF31A9269934221
:1043D000E9D204F58053DF780AE004F58050836960
:1043E0001E440123324621464078FFF79BFD013FE2
:1043F000012FF2D8D7E70125D5E770B500F5805336
:10440000DB6A8B4202D10026304670BD04460D4661
:10441000FFF7C4FF06460028F6D104F580500123BB
:104420002A4621464078FFF771FD10B101264FF072
:10443000FF3504F58054E562E6E7000010B5044658
:1044400000F5805300221A714FF0FF32DA62FFF755
:10445000D4FF98BB024694F8FF1194F8FE3143EA6A
:1044600001231BB217498B422AD194F8391094F8D2
:1044700038301B0443EA016394F8371043EA012300
:1044800094F836100B4323F07F430F498B4213D02F
:1044900094F8551094F854301B0443EA016394F8DF
:1044A000531043EA012394F852100B4323F07F4347
:1044B00005498B4200D00122104610BD0322FBE7C4
:1044C0000222F9E755AAFFFF46415400B8B108B5EA
:1044D00003684BB103F58051097829B103F5805188
:1044E000C9888288914201D0092008BD03F5805314
:1044F0005878FFF7EBFC10F00100F6D0F4E7092044
:10450000704700002DE9F04784B0054617460023A8
:1045100003600846FFF71AFF061EC0F2A581A14BF3
:1045200053F82640002C00F0A4812C6004F5805341
:104530001B7883B104F580535878FFF7C7FC10F05F
:10454000010508D1002F00F0908110F0040F00F059
:104550008C810A2589E104F5805300221A70F0B29B
:104560005870FFF7BFFC10F0010F40F084811FB1BD
:1045700010F0040F40F0818100212046FFF75EFF1C
:104580000546012800F0D9800027032D00F077812F
:10459000002D40F07681227BE37A43EA02231BB2AE
:1045A000B3F5805F40F06F81E27DA37D53EA022383
:1045B0000DD194F8272094F826301B0443EA0263B7
:1045C00094F8252043EA022394F82420134304F5A9
:1045D00080529361217CD1704A1ED2B2012A00F22E
:1045E000548103FB01F1607B04F580529070002838
:1045F00000F04D81421E104240F04B81A27C667C4F
:1046000046EA022604F58052168116F07F0F40F02C
:10461000428194F814C0E27C52EA0C220ED194F844
:1046200023C094F82220120442EA0C6294F821C0BC
:1046300042EA0C2294F820C042EA0C0294F80FE0FF
:1046400094F80EC05CEA0E2C00F027810CEB010EF2
:104650000EEBD61E7245C0F02281A2EB0E02B2FB19
:10466000F0F98242C0F01D8140F6F57291457DD887
:104670004FF001084FF6F572914501D94FF003084C
:1046800009F1020A04F58059C9F814A0C9F81C7090
:104690000CEB0702C9F8202007EB0E00C9F8280030
:1046A000B8F1030F65D0002E00F0FF80114404F52F
:1046B00080525162B8F1020F71D00AEB4A010AF040
:1046C000010202EB510202F6FF72B3EB123FC0F09F
:1046D000EE8004F580534FF0FF321A61DA608022D9
:1046E0005A71B8F1030F61D004F5805282F800804E
:1046F0002D490B8801339BB20B80D3802046FFF7F6
:104700002DFDB2E0002304AA02EB810242F8103C26
:104710000131032913D80B0103F5DF7323441A7900
:10472000002AEFD0D87A9A7A120442EA0062587AC4
:1047300042EA00221B7A1343E5E70021E9E700265D
:104740000BE039462046FFF779FE054600283FF486
:104750001CAF0136032E3FF618AF04AB03EB860304
:1047600053F8107C002FECD10225F2E74FF002083D
:1047700080E7002E40F0978094F82F1094F82E20B8
:10478000120442EA016294F82D1042EA012294F8E0
:104790002C100A43C9F824204FEA8A0293E74FEA13
:1047A0004A0290E7001600202016002094F83120DD
:1047B00094F8303043EA02231BB2012B94D1791CC8
:1047C0002046FFF71AFE00288ED104F58053002200
:1047D0005A7194F8FF2194F8FE3143EA02231BB288
:1047E000344A934280D1E278A3781B0443EA0263FF
:1047F000627843EA0223227813432F4A93427FF4DC
:1048000073AF94F8E72194F8E6311B0443EA02639E
:1048100094F8E52143EA022394F8E4211343274A5C
:1048200093427FF461AF94F8EB2194F8EA311B04D2
:1048300043EA026394F8E92143EA022394F8E82169
:10484000134304F58052136194F8EF1194F8EE319C
:104850001B0443EA016394F8ED1143EA012394F841
:10486000EC110B43D3603FE70B25284604B0BDE8AD
:10487000F0870C25F9E70325F7E70A25F5E7012579
:10488000F3E70D25F1E70D25EFE70D25EDE70D2504
:10489000EBE70D25E9E70D25E7E70D25E5E70D2514
:1048A000E3E70D25E1E70D25DFE70D25DDE70D2524
:1048B000DBE700BF55AAFFFF5252614172724161AE
:1048C00070B50446FFF76AFD054668B904F58053E4
:1048D0001B78032B0AD004F580540022114660781F
:1048E000FFF72CFB00B10125284670BD04F580536D
:1048F0005B79012BEFD14FF4805200212046FFF766
:1049000033FB552384F8FE31AA2384F8FF31522368
:10491000237063706123A3704122E270722184F8D6
:10492000E41184F8E51184F8E62184F8E73104F510
:104930008056336984F8E831C3F3072284F8E9210B
:10494000C3F3074284F8EA211B0E84F8EB31F368C5
:1049500084F8EC31C3F3072284F8ED21C3F3074256
:1049600084F8EE211B0E84F8EF31F2690132F26215
:10497000012321467078FFF7D5FA00237371AAE767
:10498000023900F580535B69023B8B4206D900F582
:1049900080508378806A01FB0300704700207047D5
:1049A000012966D9F8B506460C4600F580535B69C7
:1049B0008B4260D900F580531B78022B2DD0032B3E
:1049C0003DD0012B01D0012056E001EB510500F54F
:1049D0008053196A01EB1531FFF70FFD10B14FF04D
:1049E000FF3049E06F1CC5F30B05755D06F580537C
:1049F000196A01EB17313046FFF7FFFC00283CD164
:104A0000C7F30B07F05D45EA002014F0010F01D059
:104A1000000931E0C0F30B002EE000F58053196A65
:104A200001EBD421FFF7E9FC50BB40F6FE7303EA2B
:104A3000440433195B78305D40EA03201CE000F544
:104A40008053196A01EB9421FFF7D7FCD8B940F6DF
:104A5000FC7303EA84043219D07893781B0443EA88
:104A60000063507843EA0023305D184320F0704023
:104A700002E0012070470120F8BD4FF0FF30FBE756
:104A80004FF0FF30F8E74FF0FF30F5E7F8B5064696
:104A9000C1808468012C44D00F46036803F580521E
:104AA0005269A2423FD924B903F580521278032AF1
:104AB00016D0CCB903F580521289BA4235D903F524
:104AC0008053586AF460002837D000EBD71030616B
:104AD000336807F07F0103EB411171610020F8BDDD
:104AE00003F58052546AE4E703F580539D78ED01A5
:104AF000AF4211D321463068FFF752FF0446B0F1B0
:104B0000FF3F14D0012814D9336803F580535B6943
:104B1000834210D97F1BEBE721463068FFF730FF57
:104B2000D0E70220DBE70220D9E70220D7E7012007
:104B3000D5E70220D3E70220D1E70220CFE7012901
:104B400040F290802DE9F04104460D46164600F5EE
:104B500080535B698B4240F2878000F580531B785D
:104B6000022B44D0032B59D0012B02D00220BDE8E8
:104B7000F08101EB510700F58053196A01EB173101
:104B8000FFF73BFC0028F2D107F10108C7F30B0740
:104B900015F0010520D0E35703F00F03320102F4B2
:104BA0007F621343DBB2E35504F5805301221A718F
:104BB000196A01EB18312046FFF71FFC0028D6D1F7
:104BC000C8F30B0855B1C6F3071204F8082004F522
:104BD000805401232371CAE7F3B2E4E714F90820F3
:104BE00022F00F02C6F303263243D2B2EDE700F5FE
:104BF0008053196A01EBD521FFF7FFFB0028B6D1DE
:104C000040F6FE7303EA450563196655C6F30722AD
:104C10005A7004F5805401232371A8E700F58053EE
:104C2000196A01EB9521FFF7E8FB00289FD140F6B8
:104C3000FC7303EA85056119CA788B781B0443EA83
:104C4000026303F0704333436655C6F307224A708C
:104C5000C6F307428A701B0ECB7004F58054012303
:104C6000237184E702207047022080E7F8B50546EB
:104C70000E4641B900F58053DF689FB15B69BB42C6
:104C800011D801270FE0FFF78BFE034601284CD90E
:104C9000B0F1FF3F4ED005F580525269824249D8AB
:104CA000374600E001273C460CE021462846FFF746
:104CB00077FE034680B1B0F1FF3F3BD0012839D0E9
:104CC000BC4236D0013405F580535B69A342ECD871
:104CD000012F2CD90224E8E76FF0704221462846C4
:104CE000FFF72DFF034600B98EB9BBB905F5805318
:104CF000DC601B69B3F1FF3F1ED005F58055013B19
:104D00002B616B7943F001036B71234612E022465D
:104D100031462846FFF713FF0346E6E7012B01D093
:104D2000012307E04FF0FF3304E0012302E00023FA
:104D300000E000231846F8BD2346FBE72DE9F843C1
:104D4000C5886B1C9AB2002A76D004460F460269C9
:104D5000002A73D013F07F0609D101320261C168C5
:104D600071B9026802F5805212899A4268D90135F8
:104D7000E580236803EB461363610020BDE8F883F8
:104D8000006800F580529278013A12EAD318EED109
:104D9000FFF706FE8146012854D9B0F1FF3F53D0FA
:104DA000206800F580535B694B453DD8002F4DD0FE
:104DB000E168FFF75BFF8146002849D0012849D010
:104DC000B0F1FF3F48D02068FFF7E8FA08B10120B2
:104DD000D4E74FF4805200212068FFF7C5F8276818
:104DE00049463846FFF7CCFD07F58057F86223683F
:104DF00003F580529278424510D903F58053012281
:104E00001A712068FFF7CAFA40BB236803F5805384
:104E1000DA6A0132DA6208F10108E8E703F5805343
:104E2000DA6AA2EB0802DA62C4F80C9049462068FC
:104E3000FFF7A6FD20619AE704209FE704209DE785
:104E400004209BE7022099E7012097E7042095E7DB
:104E5000072093E7022091E701208FE701208DE7EB
:104E600038B504460021FFF711FE054640B128463B
:104E700038BD00212046FFF761FF05460028F6D126
:104E800021692068FFF7B9FA05460028EFD160696B
:104E9000037853B1C37A13F0080FEAD10B22A1694A
:104EA000FFF76AF80028E4D1E1E70425DFE710B551
:104EB00082B0044601910B782F2B01D05C2B01D1DD
:104EC000013101910023A360019B1B781F2B19D98D
:104ED00001A92046FFF794F90346D0B92046FFF711
:104EE000BFFFA369DA7A0346B0B912F0040F10D1FC
:104EF0006169CB7A13F0100F15D02068FFF763F9C2
:104F0000A060E5E700212046FFF7C0FD0346002230
:104F10006261184602B010BD0428FAD112F0040FE5
:104F2000F7D10523F5E70523F3E770B504460E46F0
:104F30000021FFF7ABFD0246C0B9002508E00135AE
:104F4000B54213D001212046FFF7F8FE024668B9AA
:104F500021692068FFF751FA024638B963691B7866
:104F6000E52BECD0002BEAD00025EBE7042A01D09A
:104F7000104670BD0722FBE738B504460121FFF754
:104F8000D4FF054608B1284638BD21692068FFF7DF
:104F900034FA05460028F6D1202200216069FEF788
:104FA000E3FF0B22A1696069FEF7D4FF236803F5D4
:104FB000805301221A71E6E7F8B501292FD904467A
:104FC0000D4600F580535B698B422BD9002700E02A
:104FD000354604F580535B69AB4221D9294620460A
:104FE000FFF7DEFC0646D8B101281DD0B0F1FF3F27
:104FF0001CD0002229462046FFF7A1FD074678B9BC
:1050000004F580531B69B3F1FF3FE1D004F58052F2
:1050100001331361537943F001035371D8E7022739
:105020003846F8BD0227FBE70227F9E70127F7E733
:1050300070B584B0019000911646039103A8FFF764
:1050400085F9051E1FDB124B53F8254034B120466D
:10505000FFF784F804F5805400232370019B1BB1F3
:1050600003F5805200211170094A42F8253063B1DE
:10507000012E02D0002004B070BD0022694601A8B4
:10508000FFF740FAF7E70B20F5E70020F3E700BF52
:10509000001600202DE9F0438FB00191002800F0A8
:1050A000DE80144606460023036002F01F0702F06C
:1050B0001E0201A906A8FFF725FA054618B12846E1
:1050C0000FB0BDE8F08303AB0C93019906A8FFF77E
:1050D000EEFEDDF82C80054658B9B8F1000F54D02B
:1050E00037F0010314BF0121002106A8FEF75CFF81
:1050F000054614F01C0F00F09E80002D51D0042DA9
:1051000045D047F00807DDF82C8015B917F0080FD7
:1051100053D1BDB917F0080F01D047F02007069B07
:1051200003F58053DB6AF361C6F8208037F0010392
:1051300014BF0121002106A8FEF78AFFB0620028F3
:1051400000F08F80002DBAD1B7710027F771069C4F
:1051500041462046FFF737F8306198F81F2098F84D
:105160001E301B0443EA026398F81D2043EA022321
:1051700098F81C201343F360B760B761776234601E
:1051800004F58054E388B38099E70625B1E7FEF77C
:105190004DFF08B91225B4E706A8FFF7EDFE054656
:1051A000AFE798F80B3013F0110F04D114F0040F8F
:1051B000ABD00825A9E70725A7E7FEF723FE88F867
:1051C0000E00C0F3072388F80F30C0F3074388F8B8
:1051D0001030000E88F81100002488F80B4088F881
:1051E0001C4088F81D4088F81E4088F81F40414642
:1051F0000698FEF7E8FF814621464046FEF7F5FF98
:10520000069800F5805301221A71B9F1000F80D081
:10521000DC6A4946FFF7D0FE054600287FF479AFE7
:10522000069809F1FF3300F58052D3602146FFF75D
:10523000E4F805466DE7002D7FF46BAF98F80B306E
:1052400013F0100F09D114F0020F3FF462AF13F006
:10525000010F3FF45EAF07255BE7042559E70925F9
:105260002DE702252BE72DE9F04F83B00446884651
:10527000154699460023C9F80030FFF727F9824602
:10528000002840F0A08094F807A0BAF1000F40F089
:105290009A80A37913F0010F00F09E80E668A3685E
:1052A000F61AAE4252D32E4650E0636A1BB1204636
:1052B000FEF776FF5DE06169FFF772FB59E04FF0A2
:1052C000020A84F807A07EE04FF0010A84F807A0E4
:1052D00079E04FF0020A84F807A074E0216801F534
:1052E00080531B7933B101F58053D86A019BC01AF2
:1052F000A84201D32D031FE04FF4805208EB003089
:10530000FEF728FEF6E7019BA361A568C5F30B0530
:10531000C5F58055AE4200D23546A1692068FFF739
:105320006CF8002853D12168A368C3F30B032A4605
:1053300019444046FEF70EFEA844A3682B44A36020
:10534000D9F800302B44C9F80030761B002E3AD033
:10535000A168C1F30B03002BD7D1206800F580535F
:105360009F78013FFFB217EA113708D100299CD17D
:1053700020690128A3D9B0F1FF3FA5D06061D4F81E
:1053800000B061695846FFF7FBFA0028A1D03B182E
:105390000193350BB6F5805FB5D37B190BF58052C1
:1053A0009278934200D9D51B0BF5805B2B46019A6E
:1053B00041469BF80100FEF7A9FD00288ED04FF072
:1053C000010A84F807A0504603B0BDE8F08F4FF003
:1053D000010A84F807A0F6E74FF0070AF3E72DE982
:1053E000F04F83B004468846164699460023C9F814
:1053F0000030FFF76BF8824600284BD194F807A0E5
:10540000BAF1000F46D1A37913F0020F00F0DE804D
:10541000A368F342C0F0A18000269EE0636A002BDF
:105420003CD02046FEF7BCFE0346002B00F0C480B3
:10543000012B38D0B3F1FF3F3AD06361226902B942
:105440002361206800F58053DA6AA3699A4234D058
:10545000D4F800B061695846FFF792FAB0B33B1830
:105460000193350BB6F5805F4BD37B190BF580525A
:105470009278934200D9D51B0BF5805B2B46019A9D
:1054800041469BF80100FEF74DFD20B34FF0010AA5
:1054900084F807A0504603B0BDE8F08F6169FFF7BC
:1054A000E5FB0346C1E74FF0020A84F807A0F1E7E5
:1054B0004FF0010A84F807A0ECE7FEF76FFF002821
:1054C000C6D04FF0010A84F807A0E3E74FF0020AC4
:1054D00084F807A0DEE7206800F58053D96A019BB5
:1054E000C91AA94201D32D032DE04FF4805208EBD5
:1054F0000131FEF72FFD236803F5805300221A7156
:10550000F1E7A268E3689A4242D2019BA361A568D1
:10551000C5F30B05C5F58055AE4200D23546A169ED
:105520002068FEF76AFF002841D12768A368C3F30B
:105530000B002A4641463844FEF70CFD236803F56C
:10554000805301221A71A844A3682B44A360D9F8A0
:1055500000302B44C9F80030761B6EB3A168C1F34C
:105560000B03002BD3D1206800F580539F78013FB7
:10557000FFB217EA11377FF464AF00297FF44EAF12
:105580002369002B7FF451AFFFF770FB03464CE714
:105590005846FEF703FF28B9236803F58053019AA4
:1055A000DA62B2E74FF0010A84F807A072E74FF021
:1055B000010A84F807A06DE7A368E268934200D966
:1055C000E360A37943F02003A37163E74FF0070A78
:1055D00060E738B50446FEF779FF18B9A37913F0F0
:1055E000200F00D138BDE1692068FEF706FF0028D2
:1055F000F8D1256AEB7A43F02003EB72237B2B77FB
:10560000A3891B0A6B77A37BAB77E37BEB772169DD
:105610002846FEF7EAFDFEF7F5FBA875C0F3072361
:10562000EB75C0F307432B76000E68760023AB744E
:10563000EB74A37923F02003A371236803F580534F
:1056400001221A712068FFF73BF9CBE710B5044639
:10565000FFF7BFFF00B110BD2046FEF737FF00285F
:10566000F9D1A06AFEF756FD0028F4D12060F2E7D8
:105670002DE9F04F89B00590012900F2D8820D463E
:10568000174605A8FEF762FE0028C0F2D482984BA8
:1056900053F82060002E00F0D08206F580530022DF
:1056A0001A70C4B22046FEF71DFC10F0010F40F046
:1056B000C68210F0040F40F0C48206AA01212046E1
:1056C000FEF73CFC002840F0BE8206987F2840F29E
:1056D000BC82A5B100230093009BC01A06907B1EDC
:1056E0001F4200D18FB98349A1FB00310909002372
:1056F000814A32F81320914204D20133F8E73F2364
:105700000093E9E77D4A32F81370B7F5805F00D364
:105710003F0B1FB1802F02D9802700E00127B0FB8B
:10572000F7F340F6F572934218D84FF001094FF69F
:10573000F572934215D8B9F1030F14D0B9F1010FE6
:1057400062D003F102084FEA480808F6FF784FEAF2
:105750001838042301934FF0010B10E04FF00209B9
:10576000E5E74FF0030903F202484FEA880808F121
:10577000FF384FEA1838002301934FF0200B009AAE
:105780000BEB0203029308EB030A019B9A4407EB1D
:105790000A039B1A9842C0F05A8207AA03212046A6
:1057A000FEF7CCFB20B9079B13B1B3F5004F01D92D
:1057B00001230793079A02EB0A03013B524213406D
:1057C0000793A3EB0A030793B9F1030F25D098447D
:1057D000069AA2EB0B03A3EB080301995B1AB3FB38
:1057E000F7F30393B9F1020F1CD0B9F1030F20D0E6
:1057F000B9F1030F29D0B9F1010F21D0B2F5803FE3
:1058000072D24FF0040A22E003EB430303F10108D4
:105810004FEA580808F1030897E79B44029A1A4494
:105820000292D5E740F6F57303999942DDD80E2030
:10583000FEE14FF6F57303999942D9D80E20F7E1AE
:10584000B2F5803FDAD2CA4601E04FF00C0A002DD3
:1058500058D14FF4805200213046FEF785FB0123DA
:1058600086F8BF3186F8C031002286F8C12186F85B
:10587000C2A1FE2186F8C311069800990D1820498F
:10588000A1FB05C16D1A01EB55014D0B0795C90B25
:1058900041F03F0186F8C41186F8C5513F2186F8D2
:1058A000C61186F8C72186F8C82186F8C92186F86E
:1058B000CA01C0F3072186F8CB11C0F3074186F86F
:1058C000CC11000E86F8CD01552186F8FE11AA21D3
:1058D00086F8FF1131462046FEF724FB002840F0F1
:1058E000B8814FF0F80A0FE04FF0060AAFE700BFAB
:1058F00000160020D34D621084C200086CC200085C
:105900005B5615054FF0F00A4FF4805200213046E7
:10591000FEF72AFB0B22D4493046FEF71BFB00237F
:10592000F37210233373777386F80EB0CBF3072B23
:1059300086F80FB001233374B9F1030F00F0A4808F
:105940004FF40073DAB272741B0AB374069BB3F59A
:10595000803F80F09B80F374C3F30723337586F890
:1059600015A03F23337600237376FF22B276F376B9
:10597000009B337700237377B377F377FEF742FA10
:105980000790B9F1030F00F08F8086F82700C0F36D
:10599000072386F82830C0F3074386F82930000E25
:1059A00086F82A0086F81680C8F30723F37580234B
:1059B00086F82430292386F826301322AB4906F1D5
:1059C0002B00FEF7C7FA552386F8FE31AA2386F886
:1059D000FF310123009A31462046FEF7A3FA002842
:1059E00040F03981B9F1030F00F09A800023DDF80F
:1059F00008B004971F46002F40F0B8804FF4805243
:105A000000213046FEF7B0FA5246CDF81CA0B9F19D
:105A1000030F00F08F80B9F1010F00F089806FF063
:105A2000FF03134307933370BDF81C301B0A7370D8
:105A30009DF81E30B3709DF81F30F3700BF1010517
:105A400001235A4631462046FEF76CFA002840F002
:105A500004814FF4805200213046FEF785FA01237D
:105A600007932A46079B98457DD902F1010B012334
:105A700031462046FEF756FA002840F0F080079B9A
:105A8000013307935A46EDE700235BE786F82030A1
:105A9000C3F3072286F82120C3F3074286F82220A9
:105AA0001B0E86F823305AE786F84300C0F307231D
:105AB00086F84430C0F3074386F84530000E86F878
:105AC000460086F82480C8F3072386F82530C8F3FB
:105AD000074386F826304FEA186386F827300223FA
:105AE00086F82C30002386F82D3086F82E3086F884
:105AF0002F30012286F8302086F83130062286F8D1
:105B0000322086F83330802386F84030292386F807
:105B100042301322564906F14700FEF71BFA52E7BE
:105B20000123009A063231462046FEF7FBF95DE775
:105B3000504B76E76AF0FF0307933370BDF81C30D3
:105B40001B0A73709DF81E30B3709DF81F30F37000
:105B5000FF2333717371B371F37133727372B37264
:105B60000F23F3726AE70137934644E7CDF808B094
:105B7000049FB9F1030F18D0019F029D2A4601230B
:105B80001D4431462046FEF7CDF9002869D1013F7A
:105B9000F4D1B9F1030F0AD0002211462046FEF7D6
:105BA000CDF9003818BF012042E05D46E6E75223F8
:105BB000337073706123B3704122F270722186F8E2
:105BC000E41186F8E51186F8E62186F8E731039AB4
:105BD000531E86F8E831C3F3072386F8E931531ED4
:105BE000C3F3074286F8EA211B0E86F8EB31022345
:105BF00086F8EC31002386F8ED3186F8EE3186F830
:105C0000EF31552386F8FE31AA2386F8FF310123B0
:105C1000009D2A461A4431462046FEF783F90123A7
:105C20002A46073231462046FEF77CF9B4E71320B6
:105C300009B0BDE8F08F0B20FAE70C20F8E703204D
:105C4000F6E70A20F4E70120F2E70120F0E70E2052
:105C5000EEE70120ECE70120EAE70120E8E7012078
:105C6000E6E70120E4E700BF38C2000858C2000898
:105C700044C2000800FFFF00134B9B7BDBB2022BEA
:105C80001FD810B40446104B93F80EC05FFA8CFC7A
:105C9000002003F80C0093F80EC003EB8C0CCCF83A
:105CA00004409C7B1C4422739A7B541CE4B29C737A
:105CB00030320A703A234B702F238B70C87010BC9F
:105CC00070470120704700BF2416002008B500224D
:105CD000FFF7D2FF08BD0000014B1868704700BFF6
:105CE0002404002070B50D4E0D4D761BB61006D065
:105CF000002455F8043B01349847A642F9D1094ED7
:105D0000094D06F081F8761BB61006D0002455F830
:105D1000043B01349847A642F9D170BD58C600082B
:105D200058C6000860C6000858C60008830730B58A
:105D300048D0541E002A3FD00346CAB201E0013CBD
:105D40003AD303F8012B9D07F9D1032C2DD9CDB2FD
:105D500045EA05250F2C45EA054536D9A4F1100280
:105D600022F00F0C03F1200EE6444FEA121C03F15F
:105D7000100242E9045542E9025510327245F8D149
:105D80000CF1010214F00C0F03EB021204F00F0CE3
:105D900013D0ACF1040323F003030433134442F89B
:105DA000045B9342FBD10CF003042CB1CAB21C4437
:105DB00003F8012B9C42FBD130BD64461346002CF6
:105DC000F4D1F9E703461446BFE71A46A446E0E7D4
:105DD0000FB400B5074A83B004AB106853F8042B26
:105DE0008168019300F0A8F803B05DF804EB04B0FB
:105DF000704700BF2404002030B5054689B008462E
:105E00000C4600F06BF801210223214A049406920B
:105E1000AA6B04AC0590084401940791AC68029306
:105E2000039022B3636E13F0010FB4F90C309AB2F1
:105E300001D1980525D5910406D4626E43F4005330
:105E400022F40052A3816266284601AA214603F08B
:105E500097F9636E002814BF4FF0FF350A25DA0763
:105E600002D4A3899B0506D5284609B030BD284633
:105E700002F08EFFD6E7A06D03F028FB284609B09C
:105E800030BDA06D03F020FBB4F90C309AB2D2E71C
:105E900060C10008024B01461868FFF7ADBF00BFA4
:105EA000240400200A4B10B40A4A1C680A49D4E9A9
:105EB0002A0300FB02F201FB0322A0FB0101431CA9
:105EC00042EB0100C4E92A3020F0004010BC7047CA
:105ED000240400202DF451582D7F954C20F003010F
:105EE00010F00300C0F1000051F8043B00F1040C75
:105EF0004FEACC0C6FF000021CBF22FA0CF21343E5
:105F00004FF0010C4CEA0C2C4CEA0C4CA3EB0C02AD
:105F100022EA030212EACC1204BF51F8043B043017
:105F2000F4D0C2F1000102EA0102B2FA82F2C2F137
:105F30001F0200EBD20070472DE9F04FD5B01C4690
:105F4000914607910546099003F0B6FA02680E944F
:105F500010461792FFF7C2FF16901DB1AB6B002BD6
:105F600000F01D82079A536EDD0740F12D81B2F9D2
:105F70000C2091B28F0409D4079B42F400529A81FD
:105F800091B21A465B6E23F4005353660E0740F13C
:105F9000C080079B1B69002B00F0BB8001F01A0337
:105FA0000A2B00F0C48000242BAB224698464D46B5
:105FB000CDE929442893129400230024CDE9143418
:105FC0002B78CDE91922CDE91B2218920B92002BD8
:105FD00000F08F81AA4604E01AF8013F002B00F080
:105FE000BB80252BF8D1BAEB050640F0B9809AF8B2
:105FF0000030002B00F07D8100234FF0FF324FF086
:106000002B0920241F469AF8016008920AF1010A20
:106010008DF883300A930AF1010AA6F120035A2B66
:1060200000F2E180DFE813F00503DF00DF0000038A
:10603000DF00DF00DF00DE02DF00DF006A006E024B
:10604000DF0055027802DF0073025B005B005B003B
:106050005B005B005B005B005B005B00DF00DF0060
:10606000DF00DF00DF00DF00DF006C01DF00EA019E
:10607000C4016C016C016C01DF00DF00DF00DF0098
:10608000D002DF00DF002302DF00DF00DF00F801C5
:10609000DF009202DF00DF008707DF00DF00DF00A4
:1060A000DF00DF00DF00DF00DF006C01DF00EA015E
:1060B000C6016C016C016C01B602C601BF01DF00B4
:1060C000C302DF005A022502A402BF01DF00F8016B
:1060D00072008407DF00DF006507DF007200002226
:1060E000A6F130031AF8016B02EB820203EB4202C5
:1060F000A6F13003092BF5D90A928EE70E9B53F8CF
:10610000042B002A0A920E93C0F2E0819AF80060F4
:1061100081E7079D0998294601F0FCFC002841F021
:106120004D83A98901F01A030A2B7FF43CAF079A2B
:10613000B2F90E30002BFFF636AF536ED80702D4FB
:10614000890541F1488123464A460799099855B087
:10615000BDE8F04F01F09CBCBAEB050600F0C98029
:106160002A9BC8E9005633442A93299B0133072B05
:10617000299305DC08F108080B9B33440B9336E7A1
:106180000799099828AA04F021FC80B90DF1AC0800
:10619000F2E70799099828AA04F018FC002800F0F3
:1061A00099800D9B1BB11946099802F0E9FE079AE8
:1061B000536ED90740F1E88093895B0601F10A83A9
:1061C0000B9855B0BDE8F08F079BB3F90C209005F4
:1061D00091B23FF5CFAE1D46986D03F075F9B5F954
:1061E0000C2091B2C6E6002E00F08380012300222D
:1061F0008DF8EC6006933BAD8DF883200C930D92E7
:1062000008920F921392109217F0020302D006998F
:106210000231069117F0840B07D10A990698A1EB79
:106220000009B9F1000F00F390832A9C82B101228A
:10623000C8F80420299A013401320DF18301072A9C
:106240002A942992C8F8001000F3D88308F10808AE
:106250007BB10223C8F80430299B0234013321AA00
:10626000072B2A942993C8F8002000F3D58308F15E
:106270000808BBF1800F00F08882089B0C9AA3EB02
:10628000020BBBF1000F00F3CB82FB0500F11F8274
:106290000C9BC8F800501C44C8F80430299B2A9471
:1062A0000133072B299300F3448308F1080878078A
:1062B00005D50A9B069A9D1A002D00F3B983DDE9E6
:1062C0000A2306998A42ACBF9B185B180B93002CDB
:1062D0007FF45FAF002329930D9B1BB10D990998A3
:1062E00002F04EFE55460DF1AC082B78002B7FF4E2
:1062F00071AE2A9B002B41F010820023299356E7B0
:106300000E9B073323F00702F2E80234CDE9143480
:10631000DDE9143424F00044994618460E922146D3
:106320004FF0FF32AB4BFAF7DFFB002840F0188547
:10633000484621464FF0FF32A64BFAF7B7FB00283C
:1063400040F00E85DDE9140100220023FAF7A4FBDA
:10635000002840F065879DF88320002103209E4D92
:106360009E4B27F080070D910690472EC8BF1D4613
:1063700008910C900F9113911091002A3FF444AFB3
:10638000069B013306933FE7079B9B899A053FF5E0
:1063900014AF079CA06D03F099F8A3890DE7099845
:1063A00002F0F6FCDEE59AF8006047F0200732E6DE
:1063B00047F01007BA060E9B40F16E84073323F0B6
:1063C00007031A465B6852F8084B99460E92002B59
:1063D000C0F26F84089B013300F0FB8254EA09038A
:1063E00027F0800B40F0F682089B002B40F0F782EC
:1063F0005F46002354AD08930C933DE10120002239
:106400000E9B069053F8041B3BAD8DF883208DF84E
:10641000EC100E930C90F2E64FF000090E9C089BD6
:1064200054F8045B8DF88390002D00F0A1855A1C70
:1064300000F0A5861A464946284603F065FB0D90F4
:10644000002801F050810D9B9DF883205B1B0C936D
:1064500023EAE373CDF820900E940693CDF83490A0
:10646000CDF83C90CDF84C90CDF8409085E747F0C2
:10647000100717F0200900F0F2830E9B073323F07A
:106480000703D3F8049053F8084B0E93002327F426
:10649000806B00228DF88320089A511C00F0D48074
:1064A00054EA09012BF0800740F0CD80002A40F02B
:1064B0000486002B9DD11BF001030C9300F0308467
:1064C00030230DF24F158DF84F31D5E00A9B5B421A
:1064D0000A939AF8006047F004079CE5BD0600F1B6
:1064E000FD84FC0600F1EE85780600F1B286B90560
:1064F00040F1E8850E9B0B9953F8042B554611701B
:106500000E93F2E69AF800608DF8839083E59AF88E
:10651000006047F080077EE5524612F8016B2A2E94
:1065200001F08D82A6F13003092B924698BF00221C
:1065300001F2E5801AF8016B02EB820203EB4202E2
:10654000A6F13003092BF5D9089266E547F0100B48
:106550001BF0200900F091830E9B073323F0070303
:106560001A4652F8084BD3F804900E92012390E794
:10657000302278260E9B8DF8842053F8044B184A5D
:106580000E934FF00009022347F0020B8DF885604F
:1065900018927EE79AF80060682E03BF9AF80160AF
:1065A00047F400770AF1010A47F0400733E59AF80B
:1065B00000606C2E03BF9AF8016047F020070AF1D3
:1065C000010A47F0100726E59AF8006047F008072F
:1065D00021E500BFFFFFEF7FA0C20008A4C20008B2
:1065E000B0C20008099E304602F066FF43681846B4
:1065F0001B93FFF773FC034630461C931E4602F0C4
:106600005BFF83681993002E3FF480AD199B002B2C
:106610003FF47CAD199B1B78002B3FF477AD9AF8C3
:10662000006047F48067F6E49AF8006047F00107DD
:10663000F1E49DF88330002B7FF468AD9AF8006098
:106640008DF88340E7E4BB46012B00F0C381022BA9
:1066500054AD1FD1189A04F00F03D35C240944EA07
:1066600009744FEA191905F8013D54EA0903F2D1FA
:106670005F4654AB5B1B0C93089A0C9900238A422B
:10668000B8BF0A460D9306920F939DF8832013938B
:10669000109372E604F00703E40844EA49744FEAF1
:1066A000D909303354EA09012A4605F8013DF1D1F0
:1066B0001BF0010FDCD0302BDAD03023023A05F882
:1066C000013C54AB9B1A5F4615460C93D4E7652EEC
:1066D00040F3E980DDE9140100220023FAF7D2F942
:1066E000002800F0E1810123C8F80430299BC04A4A
:1066F00001330134072B2A942993C8F8002000F3B2
:10670000BF8408F10808229B129A934280F2DC822F
:10671000169B179A1C44C8E90023299B2A9401332D
:10672000072B299300F3178408F10808129B5D1EBC
:10673000002D7FF7BCAD102D41F35D81DFF8B492E1
:10674000224649461026B946299B0F46DDF824B05B
:10675000079C05E008F10808103D102D40F39D84CA
:1067600001331032072BC8E90076CDE92932F1DD7B
:106770002146584628AA04F029F900287FF411ADD3
:10678000DDE929320DF1AC08E6E70A9B069AA3EB96
:10679000020BBBF1000F7FF770ADBBF1100F41F39F
:1067A0005280DFF8509241462046A8464C461023BE
:1067B000299A079DDDF8249006E0ABF1100BBBF1A0
:1067C000100F01F1080119DD01321030072AC1E96B
:1067D0000043CDE92920F0DD2946484628AA04F0E7
:1067E000F5F800287FF4DDACDDE92920ABF1100BD2
:1067F000BBF1100F4FF010032BA9E5DC4546A14675
:106800008846044601325C44072ACDE92924C8F8A9
:106810000090C8F804B000F3918308F108082CE553
:10682000BBF1100F40F3E384DFF8C89141462046E6
:10683000A8464C461023299A079DDDF8249006E0CF
:10684000ABF1100BBBF1100F01F1080119DD0132A2
:106850001030072AC1E90043CDE92920F0DD29469F
:10686000484628AA04F0B2F800287FF49AACDDE983
:106870002920ABF1100BBBF1100F4FF010032BA927
:10688000E5DC4546A1468846044601325C44072AB9
:10689000CDE92924C8F80090C8F804B000F3D281EB
:1068A00008F10808F1E4129B012B40F382810123D7
:1068B000299E01341E44072EC8F800502A94C8F8B7
:1068C0000430299600F36C8308F10808169B013602
:1068D000179A1C44072EC8E90023CDE9296400F368
:1068E0006C8308F108080022DDE914010023FAF79F
:1068F000C9F8002840F07A81129B0136013B01352E
:106900001C44072EC8F800502996C8F804302A9471
:1069100000F35F8108F108081A9B01361C44C8F88F
:106920000430072E24ABCDE92964C8F800307FF786
:10693000BCAC0799099828AA04F048F800287FF40D
:1069400030AC2A9C0DF1AC08B1E4B9F1100F40F362
:10695000C686DDE929214046CDE91D36B84610241A
:106960004F46079EA946099D04E0103F102F00F1F5
:10697000080016DD0132204B1031072AC0E900342F
:10698000CDE92921F1DD3146284628AA04F01EF878
:1069900000287FF406ACDDE92921103F102F2BA839
:1069A000E8DC4D46DDE91D36B9464746804609EB31
:1069B000010401321049072ACDE92924C8F80490BE
:1069C000C8F8001000F340839DF8832008F1080800
:1069D0002CE4BB460A2C79F1000380F0FB820123F2
:1069E00030345F468DF84F410C930DF24F1543E65E
:1069F000E0C20008F4C20008E4C200080799099840
:106A000028AA1D9303F0E2FF00287FF4CAAB2A9C5A
:106A10001D9B0DF1AC081BE40799099828AA03F007
:106A2000D5FF00287FF4BDAB2A9C0DF1AC0820E413
:106A3000102D40F3BE861026299B099FDDF81C907F
:106A400004E0103D102D08F1080817DD0133BA4AA3
:106A50001034072BC8E90026CDE92934F1DD494679
:106A6000384628AA03F0B2FF00287FF49AABDDE98C
:106A70002934103D102D0DF1AC08E7DC0133AE4A8E
:106A80002C44072BCDE92934C8F80450C8F800205D
:106A90007FF715AC0799099828AA03F097FF0028FB
:106AA0007FF47FAB2A9C0AE42299002940F31081ED
:106AB000DDF84090129B9945A8BF9946B9F1000FA7
:106AC0000BDD299B4C440133072BC8E900592A945C
:106AD000299300F3818508F10808109EB9F1000F91
:106AE000A8BFA6EB0906002E00F3F582DDF840B042
:106AF0007905AB4400F1AC84229B129A934202DBED
:106B0000FA0740F19283169A17991444C8E90012C3
:106B1000299A2A940132072A299200F3A88508F1BC
:106B20000808129AAE18A6EB0B06D51AAE42A8BFFB
:106B30002E46002E0DDD299B34440133072BC8F867
:106B400000B0C8F804602A94299300F3FC8508F18A
:106B50000808002EA8BFAD1B002D7FF7A8AB102D95
:106B600040F34987DFF8D491224649461026B946BA
:106B7000299B0F46DDF824B0079C05E008F10808C2
:106B8000103D102D40F3898201331032072BC8E9E4
:106B90000076CDE92932F1DD2146584628AA03F0D6
:106BA00015FF00287FF4FDAADDE929320DF1AC08BC
:106BB000E6E7FE073FF57BAE0123299E01341E4424
:106BC000072EC8F800502A94C8F8043029967FF799
:106BD000A1AE0799099828AA03F0F8FE00287FF4CF
:106BE000E0AADDE929640DF1AC0895E6129B5D1E73
:106BF000002D7FF791AE102D40F31987224608979C
:106C00004FF0100BDFF83491099C079F05E008F165
:106C10000808103D102D40F3C78201361032072EB0
:106C2000C8E9009BCDE92962F1DD3946204628AA52
:106C300003F0CCFE00287FF4B4AADDE929620DF14F
:106C4000AC08E6E70799099828AA03F0BFFE0028D8
:106C50007FF4A7AA2A9C0DF1AC08FFF716BB17F02A
:106C6000100377D117F0400200F0AC820E9A9946DB
:106C700052F8044B0E92A4B208E41BF010030E9AD3
:106C800054D11BF040014DD052F8044B99460E925E
:106C90000123A4B2FFF7FDBB53F8044B0E93FB0690
:106CA00053D47D064ED544F3C0394B4624B2FFF78A
:106CB0008EBB2D2364428DF88330BB464FF0010319
:106CC00069EB4909FFF7E8BBF8077FF5F0AA1FE574
:106CD0000123C8F80430299B194A01330134072BDA
:106CE0002A942993C8F8002000F3688408F1080862
:106CF000002940F02582129A07F0010313433FF464
:106D0000D6AA169B1799E218C8E90013299B2A9264
:106D10000133072B299300F3508308F1080820E280
:106D200054ADA9E41BF4007940F0A08252F8044B62
:106D300001230E92FFF7ADBBE4C20008F4C20008C5
:106D4000E0C20008B80500F179824FEAE4794B46C9
:106D5000FFF73DBB0E9B53F8044B0E93FFF796BB1A
:106D6000DDE9140102460B46F9F7BEFE002840F0AB
:106D7000F785612E00F06C85412E00F07F82089B24
:106D8000013300F0948526F02003472B069300F092
:106D90007B85DDE9141247F480730F931346002BB3
:106DA000C0F2F4850C9300238B461D930D93069B34
:106DB000462B00F02B84452B00F0148508990C9B82
:106DC00001910221009126A9049123A9039122A9EE
:106DD0005A460998029100F0AFFF069B0546472BE3
:106DE00040F0448617F0010FB9460F9F40F0F7843A
:106DF000269B5B1B1293069B472B00F0F182069BA0
:106E0000462B00F04284229B1093109B069A013B74
:106E1000412A229300F08A850021F2B2002B8DF8DE
:106E20009020B6BF2D222B22109B8DF89120B8BF49
:106E3000C3F10103092B40F381850DF19F0C6246DC
:106E4000BA4F1C46104687FB0312D917C1EBA201AB
:106E500001EB8102A3EB42023032632C00F8012CDB
:106E60000B4600F1FF32ECDC3033811EDBB28C4587
:106E700002F8013C40F2FF850DF1920101E012F8A9
:106E8000013B944501F8013BF9D10DF1A1030DF14E
:106E900092021B1A134424AA9B1A1A93129B1A9A41
:106EA000012B1A440C9240F39E850C9B169A1344B6
:106EB0000C9300230C9A29F4806722EAE27247F4CB
:106EC00080770F930692139310931D9B002B40F035
:106ED000B0829DF883200893FFF74FBA0E9B0B9862
:106EE00053F8041BC2175546C1E900020E93FFF781
:106EF000FCB98F4B189317F0200949D00E9B07332C
:106F000023F00703D3F8049053F8084B0E93F807C7
:106F100009D554EA090306D030238DF8856047F07F
:106F200002078DF88430022327F4806BFFF7B1BA93
:106F3000BB46FFF70DBB7F4B1893DCE70799099819
:106F400028AA03F043FD00287FF42BA92A9C0DF109
:106F5000AC08FFF792B90799099828AA03F036FD03
:106F600000287FF41EA92A9C0DF1AC08FFF7DEBBB8
:106F7000062B294628BF06232A4608950D95069319
:106F80006D4D0E940C930F9113911091FFF7F5B97D
:106F900017F0100369D00E9B53F8044B0E93B6E71D
:106FA0000799099828AA03F011FD00287FF4F9A891
:106FB000DDE929640DF1AC0888E40799099828AA4D
:106FC00003F004FD00287FF4ECA8DDE929640DF14D
:106FD000AC0888E400230BF48062CDE90CA8069687
:106FE00092461E46DDF8648054AF0CE00023204634
:106FF00049460A22F9F7B6FD0A2C79F100031BD3A2
:10700000044689462F4620460A2200234946F9F7BE
:10701000A9FD30327D1E013607F8012CBAF1000FB0
:10702000E4D098F800309E42E0D1FF2EDED00A2C4A
:1070300079F1000380F0E080CDF864801296DDE9FC
:107040000CA8069EFFF714BB0799099828AA1D9360
:1070500003F0BCFC00287FF4A4A89DF883202A9CA0
:107060001D9B0DF1AC08FFF7E1B817F0400200F0EE
:10707000B4800E9A994652F8044B0E92A4B246E799
:107080000799099828AA03F0A1FC00287FF489A891
:107090002A9C0DF1AC08FFF736BB14463A464F4622
:1070A000914601332C44072BC8F80090C8F80450CF
:1070B000CDE929347FF7F9A83BE4012BBB467FF4E7
:1070C000C6AA8CE40E9B0B9953F8042B554611600D
:1070D0000E93FFF70AB9102E40F3AD84DFF85C90F1
:1070E000424648462146A846B9464FF0100B07468F
:1070F000299B099C079D04E00832103E102E40F3A6
:10710000488201331031072BC2E9007BCDE92931D8
:10711000F2DD2946204628AA03F058FC00287FF417
:1071200040A8DDE929312BAAE7E700BF676666665C
:10713000B0C20008C4C20008D8C20008F4C20008E7
:10714000169B1798E218C8E90003299B2A9201337D
:10715000072B299300F3318108F108080029C0F2B8
:107160000283129901338C18072BCDE92934C8F812
:107170000050C8F804107FF798A8FFF7DABB28463C
:10718000CDF820900E94FEF7A9FE20EAE073CDE939
:107190000C099DF88320CDF83C90CDF84C90CDF8AB
:1071A00040900693FFF7E9B81446089F01362C4437
:1071B000072ECDE92964C8F80090C8F804507FF77D
:1071C000A9AB06E517F400790E9B3DD053F8044BAC
:1071D00091460E93E4B2FFF759B917F400790E9B6C
:1071E00040D053F8044B91460E93E4B28FE6299AAF
:1071F000DFF84C92FFF749BB1C9B1B99ED1A1A460E
:10720000284603F073FB98F801300BB108F1010830
:10721000204649460A2200230026F9F7A3FCEFE6A0
:107220002D228DF88320FFF798B8129AAE18A6EB9E
:107230000B06D51AAE42A8BF2E468AE444F3C01905
:107240004B4664B2FFF7C3B853F8044B0E93FFF7F5
:107250001DB90E9B0B9953F8042B554611800E93C4
:10726000FFF743B853F8044B0E9350E652F8044B23
:10727000894601230E92E4B2FFF70BB930238DF853
:10728000843058238DF88530089B47F00204632B27
:1072900000F3E38200233BAD0D9347F481730F931A
:1072A000DDE914121346002B2746C0F240820C93EE
:1072B00000238B461D9326F020030693612E00F0D9
:1072C0001783412E7FF473AD22AA58460C9903F020
:1072D0007DFA00224FF07F53F9F76CF902460B4616
:1072E000CDE9102300220023F9F7CCFB08B10123DC
:1072F0002293544B0C93089BCDE912A6CDE91E783E
:10730000DDE91067AB46DDF830A003F1FF391095D9
:1073100006E00022002309F1FF39F9F7B3FBE8B9D1
:107320000022494B30463946F9F744F90F460646E4
:10733000F9F7F0FB0446F9F7D3F80B460246394655
:107340003046F8F77FFF1AF80430B9F1FF3FD8460E
:107350004D4606460F460BF8013BDAD1304639461A
:1073600000223A4BA946DDF848A0109DCDF8488090
:10737000CDE91001DDF87C80139E1E9FF9F7AAFB72
:10738000002840F04482DDE9100100222F4BF9F77C
:1073900079FB10B1E10700F13A824B46002B06DB86
:1073A000302201335B440BF8012B5B45FBD1ABEB87
:1073B0000503B94612930F9F1DE50799099828AA5E
:1073C00003F004FB00287EF4ECAEDDE929322299BB
:1073D0000DF1AC08C2E6906D02F078F8FEF7B3BE8E
:1073E000229BDA1C109302DB089A934204DD023ED2
:1073F00026F02003069308E5109B129A9342C0F2F0
:10740000828119F0010F00F0A882169A13440C93A0
:1074100019F4806F00F09082109B6726002B00F318
:1074200046810C9B23EAE373069300230F93139387
:107430004BE52D2200238DF883200893FEF7A0BF93
:10744000F4C20008C4C20008000030400000E03F61
:10745000129B4246DDF84C80EB185E460893CDF84F
:1074600030A010972146199FDDF87090DDF824A018
:10747000DDF81CB00F9B1395B8F1000F2ED0002B38
:107480006CD1013F08F1FF381B9B4944C2E9003928
:10749000299B2A910133072B299363DC0832089B2F
:1074A00038789B1B8342A8BF0346002B1C460ADD8D
:1074B0002998194401300728C2E900632A912990CC
:1074C0005BDC38780832002CB4BF0546051B002D64
:1074D00015DC06440F9BB8F1000FD0D1002B3DD135
:1074E000DDE91235EB189E42B346199790460C46DB
:1074F00028BF9B46DDF830A0109FFFF7FDBA102D86
:1075000040F36F821024299804E0103D102D02F101
:10751000080216DD0130A84B10310728C2E90034FB
:10752000CDE92901F1DD5946504628AA03F04EFA6B
:1075300000287EF436AEDDE92901103D102D2BAA7E
:10754000E8DC01309C4B29440728CDE9290155602E
:1075500013604EDC387808320644BBE70F9B013BD2
:107560000F9391E75946504628AA03F02FFA0028B6
:107570007EF417AE2A992BAA91E75946504628AABD
:1075800003F024FA00287EF40CAE38782A992BAA4E
:1075900099E7454690463A460C464F469146013398
:1075A0003444072BCDE92934C8F80090C8F80460AA
:1075B00000F35D8108F10808FFF798BA0799099868
:1075C00028AA03F003FA00287EF4EBAD22992A9C46
:1075D0000DF1AC08FFF78CBB0799099828AA03F0B6
:1075E000F5F900287EF4DDAD2A9C0DF1AC08FFF71B
:1075F00074BA5946504628AA03F0E8F900287EF4E8
:10760000D0AD38782A992BAA064463E708990C9BD9
:1076100001910321009126A9049123A9039122A994
:107620005A460998029100F087FB03780546302BF3
:1076300000F0C081229B089AB94613440F9FEC18B2
:107640005846002200230C99F9F71CFA10B1234682
:10765000FFF7CFBB269BA342BFF4CBAB30215A1C14
:1076600026921970269B9C42F9D8FFF7C2BB079956
:10767000099828AA03F0AAF900287EF492AD229B6B
:107680002A9C0DF1AC08FFF74CBA229A002A1092FE
:1076900040F3B981089909F001030B4340F04081A0
:1076A0006626109B0C9319F4806F3FF4BAAE1999BB
:1076B0000B78FF2B00F0D6810024109A204604E0BE
:1076C00001300131FF2B00F06481934280F261812F
:1076D000D21A4B78002BF3D10B780134F2E7DDE9B5
:1076E0002921FFF764B9089B9DF883200E94069327
:1076F0000C9308900F9013901090FEF73EBE00235D
:107700000893FEF78ABC129B169A9A18109B0C924B
:10771000002B40F35D816726C5E70799099828AAE1
:1077200003F054F900283EF4E8ADFEF740BD26F022
:10773000200306932D22DDE914349B4604F1004317
:107740001D920C93BAE50799099828AA03F03EF90F
:1077500000287EF426AD229D129B2A9C0DF1AC08D8
:107760005D1BFFF7F6B94E42103180F28181414630
:107770001024A846DFF84090DDF824B0079D04E00F
:107780000831103E102E40F3998001331032072B40
:10779000C1E90094CDE92932F2DD2946584628AAEC
:1077A00003F014F900287EF4FCACDDE929322BA9A2
:1077B000E7E7299BFFF762B9F4C20008079B5B6EFD
:1077C000DD0707D4079B9B899C0503D4079B986D15
:1077D00001F07CFE4FF0FF330B93FEF7F1BC089BEA
:1077E000EC182DE70221009108995A464C1C26A955
:1077F000049123A9039122A90C9B09980194029159
:1078000000F09AFA0546B9462C440F9F18E7129BE0
:1078100026930C9B1BF8012CD97B5B468A4209D12D
:10782000302003F8010C269B5A1E269213F8012CD7
:107830009142F6D0392A0BBF0C9A0132927AD2B219
:1078400003F8012CB3E5299ADFF83492FEF7DABF8A
:1078500030238DF88430782314E50998591C01F001
:10786000A7FE0546002800F0F6800D9015E5079963
:10787000099828AA03F0AAF800287EF492AC2A9C62
:107880000DF1AC08FFF732B9089B002B08BF0123AC
:10789000089347F480730F93159B002BC0F2A980C7
:1078A000DDF850B01D900C930D90FFF787BA0623BA
:1078B000089326F020030693FFF76BBA45468846E7
:1078C00001333244072BCDE92932C8F80090C8F8BB
:1078D00004607FF722AA0799099828AA03F076F88E
:1078E00000287EF45EACDDE929320DF1AC0838E405
:1078F00022AA58460C9902F069FF00224FF07F53EC
:10790000F8F758FE02460B46CDE91023002200236B
:10791000F9F7B8F808B1012322935A4B0C93EAE423
:10792000169B6626D31819440C91BCE606F10F028B
:107930000121D2B2FFF772BA672672E500295FD142
:1079400030228DF892200DF19302303302F8013B82
:1079500024ABD31A1A93FFF7A1BA109B0C9357E5E7
:10796000159B0320002BB8BF2D224FF00003A8BFAA
:107970009DF8832019460D93434D444BB8BF8DF8B5
:10798000832027F080070690FEF7EFBC00230D93BD
:10799000D0E61991109213900F940F9A139B1C9993
:1079A00013440C9A01FB03230C9323EAE37306931D
:1079B000FFF78BBA5846002200230C99F9F762F8BA
:1079C00000287FF437AE089BC3F10103229332E60F
:1079D000C3F101031A4422EAE27367260C9206936C
:1079E00023E52998ADE519F0010F3FF462AAFFF7EE
:1079F0005CBA0D909EE6299BDFF88490FFF751BB9F
:107A00000DF19202A1E7089A09F0010959EA02036F
:107A100004D10123662606930C9306E5169B662681
:107A200001331A4422EAE2730C920693FDE4DFF874
:107A30005090FFF7BBBB299BDFF84490AFE50E9B4E
:107A40009AF80160924653F8042B0E9342EAE273CF
:107A50000893FEF7E0BA079A938943F040039381B5
:107A6000FEF7A5BB00230F93139396E7089CCAE685
:107A7000DFF80C9024E702231A93FFF70FBA00BF38
:107A8000F4C20008B0C20008A8C20008ACC20008D6
:107A9000F0B54FF4806C1546002406461F46ADF243
:107AA0006C4D1AAB009304938B8916A823F0020344
:107AB000ADF80C304B6E06941993CB890C46ADF89B
:107AC0000E30CB69CDF808C007934B6ACDF814C0CF
:107AD000099301F0F5FC2A463B4669463046FEF71D
:107AE0002BFA051E07DB6946304601F01DF9002818
:107AF00018BF4FF0FF35BDF80C305B0603D5A389E6
:107B000043F04003A381169801F0DCFC28460DF2F7
:107B10006C4DF0BD38B5334B05461B680C460BB1B8
:107B20009A6B12B3B4F90C3018079AB225D52169B3
:107B300000292DD012F0010007D000256069A56052
:107B40004042A06139B1002038BD950758BF606937
:107B5000A0600029F7D1120658BF0846F4D543F0BB
:107B600040034FF0FF30A38138BD184601F010F9F3
:107B7000B4F90C3018079AB2D9D4D1062AD55207D5
:107B800014D4216943F00803A3819AB20029D1D10A
:107B900002F42070B0F5007FCCD02146284601F0D9
:107BA00097FCB4F90C3021699AB2C3E7216B51B14B
:107BB00004F14002914204D0284601F0E1F9B4F901
:107BC0000C30002222630022216923F02403C4E93F
:107BD0000012D7E7092243F040032A604FF0FF303C
:107BE000A38138BD24040020024B13B1024800F0E9
:107BF00005B8704700000000B58E0008002301465C
:107C00001A46184603F010BE2DE9F04F03690C69BF
:107C100085B0A342C0F28980013C01F11405A300A4
:107C200000F11408019355F8243058F8242001334A
:107C30008A469A4208EB84018146B2FBF3F605EBD3
:107C4000840702913AD30021AE4640460A46A34635
:107C500003955EF8045B0468ABB206FB03132D0CBE
:107C6000190C06FB05119BB2D21A1FFA84FC94442E
:107C70008AB2C2EB144202EB2C421FFA8CFC4CEA93
:107C80000243774540F8043B4FEA11414FEA224254
:107C9000DFD2019B5C4658F80330039D73B9029B09
:107CA000043B984504D307E0984504F1FF3403D220
:107CB00053F80429002AF7D0C9F810405146484625
:107CC00002F06EFA00282CDB40460023013655F8FE
:107CD000041BD0F800C08AB29A1A1FFA8CFE0B0C53
:107CE0007244C3EB1C4303EB224392B242EA0342C9
:107CF000AF4240F8042B4FEA2343E8D258F824203F
:107D000008EB84036AB9043B984504D307E098451F
:107D100004F1FF3403D253F80429002AF7D0C9F83C
:107D20001040304605B0BDE8F08F002005B0BDE83A
:107D3000F08F00BF000000002DE9F04F90469946FB
:107D4000016C99B00446CDE90489259D41B1012318
:107D5000426C93408B604A6001F0CCFF00232364A7
:107D6000B9F1000AB4BF012300232B60764BBCBFDE
:107D70002AF0004ACDF814A033EA0A0300F0AA80E2
:107D8000DDE904231046194600220023CDE90A014B
:107D9000F8F778FE074670B10123249A1360269BFA
:107DA000002B00F0E68269481860431E0393039895
:107DB00019B0BDE8F08F16AB019317AB00932046C6
:107DC000DDE90A2302F0B2FA5FEA1A56054640F0EE
:107DD0009780DDE916763E4406F23240202840F3D3
:107DE000B783C0F140000AFA00FA06F2124028FAFE
:107DF00000F04AEA0000F8F763FB0123013E0F930D
:107E0000A1F1F8710022524BF8F71CFA48A3D3E90C
:107E10000023F8F7CFFB48A3D3E90023F8F714FABF
:107E2000804630468946F8F75BFB45A3D3E900233B
:107E3000F8F7C0FB02460B4640464946F8F704FAFD
:107E400080468946F8F766FE0022834600234046B6
:107E50004946F8F721FE002840F07E82BBF1160F5C
:107E600000F26D82DDE90A013A4B03EBCB03D3E963
:107E70000023F8F711FE002872D00023BE1B0E93DA
:107E8000731E0BF1FF3B069300F160820023099300
:107E9000BBF1000F6BDA099BCDF81CB0A3EB0B0311
:107EA0000993CBF100030D93229B4FF0000B092B9C
:107EB00066D8052B40F34A830026043B2293229B7D
:107EC000023B032B00F26C86DFE813F061045E04D2
:107ED0005504380442F20F73249ACAF3130A13604C
:107EE0005AEA08031AD1269B002B00F068861A4B29
:107EF00003930833269A0398136019B0BDE8F08FF6
:107F0000DDE90A12C2F31303084643F07F510F97CD
:107F1000A6F2FF36169F41F4401173E7269B002B13
:107F200040F0EF830D4B039341E700BFAFF30080B8
:107F300061436F63A787D23FB3C8608B288AC63F6F
:107F4000FB799F501344D33F0000F07FE1C200084B
:107F50000000F83F08C4000808C3000804C3000874
:107F6000BE1B731E069300F18A840E900990069B37
:107F70005B44CDE9063B00230D93229B092B98D946
:107F8000002322934FF0FF330126089300230C9621
:107F900023930021089B61641293204601F084FE24
:107FA0000390002800F00486039B2364089B0E2B9B
:107FB00000F21481002E00F011810799002940F38E
:107FC0006084AF4B01F00F0203EBC2030A46D3E912
:107FD00000674FEA2118D10540F11784DDE90A0155
:107FE000A84B4FF0030AD3E90823F8F70DFCCDE9BD
:107FF000100108F00F08B8F1000F13D0DFF88492D9
:1080000018F0010F09D0D9E9002330463946F8F7B6
:10801000D1FA06460F460AF1010A5FEA680809F13B
:108020000809EDD1DDE9100132463B46F8F7ECFBDB
:10803000804689460E9B43B1002240464946924BFA
:10804000F8F72AFD002840F035855046F8F748FA41
:1080500042464B46F8F7AEFA8C4B0022F8F7F4F89C
:10806000A1F15073CDE910011193089B002B00F092
:108070009780079B1493089B13930C9B002B00F095
:10808000A984139A7E4B002003EBC20353E9022319
:108090007F49F8F7B9FBDDE91023F8F7D3F8CDE90C
:1080A000100149464046F8F735FD0746F8F718FA3B
:1080B00002460B4640464946F8F7C4F8DDE910236E
:1080C000039E303706F8017B80468946F8F7E4FCCA
:1080D000002840F02E85CDF854B00027DDE910AB24
:1080E0001095139D13942AE00137AF4280F22E853C
:1080F000504659460022674BF8F75CFA0022654B60
:1081000082468B4640464946F8F754FA89468046EF
:10811000F8F700FD0446F8F7E3F902460B4640463F
:108120004946F8F78FF8303452465B4606F8014B63
:1081300080468946F8F7B0FC002840F0F8844246B3
:108140004B4600205049F8F77DF852465B46F8F759
:10815000A3FC0028C8D0DDE91343109D039A0793C0
:1081600002E0964200F0CD84B24616F8013D392B6C
:10817000F7D00133DBB23370079B01330793C8E1BB
:108180005046F8F7ADF942464B46F8F713FA3F4B25
:108190000022F8F759F8A1F15073CDE910011193BD
:1081A0004046494600223C4BF8F74CF8DDE910897F
:1081B0004B46424606460F46F8F78CFC814600289F
:1081C00040F0AF84DDE91001024601F10043304682
:1081D0003946F8F761FC002840F04883179B002BD4
:1081E000C0F28C80079A0E2A00F38880244B03EBA0
:1081F000C203D3E900AB239B002B1BDA089B002BA7
:1082000018DC40F031830022234B50465946F8F7E2
:10821000D1F902460B46DDE90A01F8F747FCDDF823
:1082200020904E46002800F0CA82239BDDF80C8087
:10823000DF43CCE25246DDE90A785B4638464146E8
:10824000F8F7E2FAF8F766FC81460990F8F748F982
:1082500052465B46F8F7AEF9039E0B46024641468E
:108260003846F7F7EFFF09F1300306F8013B089BAA
:10827000012B00F05F83069401271C4604952AE039
:1082800008C40008E0C300080000F03F00001C40E4
:108290000000E03F000024400000144052465B46CE
:1082A00040464946F8F7B0FAF8F734FC0546F8F7C7
:1082B00017F952465B46F8F77DF901370B4602463F
:1082C00049464046F7F7BEFF05F13003A74206F8DE
:1082D000013B00F02C830022AB4BF8F76BF9002236
:1082E000002380468946F8F7CDFB0028D6D0049DB0
:1082F000069C079BB246013307930AE10C9A002AB9
:108300003DD0229A012A40F39F82089B03F1FF3857
:108310000D9B4345C0F27082A3EB0808089B002B1D
:10832000C0F24083069A1A440692099A17461A44E4
:1083300009920121204601F085FD064623E0012334
:10834000BE1B0E93731E06937FF5A0ADC6F101030D
:108350000993002306939BE55846F8F7C1F8424677
:108360004B46F8F78FFB00287FF478AD0BF1FF3B0D
:1083700074E5864B0393039819B0BDE8F08FDDF8E0
:108380003480099F0C9E002F0CDD069900290B46B6
:1083900008DDB942A8BF3B46099AFF1AD21ACB1A88
:1083A000099206930D9BE3B10C9B002B00F06082B9
:1083B000B8F1000F10DD31464246204601F01EFEA6
:1083C00006462A463146204601F06AFD0346294604
:1083D00020461D4601F08EFC0D9BB3EB080240F0D9
:1083E000DB820121204601F02DFDBBF1000F81460B
:1083F00000F3B380229B012B40F388814FF0000AE9
:108400000120BBF1000F40F0B480069A104410F038
:108410001F0000F09280C0F12003042B40F3D383AF
:10842000099BC0F11C0003440244099307440692CF
:10843000099B002B05DD29461A46204601F03AFE2D
:108440000546069B002B05DD49461A46204601F0ED
:1084500031FE81460E9B002B40F03881089B002B9B
:1084600040F31E810C9B002B40F09F80079B013343
:1084700007930127DDF80C80DDF820A007E02946EE
:1084800000230A22204601F03FFC054601374946F9
:108490002846FFF7B9FB574500F1300308F8013BC8
:1084A000EDDB089A0027002ACCBF93464FF0010B62
:1084B000039A9344294601222046049301F0FAFDD1
:1084C0004946054601F06CFE002840F3AB811BF8DD
:1084D000013C039A0BF1FF3B04E05A4500F0AD81EB
:1084E0001BF8013D392B0BF1010AF6D001338BF853
:1084F00000304946204601F0FDFB56B12FB1B7428E
:1085000003D03946204601F0F5FB3146204601F004
:10851000F1FB2946204601F0EDFB0023079A8AF87B
:108520000030249B1A60269B002B3FF440AC03983C
:10853000C3F800A019B0BDE8F08F1C20099B0744C8
:1085400003440993069B0344069371E70126B6E4AE
:10855000C0F1200008FA00F04DE401465A462046DA
:1085600001F04CFD229B8146012B40F3B6814FF078
:10857000000AD9F8103009EB8303186901F016FCE2
:10858000C0F1200041E700BF00002440E0C2000825
:10859000314600230A22204601F0B6FB129B064614
:1085A000002B40F3E982CDE90783002F00F31D8102
:1085B000BAF1000F40F0D981B046049B089903F04E
:1085C0000102039B0A921F46013B1944229B08911A
:1085D0001343099349462846FFF716FB3146834665
:1085E000284601F0DDFD424649468246204601F01C
:1085F000F7FDC26801460BF13003002A43D1049015
:108600002846069301F0CCFD0246049920460492C8
:1086100001F070FB049A069B1AB90999002900F031
:108620009B82BAF1000FC0F2648122994AEA010AE2
:108630000A9951EA0A0100F05C81002A00F3B68130
:10864000089A07F1010A9742D3463B7000F0B481C3
:10865000294600230A22204601F056FB46450546DE
:1086600031464FF000034FF00A02204612D001F0CD
:108670004BFB4146064600230A22204601F044FBFC
:1086800057468046A6E72046049301F033FB0122BB
:10869000049BC6E701F038FB57460646804699E73B
:1086A000229B022B7ADC0C9B002B7FF47EAF079B76
:1086B0004946013328460793FFF7A6FADDF80CB0C8
:1086C00000F1300300270BF8013BF3E6494628464A
:1086D00001F066FD0028BFF6C1AE294600230A223C
:1086E000204601F011FB079B054603F1FF380C9B68
:1086F000002B7FF44DAF129B002B40F33482089384
:10870000B7E6B04B03930333FFF7F4BBDDE9041284
:1087100000297FF473AEC2F31303002B7FF46EAE17
:10872000A94B1340002B00F00082099B4FF0010A77
:1087300001330993069B0133069361E601230C93F1
:10874000239B079A134412930133012B1F46B8BF92
:10875000012708930021172F61647FF71EAC0122C7
:1087600004235B0003F11400B842114602F1010238
:10877000F7D9616411E401230C93239B002B4CDD9A
:108780001F4612930893E5E700230C93D8E70023D4
:108790000C93F2E7129BCDF81C800893089B002BEA
:1087A0007FF443AD49460522204601F0ADFA8146EB
:1087B0002846494601F0F4FC00287FF736AD312306
:1087C0000398079F804600F8013B01370390494614
:1087D000204601F08FFA7B1CDDF80CA00793CDF842
:1087E0000C80002E7FF491AE93E631463A46204647
:1087F00001F060FC0646DBE60D9BCDF83480A8EB6B
:1088000003039B444FF0000888E5DDE90A234FF09D
:10881000020ACDE91023FFF7EEBB0123239308934F
:10882000FFF7B7BB03D1049BD8073FF550AEDA463C
:108830001BF8013D302BFAD05BE6079B039A01330E
:1088400007933123137054E60F9A002A00F0288111
:1088500003F23343069ADDF834801A440692099AEB
:1088600017461A44099264E54FF000094E46DCE4CD
:10887000294620460D9A01F0C1FB0546B1E50E9050
:1088800064E500F01181DDE90A01079A4F4B564279
:1088900006F00F0203EBC203D3E90023F7F78AFEC9
:1088A00036118046894600F0708100234FF0020A9D
:1088B000474FF20706D5D7E90023F7F77BFE0123E0
:1088C0000AF1010A761007F10807F2D1002B3FF4F4
:1088D000B1AB80468946FFF7ADBB049B002B7FF40C
:1088E00046AEDDE90412C2F31303002B3FF418AFC8
:1088F0003DE6002A12DD294601222046049301F0BC
:10890000D9FB4946054601F04BFC0028049B40F387
:108910001781392B00F0FB800BF13103BA46079A1F
:1089200037460132464607920AF8013BE1E50995D0
:10893000069C049D02460B46F7F786FC52465B46B2
:1089400080468946F8F7C6F860B952465B4640460D
:108950004946F8F797F800283FF4CBAC099BD907B4
:108960007FF5C7AC039AFFF7FFBB2046716801F0A3
:108970009BF90746002800F00C81336906F10C01D1
:1089800002339A000C30F7F7E3FB39460122204608
:1089900001F090FB804610E62946204601F02EFBB0
:1089A00005461EE5DDE908239F1AC2E4392B00F0D5
:1089B000AE80BA460133B2E7079A374601324646DF
:1089C000079277E504C300080000F07F08C40008A0
:1089D000E0C30008DDF84CA08349DDE9102301EB7A
:1089E000CA0151E90201F7F7E5FDCDE91001494659
:1089F0004046F8F78FF80646F7F772FD0B46024639
:108A000049464046F7F71EFC5346039F3036012B7C
:108A10008046894607F8016B00F0AC80139E039BEB
:108A20001E440022714B40464946F7F7C3FD894674
:108A30008046F8F76FF88246F7F752FD02460B467C
:108A400040464946F7F7FEFB0AF1300A07F801AB4A
:108A5000B74280468946E4D1DDE910010022644B2B
:108A6000F7F7F2FB42464B46F8F716F8002862D1BA
:108A7000DDE9102300205E49F7F7E4FB42464B4650
:108A8000F8F728F800283FF4A9AB16F8013CB246E5
:108A9000302B06F1FF36F8D0149B0133079338E5ED
:108AA000169BC3F13603D5E64FF0020ADDE90A89C9
:108AB000FFF7C0BA089B002B3FF462AB129B002B60
:108AC0007FF78CAB1393079B0022013B404649463E
:108AD0001493464BF7F76EFD804689460AF1010074
:108AE000F7F7FEFC42464B46F7F764FD414B002288
:108AF000F7F7AAFBA1F15073CDE910011193FFF72D
:108B0000BCBA079B013307933123FFF734BB079BA4
:108B1000BB4601330793392337460BF8013B4646E2
:108B2000D7E44FF000094E4649E69A4668E4109DA6
:108B3000139CB246B0E7149B039A0793FFF714BB4C
:108B40007FF4ECAEDA077FF5E9AEE2E6DDF854B08B
:108B5000109D139CFFF742BB392BD8D0BAF1000F00
:108B60003FF7DAAEDAE6229B022B3FF713AECDF8E1
:108B70001C809CE53E466FE7229B022B3FF70AAE26
:108B8000129BCDF81C8008930FE54FF0020AFFF707
:108B900051BA024640F2EA21174B184802F08AFE09
:108BA000002620463146666401F07EF8039078B9CD
:108BB00000224FF4D571104B104802F07BFE104B91
:108BC0000393FFF7F4B83FF433ACC0F13C00B5E4D5
:108BD000039B012223644FF0FF33239612930C92E0
:108BE0000893FFF7FBBA00BF08C400080000244048
:108BF0000000E03F00001C4014C3000828C3000828
:108C000008C30008B1F90C20F8B50C461107074657
:108C100043D4636842F40062002BA2815BDDA56A45
:108C2000002D56D000233E683B6093B212F4805270
:108C300055D101233846E169A847421C65D0A38974
:108C4000A56A5B0705D56368C01A236B0BB1E36B9C
:108C5000C01A0246E16900233846A847411C40D1AA
:108C60003B68002B3DD01D2B01D0162B54D1002288
:108C7000A38923F40063A3812369C4E90032216B33
:108C80003E6031B304F14003994202D0384600F00F
:108C900077F9002318462363F8BD2669CEB193B255
:108CA0009A0718BF0023256808BF63692660AD1BBB
:108CB000A3600CE02B463246D4F824C03846E16964
:108CC000E047B0F1000CA5EB0C05664416DD002D65
:108CD000F0DC0020F8BDE36B002BA0DCF9E7206D91
:108CE000AFE70022B4F90C30626023F4006322691C
:108CF000A381DB042260C2D52065C0E7A3894FF0C1
:108D0000FF3043F04003A381F8BD3B68002B96D0B1
:108D10001D2B06D0162B04D0A38943F04003A3815A
:108D2000F8BD00203E60F8BD38B505460C4608B1D8
:108D3000836BA3B1B4F90C00B8B1636EDB0701D447
:108D4000810515D528462146FFF75CFF636E054671
:108D5000DA0702D4A3899B050ED5284638BD00F05A
:108D600017F8B4F90C000028E7D10546284638BDAD
:108D7000A06D00F0A9FBE5E7A06D00F0A7FB284679
:108D800038BD00BF014900F073BB00BF91B90008B6
:108D90002DE9F0478246394800F096FBDAF8384072
:108DA000002C66D1042303223549DAF80450CAF8AE
:108DB0003C10DFF8D090DFF8D080344F344E0AF505
:108DC0003B71CAE9B921CAF8E0422146EB600822AA
:108DD000C5E90044C5E904446C66AC60AC6105F1CA
:108DE0005C00FCF7A3FFC5E90759C5E90987EE62F6
:108DF00005F1580000F064FBDAF80850254B2146D5
:108E0000EB600822C5E90044C5E904446C66AC6027
:108E1000AC6105F15C00FCF789FFC5E90759C5E9BC
:108E20000987EE6205F1580000F04AFBDAF80C50B1
:108E3000194B2146EB600822C5E90044C5E904440A
:108E40006C66AC60AC6105F15C00FCF76FFF05F18E
:108E50005800C5E90759C5E90A76C5F8248000F02D
:108E60002FFB01230548CAF83830BDE8F04700F071
:108E70002DBB0248BDE8F04700F028BB401600209B
:108E8000858D000861A8000885A80008C5A800080D
:108E9000E5A800080900010012000200014800F0E6
:108EA00013BB00BF3C160020014800F00FBB00BF01
:108EB0003C16002038B5084B084D5B1B9C1007D0B2
:108EC000043B1D44013C55F804399847002CF9D166
:108ED000BDE8384002F09EBF64C6000860C60008C6
:108EE000F8B50C46234F064600F0D2FEBB685D681D
:108EF000C4F57E6325F003050F332B4423F47F6311
:108F000023F00F03A3F58054B4F5805F07DB002145
:108F1000304601F093FCBB682B44984204D03046A5
:108F200000F0BCFE0020F8BD3046614201F086FC36
:108F300001300DD0104ABB682D1B45F001055D6066
:108F4000136830461B1B136000F0A8FE0120F8BD1B
:108F50000021304601F072FCBA68831A0F2BDEDD67
:108F600043F001035360054B03491B68C01A0860B6
:108F7000D5E700BF54080020441600205C0C0020F8
:108F800000295ED0F8B50C46064600F081FE54F884
:108F9000042C784FA4F1080522F001016818D7F8D5
:108FA00008C04368844523F0030300F08780D2079C
:108FB000436034D454F8082C07F10804AD1A114466
:108FC000AA68A24268D000EB030CDCF804E0D5F8F4
:108FD0000CC01EF0010FC2F80CC0CCF8082000F045
:108FE000918041F001036B600160B1F5007F31D2E7
:108FF0004A09CB08012191407A6801331143796015
:1090000007EBC30257F83310083AC5E9021247F8D4
:109010003350CD603046BDE8F84000F03FBEC21886
:109020005268D2070ED4194407F108048368A3429A
:1090300070D0C268DA60936041F001036B606950E0
:10904000D3E7704741F00103B1F5007F44F8043CD9
:109050000160CDD3B1F5206F4FEA512347D28B0980
:1090600003F1390003F13802C300F818FB5808383F
:10907000984258D05A6822F003028A4202D99B686B
:109080009842F7D1D868C5E9023085603046DD6086
:10909000BDE8F84000F002BEC2185268D20763D49F
:1090A0000B44D0E90212CA60916043F001026A6089
:1090B0003046EB50BDE8F84000F0F0BD0B44D1075E
:1090C00007D454F8082CAD1A1344D5E90212CA602B
:1090D000916043F001026A60274ABD6012689A42BB
:1090E00098D8264B30461968FFF7FAFE92E7142B02
:1090F0000AD9542B1FD80B0B03F16F0003F16E023A
:10910000C300B2E7194491E703F15C0003F15B028D
:10911000C300AAE741F00103C7E90455C5E90244C9
:109120006B60695076E70121921001FA02F27968CA
:109130000A437A60A7E7B3F5AA7F06D8CB0B03F101
:10914000780003F17702C3008FE740F25452934254
:1091500006D88B0C03F17D0003F17C02C30084E789
:109160004FF47E737E2280E741F001036B60016063
:1091700050E700BF54080020600C00207416002047
:109180009368002B00F0B7802DE9F04FB1F90C3057
:109190000C4619078046174683B098B225D5236937
:1091A0001BB310F002033D682DD04FF0000B5E465C
:1091B000DFF8B8A2002E00F08B80564533465A46A1
:1091C00028BF53464046E169D4F824C0E047002850
:1091D00040F38780BB6883441B1A361ABB60002BA0
:1091E000E8D1002003B0BDE8F08F21464046FEF7ED
:1091F00091FC002840F03681B4F90C303D6898B2FB
:1092000010F00203D1D110F0010976D14E46002EA4
:109210005AD08205D4F808B040F1B580B3455A461B
:1092200000F2CD8010F4906F00F0CB8023682169AC
:10923000A3EB010B636903EB430A0AEBDA7A0BF148
:1092400001034FEA6A0A33445345524684BF9A46A3
:109250005246430540F1EA801146404600F0A8F925
:10926000002800F0F9805A4621690190F6F770FF56
:10927000A289019B22F4906242F08002A28103EB5A
:109280000B0023613246AAEB0B03B346C4F814A0CB
:10929000A3602060B24600264946019200F07CFCA3
:1092A000A3682168019AA3EB0B030A44A360226020
:1092B000B868D144A0EB0A00B860002891D0B4F996
:1092C0000C0080B2002EA4D1D5E9009608359EE7A7
:1092D000D5E900B608356DE721464046FFF724FD85
:1092E00080B3B4F90C304FF0FF3043F04003A3815A
:1092F00003B0BDE8F08F002070471E46AA4699468D
:1093000018461D4656B3002832D04A4620682169C7
:10931000B24228BF32468842636904D9A16803EB90
:10932000010B5A4574DC934265DC2A464046E169EC
:10933000D4F824C0E047B0F1000BD2DDB9EB0B0943
:10934000CAD00120BB685D44A3EB0B03A6EB0B0660
:10935000BB60002B3FF445AF002ED4D10AF10803C7
:1093600053F8046C9A4653F8085C0833002EF7D083
:1093700032460A21284600F0C7FB002869D0013098
:10938000A0EB0509C1E72068236998421BD86369EF
:10939000B34218D86FF0004CB44528BFB4469CFBCC
:1093A000F3FC4A4603FB0CF34046E169D4F824C0C1
:1093B000E047B0F1000A94DDA6EB0A0678E7B34671
:1093C0003246206866E7B345DA4628BFB2464946CA
:1093D000524600F0E1FBA3682268A3EB0A03524463
:1093E000A3602260002BE7D121464046FFF79CFC9A
:1093F0000028E1D075E729469346019200F0CCFBA6
:10940000A368019A9B1AA36023681A44226095E717
:1094100029465A4600F0C0FB236821465B4440467B
:109420002360FFF781FC002888D05AE7404600F00F
:10943000DFFF034600287FF422AF40462169FFF793
:109440009FFD0C22B4F90C30C8F8002023F08003F3
:1094500049E7721C914659E70C22B4F90C30C8F860
:10946000002040E74FF0FF30BCE600BF00FCFF7F6C
:109470002DE9F8434FF000090746884600F5387695
:10948000D6E90154013D10D4A389013D012B08D92F
:10949000B4F90E30013304D021463846C04749EABA
:1094A00000096B1C04F16804EED13668002EE7D188
:1094B0004846BDE8F88300BF00487047540D0020BF
:1094C000704700BF704700BF704700BF704700BFC4
:1094D0002DE9F0418B890C46990796B008D50122F9
:1094E00004F14303C4E90432236016B0BDE8F081FF
:1094F000B4F90E100646002927DB6A4602F046FB47
:10950000002821DB019D4FF4806805F47045A5F526
:109510000055B5FA85F54FF400676D0941463046B0
:1095200000F046F8B4F90C30F0B1204A43F0800363
:10953000F263C4F81480A3812060206135BB3B43F3
:10954000A38116B0BDE8F081A38913F0800519D07E
:109550004FF0400830464146002500F029F82F46DC
:10956000B4F90C300028E0D19A05BED4012123F0D3
:10957000030304F1430243F00203C4E90421A3817D
:109580002260B2E74FF480682F46C7E73046B4F94F
:109590000E1002F00FFB10B9B4F90C30CFE7A3891D
:1095A00023F0030343F001031BB2C8E7858D0008D5
:1095B0002DE9F04F01F10B05162D064683B025D895
:1095C000102900F2B88000F063FB102518224FF03C
:1095D000020CB54F3A445368A2F108018B4200F0E7
:1095E000B7805A68D96822F003021A449C68304652
:1095F000E1608C60516803F1080441F001015160A1
:1096000000F04CFB204603B0BDE8F08F35F00705B5
:1096100000F19180A94200F28E8000F039FBB5F58F
:10962000FC7FC0F094816B0A00F08C80042B00F268
:109630006A81AB0903F1390C03F138044FEACC001D
:10964000994F384443680838984206D10CE0002905
:1096500080F22681DB68984206D05A6822F0030225
:10966000511B0F29F3DDA4463C69DFF840E2744545
:109670007AD0626822F00302531B0F2B00F376812D
:10968000002BC7E904EE80F26781B2F5007F80F01D
:1096900019810121D30852090B4491407A6857F887
:1096A00033000A4307EBC3010839A060E1607A6028
:1096B00047F83340C46001214FEAAC03994091421E
:1096C00059D8114206D12CF0030C490011420CF17B
:1096D000040CFAD007EBCC0948466446D0F80C805D
:1096E000404508D11CE1002B80F22181D8F80C8084
:1096F000404500F01581D8F8042022F00302531BE6
:109700000F2BF0DD08EB050145F00105C8F804500A
:109710003046D8E90264F460A66043F00104C7E96A
:1097200004114C60C1E902EE48F8023000F0B6FACC
:1097300008F1080402E00C2300243360204603B043
:10974000BDE8F08F4FF400704FF0400C3F2477E7F6
:10975000D3689A4208BF0CF1020C7FF442AF3C6917
:10976000DFF848E1744584D101217A684FEAAC03FF
:1097700099409142A5D9BC68636823F003094D451F
:1097800003D8A9EB05030F2B7ADCDFF824B1494B92
:10979000DBF800201B6801322B4404EB090A00F0BF
:1097A0002F8103F580530F3323F47F6828F00F08CF
:1097B0004146304601F042F8411C024600F0EF807D
:1097C000824500F2EA803C4B196841440846196022
:1097D00000F04981DBF80010019301311BBFA2EBBF
:1097E0000A0A5044CBF80020186012F0070B00F072
:1097F0001181CBF108010A44CBF580519044083126
:10980000A1EB0801C1F30B0A51463046009201F06A
:1098100015F8421CDDE9002300F04B81801A00EBB3
:109820000A08196848F001005144BC42BA60196046
:10983000506000F02481B9F10F0F40F222814FF007
:10984000050E6068A9F10C0C2CF0070C00F001006B
:1098500040EA0C006060BCF10F0F04EB0C00C0E9A3
:1098600001EE00F22E8114465068144B1A688A42A9
:1098700038BF1960124B1A688A4238BF196090E0ED
:10988000621943F0010345F0010565603046BA6096
:109890000834536000F002FA204603B0BDE8F08FB0
:1098A000D9681A44A2E600BF540800205C080020D2
:1098B0005C0C002074160020441600206C1600205A
:1098C00070160020B2F5206F4FEA52235FD3142B9D
:1098D00000F2B18003F15C01C9005B33781879585C
:1098E0000838884200F08F804B6823F003039342CE
:1098F00002D989688842F7D1C8687A68C4E9021039
:109900008460CC60D7E6142B59D9542B00F29B808D
:109910002B0B03F16F0C03F16E044FEACC008FE6C2
:109920000134A30700F108007FF4D8AE53E04446A9
:1099300042445368D8F80C1043F00103536054F8C4
:10994000083F3046D9608B6000F0A8F9F6E64FEA90
:10995000D50C05F108023CE622445368304643F03A
:109960000103536000F09AF90834E7E6611945F005
:109970000105656043F00105C7E904113046C1E9FE
:1099800002EE4D60A35000F089F90834D6E6930941
:1099900003F13901C9003833A0E7BC425ED0BC688E
:1099A000606820F003084545A8EB050302D80F2B9B
:1099B0003FF766AF304600F071F90024BEE603F1D0
:1099C0005C0C03F15B044FEACC0039E659F8083926
:1099D0004B4540F095801CF0030F0CF1FF3CF5D196
:1099E0007B6823EA01037B60490099423FF6C3AEDE
:1099F00011B9C0E6490004341942FBD0A44669E617
:109A000003F11008D4E601229B109A407B681A43A8
:109A10007A6073E702EB08014942C1F30B0A514631
:109A20003046009200F00AFF431CDDE900237FF47A
:109A3000F5AEDA46F5E6542B26D8130B03F16F0189
:109A4000C9006E334AE7B3F5AA7F26D8EB0B03F1C2
:109A5000780C03F177044FEACC00F1E5294B186844
:109A600040441860B6E6CAF30B0CBCF1000F7FF45B
:109A7000B1AEBC68C84448F001006060F5E6144629
:109A8000F3E60123536095E7B3F5AA7F24D8D30BFF
:109A900003F17801C900773320E740F25452934232
:109AA00024D8AB0C03F17D0C03F17C044FEACC000D
:109AB000C6E5ABF1080BD8444FF0000AA8EB02084A
:109AC000AFE604F1080130460093FFF759FABC688D
:109AD000009B60681968C8E640F254518B420BD86D
:109AE000930C03F17D01C9007C33F7E64FF47E70DF
:109AF0004FF07F0C7E24A3E54FF47E717E23EDE6CC
:109B00007B6871E7441600205FFA81FC810710D062
:109B10000346511E2AB90AE09A0718460AD00139AD
:109B200005D3184613F8012B6245F5D17047002084
:109B30007047114603290CD80029F8D00346014488
:109B400001E08B42F3D0184613F8012B6245F8D19F
:109B5000ECE7024610B54CEA0C2444EA04441046F3
:109B6000036804326340A3F1013E2EEA030313F0BD
:109B7000803F04D1043903291046F0D851B103467F
:109B8000014401E08B4205D0184613F8012B6245D1
:109B9000F8D110BD002010BD88420DD98B1883422A
:109BA0000AD900EB020CBAB1624613F801CD994212
:109BB00002F801CDF9D170470F2A0ED8034602F101
:109BC000FF3C4AB10CF1010C013B8C4411F8012B14
:109BD000614503F8012FF9D1704740EA01039B0763
:109BE0004FD1A2F1100370B501F1200C23F00F0545
:109BF00001F1100E00F11004AC441B095EF8105C7A
:109C00000EF1100E44F8105C5EF81C5C103444F841
:109C10001C5C5EF8185C44F8185C5EF8145CE64561
:109C200044F8145CEAD1013312F00C0F01EB03117C
:109C300002F00F0400EB031327D08E46043C24F0FF
:109C400003064FEA940C1E441C1F5EF8045B44F8A4
:109C5000045FB442F9D10CF1010402F0030203EBFA
:109C6000840301EB840102F1FF3C4AB10CF1010CC9
:109C7000013B8C4411F8012B614503F8012FF9D108
:109C800070BD034602F1FF3C9CE72246EBE700BFB4
:109C90000148FFF719BC00BF381600200148FFF744
:109CA00015BC00BF3816002038B5C36C05460C46FD
:109CB0004BB153F8240080B1026843F824200023FC
:109CC000C0E9033338BD2122042101F013FE03460D
:109CD000E8640028EDD1002038BD0121284601FAB2
:109CE00004F56A1D920001F005FE0028F3D0C0E9DA
:109CF0000145E4E731B1C36C4A6853F822000860BB
:109D000043F82210704700BF2DE9F0414FF0000EDC
:109D10000E461C460D69074601F1140001680EF15C
:109D2000010E8BB202FB0343090C4FEA134C02FBFA
:109D300001CC9BB203EB0C43754540F8043B4FEA62
:109D40001C44EBDC3CB1B368AB4207DD06EB85039A
:109D500001355C6135613046BDE8F0817168384697
:109D60000131FFF7A1FF8046A8B1326906F10C016D
:109D7000023292000C30F6F7EBF9FB6C726853F884
:109D80002210316043F82260464606EB8503013518
:109D90005C613561DFE70246B521024B024801F004
:109DA00089FD00BF14C3000884C30008020C12041C
:109DB0000346CAB91020834013F07F4F04BF1B0233
:109DC000083013F0704F04BF1B01043013F0404FF4
:109DD00004BF9B000230002B05DB13F0804F00F125
:109DE000010008BF202070470020E5E70368024615
:109DF00013F0070009D0D9071FD498074BBF5B08A1
:109E00009B08012002201360704799B209B9102005
:109E1000C340D9B209B908301B0A190704BF1B098E
:109E20000430990704BF9B080230D90703D45B08AC
:109E300000F1010003D0136070470020704720201C
:109E4000704700BF38B5C36C04460D464BB1586827
:109E5000B0B102685A60002201234561C0E90323C2
:109E600038BD2122042101F045FD0346E0640028AD
:109E7000EDD100224FF4A071074B084801F01AFD04
:109E80001C220121204601F035FD0028F1D00122DD
:109E90000223C0E90123DEE714C3000884C30008DD
:109EA0002DE9F04F0E6915698846AE42144685B01B
:109EB00005DB2A46234635460C4616469846A368D7
:109EC0006168AF19BB42B8BF0131FFF7EDFE0190E9
:109ED000002800F08780019B03F1140909EB870A31
:109EE000D14505D24B46002243F8042B9A45FBD8B6
:109EF00008F1140808EB860B04F11403D8451A4640
:109F000003EB85055FD22B1B153B23F003030433C2
:109F10001534A54238BF0423CDE902A7AC461F463D
:109F2000924605E0000C29D1C34509F1040948D93E
:109F300058F8040B85B2002DF4D056464C46002349
:109F400056F8040B216882B21FFA81FE05FB02EE6F
:109F5000000C0A0C05FB0022734402EB13429BB277
:109F600043EA0243B44544F8043B4FEA1243E7D8BE
:109F700049F8073058F8040C000CD5D0D9F8003057
:109F8000544619464D4600222688090C00FB06114E
:109F90009BB20A4443EA024345F8043B54F8046B7D
:109FA0002968360C8BB200FB0633A44503EB124341
:109FB0004FEA1342E8D8C34549F8073009F10409CC
:109FC000B6D8DDE902A7002F02DC05E0013F03D08F
:109FD0005AF8043D002BF9D0019B18461F6105B0CB
:109FE000BDE8F08F024640F25D11024B024801F0DD
:109FF00061FC00BF14C3000884C3000812F003030F
:10A000002DE9F041144607462ED10E46A4101CD06F
:10A01000BD6C95B3E3074FF0000806D4641014D06C
:10A020002868A8B10546E307F8D52A4631463846E0
:10A03000FFF736FFB6B17168FB6C641053F821204E
:10A04000326043F821600646EAD13046BDE8F0812F
:10A050002A4629463846FFF723FF28600546C0F800
:10A060000080E0E70646D9E70F4A013B52F823207B
:10A070000023FFF749FE0646C8E701213846FFF7EF
:10A0800013FE054640B140F271230122C0E90423CA
:10A090000023B8640360BDE702464FF4A071034B90
:10A0A000034801F007FC00BFD0C4000814C3000837
:10A0B00084C300082DE9F0470C462669A36806EB27
:10A0C0006216751C9D429046074649684FEA621920
:10A0D00004DD5B009D4201F10101FADC3846FFF727
:10A0E000E3FD002851D0B9F1000F00F114010FDD9C
:10A0F0000B464FF0000C09F105024FEA820E00EB0F
:10A10000820243F804CB9342FBD1AEF1140319440D
:10A11000226904F1140318F01F0803EB820C2CD001
:10A120008E464FF0000AC8F120091A6802FA08F2B8
:10A1300042EA0A024EF8042B53F8042B9C4522FAFB
:10A1400009FAF2D8ACEB0403153B23F00303043304
:10A1500004F11502944538BF0423BAF1000F18BF6B
:10A160002E4641F803A0FB6C6268066153F822108A
:10A17000216043F82240BDE8F087043953F8042BEE
:10A180009C4541F8042FF9D8EDE7024640F2D91179
:10A19000014B024801F08EFB14C3000884C3000881
:10A1A00084460B690069C01A15D10CF1140C1431E6
:10A1B0000CEB830210B401EB830301E0944508D259
:10A1C00052F8044D53F8041D8C42F7D004D24FF0DE
:10A1D000FF3010BC70477047012010BC704700BFB3
:10A1E0002DE9F84F0C6913698946E41A002C1746CB
:10A1F0007DD101F11406143202EB830206EB8303D6
:10A2000001E09E4276D253F8045D52F8041D8D425F
:10A21000F7D067D3D9F80410FFF746FD002873D0B4
:10A22000D9F81050C46000F1140426464FF0000A1B
:10A230003B6909F1140807F1140E09F1100C08EB41
:10A2400085020EEB83095CF804BF5EF8041B1FFA5D
:10A250008BF353441FFA81FA090CA3EB0A03C1EBF9
:10A260001B4101EB23419BB243EA0143F14546F810
:10A27000043B4FEA214AE6D8A9EB07011539153707
:10A28000B94521F0030606F1040638BF042621F083
:10A29000030138BF0021B044424526440C4418D97C
:10A2A0003746444654F8041B8BB253444FEA234AC2
:10A2B0000AEB11419BB243EA0143A24247F8043B37
:10A2C0004FEA214AEED8541EA4EB080424F00304FC
:10A2D000344423B954F8043D013D002BFAD0056104
:10A2E000BDE8F88F4B460124B9461F4692E7F9DBDB
:10A2F00000248FE70021FFF7D7FC60B10122002383
:10A30000C0E90423BDE8F88F02464FF41071054BF5
:10A31000054801F0CFFA024640F23221014B0248D3
:10A3200001F0C8FA14C3000884C3000870B5012105
:10A3300082B016461D46FFF7B7FC044600284CD0F5
:10A340002B46C5F30A55C3F313030DB143F4801331
:10A35000002E019322D068460096FFF747FD0028A3
:10A3600037D0019B0099C0F1200203FA02F20A43A0
:10A37000C34001936261002B14BF02210121A3613C
:10A380002161B5B1069BA5F2334505441D60079BCD
:10A39000C0F135001860204602B070BD01A8FFF77B
:10A3A00025FD0123019A1946626120302361002DA9
:10A3B000E8D104EB8102A0F232431069069A1360DF
:10A3C000FFF7F4FCC0EB41112046079B196002B077
:10A3D00070BDDDE900236261CDE7024640F20A313B
:10A3E000014B024801F066FA14C3000884C3000858
:10A3F0002DE9F84F1646002900F0988006F10B056C
:10A4000080460C46FFF744FC162D5DD810252A46E1
:10A41000AE425ED854F8041CA4F1080921F00307E9
:10A42000974262DABC4B09EB0700D3F808C08445B9
:10A4300000F09780D0F804C02CF0010303445B685F
:10A44000DB0768D42CF0030C07EB0C03934247DACC
:10A45000CB0710D454F8083CA9EB030ADAF804300F
:10A4600023F003018C44BC44944580F211817B1895
:10A47000934280F2E88031464046FFF799F806465D
:10A48000E0B154F8043CA0F1080223F001034B446E
:10A49000934200F0D2803A1F242A00F2F580132A5A
:10A4A00000F2AC8003462246116819605168596079
:10A4B00092689A6021464046FEF762FD4046FFF7EB
:10A4C000EDFB3046BDE8F88F25F00705002D2A4644
:10A4D0009EDA0C230026C8F800303046BDE8F88F1D
:10A4E0001F46D0E90223D3609A607B1B0F2B22D832
:10A4F000D9F8043003F001033B43C9F804304F445A
:10A500007B6843F001037B6026464046FFF7C6FBAD
:10A510003046BDE8F88FC907ADD454F8083CA9EB24
:10A52000030ADAF8041021F00301A0E71146BDE8A0
:10A53000F84FFFF73DB8D9F8041043F0010301F0DC
:10A5400001012943C9F8041009EB05014B604F4490
:10A550007B68404643F0010308317B60FEF710FD45
:10A56000D2E7DCF8040020F0030B07EB0B0C05F13D
:10A57000100084454DDAC9073FF57DAF54F8081C3B
:10A58000A9EB010ADAF8041021F003018B44BB4463
:10A5900058453FF76CAF5646DAF80C1056F8080FDE
:10A5A0003A1F242AC160886000F2DB80132A40F23F
:10A5B000D68021681B2ACAF808106168CAF80C10F6
:10A5C00000F2E08008340AF110022168116061682D
:10A5D0005160A1689160ABEB05020AEB050142F006
:10A5E000010299604A60DAF80430404603F0010342
:10A5F0001D43CAF80450FFF751FB6EE723681B2A7E
:10A6000003606368436068D804F1080200F108033E
:10A610004AE709EB0502ACEB050C9A604CF001032C
:10A62000536054F8043C404603F001031D4344F8D2
:10A63000045CFFF733FB26464FE750F8043C23F059
:10A6400003031F4451E75646DAF80C1056F8080F7A
:10A650003A1F242AC16088604CD8132A48D921683F
:10A660001B2ACAF808106168CAF80C1056D80834BA
:10A670000AF110021F462368D146136063685360D5
:10A68000A3683446936030E72146FFF785FA11E767
:10A690005646D0E90213CB60996056F8081FDAF8E5
:10A6A0000C303A1F242ACB6099602DD8132A29D95F
:10A6B00023681B2ACAF808306368CAF80C3042D8ED
:10A6C00008340AF11003226867461A606268D146AE
:10A6D0005A60A26834469A6007E7A368242A836018
:10A6E000E368C36026D004F1100200F11003DBE63A
:10A6F0003246BFE7214630461F46D146FFF74CFAA7
:10A700003446F2E63346DEE7214630466746D14618
:10A71000FFF742FA3446E8E654080020A168242AEC
:10A72000CAF81010E168CAF8141020D010340AF1E9
:10A7300018029FE7236904F118020361636943610A
:10A7400000F11803B0E6A368242ACAF81030E368C1
:10A75000CAF8143022D010340AF11803B3E7324695
:10A7600033E721463046FFF717FA174B33E72269E4
:10A770001834CAF8182054F8042CCAF81C200AF11E
:10A78000200277E7A168242ACAF81010E168CAF805
:10A7900014100ED010340AF1180216E72369183489
:10A7A000CAF8183054F8043CCAF81C300AF12003E7
:10A7B00089E722691834CAF8182054F8042CCAF81A
:10A7C0001C200AF1200200E754080020F8B50027F9
:10A7D000DFF85CC021F00043634504460D46176076
:10A7E00023DC844653EA0C0C1FD0DFF848C0164621
:10A7F00001EA0C0C0A46BCF1000F09D100220E4BF5
:10A80000F5F7D8FE6FF0350704460A4621F00043FD
:10A8100022F0FF421B1522F4E002A3F2FE333B4478
:10A8200042F07F55336045F4001520462946F8BDB7
:10A83000FFFFEF7F0000F07F00005043002238B59B
:10A84000064D044608462A60F7F71AFA431C00D062
:10A8500038BD2B68002BFBD0236038BD7816002054
:10A8600010B50C46B1F90E1001F0E8F9002803DB31
:10A87000236D0344236510BDA38923F48053A38172
:10A8800010BD00BF2DE9F0410C46B1F90C101F4678
:10A89000CB05054616460BD421F48051A1813B46D9
:10A8A00032462846B4F90E10BDE8F04100F0A6BFCC
:10A8B000B4F90E100223002201F094F9B4F90C103F
:10A8C000EAE700BF10B50C46B1F90E1001F08AF9A5
:10A8D000A389421C0EBF23F4805343F480532065A8
:10A8E000A38110BDB1F90E1001F040B830B540EAB7
:10A8F0000104A30722D1032A20D90B468446194616
:10A9000053F8045BA5F1013424EA050414F0803FF8
:10A9100015D1043A032A19464CF8045BEFD801F12B
:10A92000FF3E52B163461EF8011F541E03F8011B7F
:10A9300041B122469C46002AF4D130BD844601F143
:10A94000FF3EEEE76244002CF7D003F8011B934270
:10A95000FBD130BD2DE9F84F4B6E90469C042DD5B0
:10A960009368126843B38B46064602F1080959E919
:10A97000025A5FEA9A0715D00024043D01E0A7427D
:10A980000ED05A46304655F8041F01F0CBF8431C50
:10A9900004F10104F3D10023C8E90133BDE8F88FC5
:10A9A000D8F808302AF0030AA3EB0A03C8F80830E5
:10A9B00009F10809002BDAD10020ECE7FEF7E0FBF3
:10A9C0000023C8E90133BDE8F88F00BF10B49468D4
:10A9D00014B110BCFFF7BEBF2046546010BC7047D6
:10A9E0002DE9F04FBDB01C461746CDE90530029168
:10A9F00018B1836B002B00F07782029A536EDE074A
:10AA000040F18481B2F90C108AB2900408D441F468
:10AA1000005202994B6E8A8123F4005392B24B6626
:10AA2000110740F1EC80029B1B69002B00F0E780CE
:10AA300002F01A030A2B00F0F08013AB10930023EE
:10AA4000CDE91133CDE90933CDE90B330DF14C09D3
:10AA500004933B78002B00F046813C4604E014F858
:10AA6000013F002B00F02181252BF8D1E51B40F0A0
:10AA70001E812378002B00F036814FF00003002563
:10AA80004FF0FF3B4FF02B088DF83B306378039578
:10AA9000671C0137A3F120025A2A00F24681DFE841
:10AAA00012F0A102440144019D0244014401440109
:10AAB0007C02440144016A00530244012902AF02AE
:10AAC0004401AB025B005B005B005B005B005B0072
:10AAD0005B005B005B00440144014401440144010C
:10AAE000440144014401440113027800440144013B
:10AAF000440144014401440144014401440144012E
:10AB0000D100440144014401F701440141024401E0
:10AB1000440121054401440144014401440144012C
:10AB2000440144014401440113027A0044014401F8
:10AB3000440137027A00740044012D024401690285
:10AB4000D300570274004401F7017200410544012B
:10AB500044014305440172000021A3F1300217F8BB
:10AB6000013B01EB810102EB4101A3F13002092A13
:10AB7000F5D903918EE7059B53F8042B002A039225
:10AB80000593C0F2B4813B7883E73B7845F020051C
:10AB90007FE745F01005AC06059E40F16B81073656
:10ABA00026F007063246736852F8086B98460592FD
:10ABB000002BC0F24984BBF1FF3F00F0318556EA1B
:10ABC000080325F0800A00F025840A2E78F100039E
:10ABD00080F0E1840123554630368DF8EF60019313
:10ABE0000DF1EF04DDF804809DF83B30D845B8BF87
:10ABF000D846002B00F0A88008F10108A4E0029DCF
:10AC000006982946FCF786FF002840F09485AA891B
:10AC100002F01A030A2B7FF410AF0299B1F90E303B
:10AC2000002BFFF60AAF4B6EDE0702D4950540F10C
:10AC3000628523463A46029906983DB0BDE8F04F3A
:10AC400000F09ABD45F0100515F0200800F00381D2
:10AC5000059E073626F007063346D6F8048053F8DB
:10AC6000086B0593002325F4806A4FF000028DF8ED
:10AC70003B20BBF1FF3F00F0DD8156EA08022AF0DD
:10AC8000800540F0D681BBF1000F40F0CC84002B52
:10AC900040F0C5831AF00103019300F0EC833023E8
:10ACA0000DF1EF048DF8EF309CE7E51B1BD0119BF5
:10ACB000129A01332A44072BC9E9007512921193A5
:10ACC00005DC09F10809049B2B440493D1E6002A12
:10ACD00000F09C830299069810AAFFF73BFE40B94A
:10ACE0000DF14C09EFE7129B002B40F01585002376
:10ACF0001193029A536ED90740F1A28093895B06A3
:10AD000000F1258504983DB0BDE8F08F029BB3F9B2
:10AD10000C108D058AB23FF578AE1D46986DFEF792
:10AD2000D3FBB5F90C108AB26FE6002BDBD04FF0E5
:10AD300001088DF88C304FF0000323AC8DF83B30C8
:10AD4000CDF804804FF0000B15F00203079318BFF5
:10AD500008F1020815F08403089305D1039BA3EBC7
:10AD60000806002E00F38A82DDE91112481C9DF8C6
:10AD70003B6076B1012101320DF13B060728CDE998
:10AD80001102C9E9006100F35882014609F108097E
:10AD90000130079BD3B102230232C9F804300728DF
:10ADA0000FABCDE91102C9F8003040F36282002AEE
:10ADB00000F027830299069810AAFFF7CBFD002820
:10ADC00097D1DDE911120DF14C09481C089B802B2D
:10ADD00000F07181019BABEB0306002E00F3CF81E5
:10ADE000019B07281A44CDE91102C9F80040C9F8AF
:10ADF000043040F35D81002A00F0938202990698A6
:10AE000010AAFFF7A7FD00287FF473AF129A0DF187
:10AE10004C09680705D5039BA3EB0804002C00F33D
:10AE20008A82DDE903134145ACBF5B1843440493B8
:10AE3000002A40F0F38100230DF14C09119308E63C
:10AE4000029B9B899A053FF55AAF029CA06DFEF7C5
:10AE50003DFBA38953E715F0100340F0188315F06C
:10AE6000400200F01083059E984656F8043B059674
:10AE70009EB2F7E656F8043BE806059600F110830B
:10AE8000690640F10A8343F3C0381EB243468FE699
:10AE90004FF00003059E8DF83B3056F8044B002C14
:10AEA00000F0CF83BBF1FF3F00F041835A46002101
:10AEB0002046FEF729FE002800F02284031B4FF0F5
:10AEC000000B059601938DE64FF000034FF001084B
:10AED000059E8DF83B3056F8043B23AC8DF88C3042
:10AEE0000596CDF804802DE7FDF752FF85E5039B1D
:10AEF0005B4203933B7845F00405CAE53B786C2B35
:10AF000003BF7B7845F02005013745F01005C0E50B
:10AF10003B78682B03BF7B7845F40075013745F01B
:10AF20004005B6E545F0100A1AF0200800F07E82D0
:10AF3000059E0123073626F007063246D6F8048020
:10AF400052F8086B059290E63B788DF83B80A0E5BF
:10AF500030228DF83C207822059B8DF83D2053F857
:10AF6000046BBE4A05934FF00008022345F0020A25
:10AF700009927AE6AE0600F1A482EC0600F159834C
:10AF8000680600F1B083A90540F15383059E049A39
:10AF900056F8043B1A7005965BE5069C2046FEF7C2
:10AFA0008BFA436818460B93FAF798FF034620463E
:10AFB0000C931C46FEF780FA83680A93002C3FF43A
:10AFC000E2AD0A9B002B3FF4DEAD0A9B1B78002B01
:10AFD0003FF4D9AD3B7845F480655AE53B7845F0C0
:10AFE000010556E59DF83B30002B7FF4CCAD2023C6
:10AFF0008DF83B303B784CE53B7845F0800548E5E3
:10B00000394611F8013B2A2B00F0A683A3F1300248
:10B01000092A0F464FF0000B3FF63CAD17F8013BF5
:10B020000BEB8B0B02EB4B0BA3F13002092AF5D98A
:10B0300030E5AA46012B3FF4C8AD022B3CAC12D13F
:10B04000099A06F00F03D35C360946EA08764FEA00
:10B05000181804F8013D56EA0803F2D13CAB1B1B5B
:10B0600055460193BEE506F00703F60846EA487622
:10B070004FEAD808303356EA0801224604F8013D69
:10B08000F1D11AF0010FE9D0302BE7D03023023A8A
:10B0900004F8013C3CAB9B1A554614460193A1E5CC
:10B0A0000123019A13941193149212920DF14C09F9
:10B0B00009F10809ADE6039BA3EB0806002E7FF714
:10B0C00089AE102EDFF898A138DD5346CC46BA463B
:10B0D000C1460794A8461F46069C029D07E001F161
:10B0E000020E01460CF1080C103E102E1EDD10233E
:10B0F000481C10320728CDE91102CCF80070CCF8BA
:10B100000430ECDD002A00F092802946204610AA87
:10B11000FFF720FC00287FF4ECADDDE91112103EB2
:10B12000102E0DF14C0C01F1010EE0DC3B464546C2
:10B130005746C8467046E1469A46079C324407285F
:10B14000CDE91102C9F800A0C9F8046040F3968166
:10B15000002A00F09A820299069810AAFFF7FAFBDB
:10B1600000287FF4C6ADDDE91112019B0DF14C09F9
:10B17000ABEB0306002E01F101007FF731AE102E7C
:10B1800040F36B82DFF8D8A0CC465346C146BA469E
:10B19000A84607944FF0100B1F46069C029D07E03F
:10B1A00001F1020E01460CF1080C103E102E19DDC3
:10B1B000481C10320728CCE9007BCDE91102EFDDF5
:10B1C00032B32946204610AAFFF7C4FB00287FF4BB
:10B1D00090ADDDE91112103E102E0DF14C0C01F175
:10B1E000010EE5DC3B4645465746C8467046E146FB
:10B1F0009A46079C32440728CDE91102C9F800A0FD
:10B20000C9F8046000F3E98009F108090130E7E5B5
:10B210004FF0010E11460DF14C0CC6E7029906984D
:10B2200010AAFFF797FB00283FF405AE61E54FF049
:10B23000010E11460DF14C0C56E7002A00F0DE809D
:10B240000299069810AAFFF785FB00287FF451ADFC
:10B25000DDE911120DF14C09481C9AE5B0C2000855
:10B26000ECC40008022201200FAB13930DF14C092E
:10B270001492014609F10809481CA7E5102E40F375
:10B280004582DDE91132DFF8F0A219465346CC467B
:10B29000BA46C1460D94A8461F46069C029D07E08B
:10B2A00001F1020E01460CF1080C103E102E1CDDBF
:10B2B0001023481C10320728CDE91102CCF8007089
:10B2C000CCF80430ECDD32B32946204610AAFFF753
:10B2D00041FB00287FF40DADDDE91112103E102E68
:10B2E0000DF14C0C01F1010EE2DC3B4645465746A0
:10B2F000C8467146E1469A460D9C32440729CDE97D
:10B300001112C9F800A0C9F8046000F3A78009F180
:10B310000809481C2BE511464FF0010E0DF14C0CAD
:10B32000C3E76C07119250D5039BA3EB0804002CD4
:10B330004BDD0DF14C09102C40F3F881DFF838A2F9
:10B34000102553461199BA46069E1F46DDF808B0EF
:10B3500006E0881C194609F10809103C102C19DD7B
:10B360004B1C1032072BC9E90075CDE91132F0DD15
:10B3700032B35946304610AAFFF7ECFA00287FF4A2
:10B38000B8ACDDE91112103C102C0DF14C0901F1A3
:10B390000100E5DC3B4657469A4622440728C9E9A6
:10B3A00000A4CDE911027FF73CAD72B10299069875
:10B3B00010AAFFF7CFFA00287FF49BAC129A30E571
:10B3C000012011460DF14C09C7E7DDE90323424591
:10B3D000ACBF9B18434404932DE5002A3FF460AEB4
:10B3E0000299069810AAFFF7B5FA00287FF481ACFD
:10B3F0001198129A0DF14C090130F1E4079B002BD2
:10B4000069D1012011460DF14C09DFE411920DF1D3
:10B410004C0958E4BBF1000F7FF4DCAB55464FF00C
:10B42000000B3CACCDF804B0FFF7DCBB1AF0100306
:10B4300040D11AF0400239D0059E984656F8042BA8
:10B440000123059696B210E42D2376428DF83B3009
:10B45000AA464FF0010368EB48080AE4002A6FD0BF
:10B460000299069810AAFFF775FA00287FF441ACFC
:10B470000DF14C0978E43CACFFF7B4BB014609F18F
:10B4800008090130A6E415F4007840F01D81059B01
:10B4900053F8046B0593FFF7E5BBAA0500F10E8195
:10B4A0004FEAE3781E464346FFF782BB1AF4007862
:10B4B00040F0FB80059A012352F8046B0592FFF7D8
:10B4C000D4BBDDE9041656F8042BCB17C2E90013F0
:10B4D0000596FFF7BEBA02220FAB13930DF14C098C
:10B4E0001492C7E6254A099215F0200836D0059E29
:10B4F000073626F007063246D6F8048052F8086B65
:10B500000592EA0709D556EA080206D08DF83D30C3
:10B51000302345F002058DF83C30022325F4806A83
:10B52000FFF7A3BBAA46FFE4154A0992DCE72046D1
:10B530000596FAF7D3FC4FF0000B0190FFF752BBD2
:10B540009DF83B10002900F0A68001200DF13B0280
:10B5500013920DF14C090246149016E415F01002F6
:10B5600014D115F040010DD0059E904656F8042BDD
:10B57000059696B2C5E700BFDCC40008C4C2000847
:10B58000B0C2000815F4007840F0A680059A52F881
:10B59000046B0592B5E700230AF48062CDF804B08D
:10B5A000CDF81CA0BB46CDF820909A461746DDF892
:10B5B00028903CAD0CE00023304641460A22F5F7C6
:10B5C000D1FA0A2E78F100031BD306468846254699
:10B5D000304641460A220023F5F7C4FA30326C1E89
:10B5E0000AF1010A05F8012C002FE4D099F8003087
:10B5F0005345E0D1BAF1FF0FDDD00A2E78F10003F8
:10B600002ED2DDF81CA03CAB1B1B5F46CDF828906A
:10B61000DDF804B05546DDF820900193FFF7E2BA5B
:10B62000AA46FFF7D2BA012BAA467FF406ADFFF770
:10B63000D1BA059E049A56F8043B1A600596FFF7A6
:10B6400008BABBF1060FD84628BF4FF00608474C92
:10B65000CDF804800596FFF775BBDFF814A1C9E5A6
:10B660000C9B0B99E41A1A462046FFF73FF999F80C
:10B6700001300BB109F10109304641460A2200238D
:10B680004FF0000AF5F76EFA9FE7012011460DF121
:10B690004C09FFF79FBB079B002B7FF4E3AD1146DE
:10B6A00001200DF14C09FFF795BB059E904656F819
:10B6B000042B01230596D6B2FFF7D7BA43F3C0187F
:10B6C0005EB24346FFF774BA059E904656F8043BB7
:10B6D0000596DEB2FFF7C6BA059E884656F8042BDB
:10B6E0000596D6B20DE7059E049A56F8043B1A80DB
:10B6F0000596FFF7AEB9886DFDF7E8FEFFF799BA3A
:10B70000CDF804B005968346FFF76CBA1199129AEA
:10B71000DFF860A00131F0E50299069810AAFFF762
:10B7200019F900283FF4E3AAFFF7E3BA1198DFF80C
:10B7300044A0013031E6029B5B6EDB0707D4029B1D
:10B740009B899F0503D4029B986DFDF7BFFE4FF0C8
:10B75000FF330493FFF7D6BA059A7B780F4652F869
:10B76000041B059241EAE17BFFF793B9D8C20008B8
:10B77000ECC40008DCC40008F0B54FF4806C15463A
:10B78000002406461F46ADF26C4D1AAB009304939D
:10B790008B8916A823F00203ADF80C304B6E06948B
:10B7A0001993CB890C46ADF80E30CB69CDF808C0A3
:10B7B00007934B6ACDF814C00993FDF781FE2A4622
:10B7C0003B4669463046FFF70BF9051E07DB694625
:10B7D0003046FDF7A9FA002818BF4FF0FF35BDF835
:10B7E0000C305B0603D5A38943F04003A381169870
:10B7F000FDF768FE28460DF26C4DF0BD38B50C46DD
:10B80000114600228446074D20462A601A466446A7
:10B81000F6F71CFA431C00D038BD2B68002BFBD078
:10B82000236038BD781600202DE9F047DFF87CA0B2
:10B830000646DAF8000098460F469146FDF744FEAA
:10B840001B4B1B68D3F8484124B365681F2D26DCC9
:10B850005EB96B1C0235DAF80000636044F82570AD
:10B86000FDF734FE0020BDE8F087012304EB8501DD
:10B87000C1F88890D4F88821AB401A43022EC4F84E
:10B880008821C1F80881E4D1D4F88C211343C4F88D
:10B890008C31DEE703F5A674C3F84841D5E7DAF842
:10B8A0000000FDF713FE4FF0FF30DCE750080020EA
:10B8B0009CC20008144600B51A460A4B0D461B6888
:10B8C00085B0DE6803464CB107490191304607490F
:10B8D0000294009500F0C2F800F04AFA04490C46C0
:10B8E000F3E700BF24040020FCC400080CC50008D6
:10B8F000DCC0000838B5A1FB021484BBFDF758FE7C
:10B900000546D8B150F8042C22F00302043A242A48
:10B9100016D8132A19D91B2AC0E900441CD90023C0
:10B92000242A14BF00F1100200F11802C0E90244F9
:10B9300004BF04614461C2E900339360284638BD06
:10B940002146FAF7F3F9284638BD02460023284677
:10B95000C2E90033936038BD00F10802F6E7FAF758
:10B96000BBF90C2300250360E8E700BF002238B5CF
:10B97000064D044608462A60F6F776F9431C00D0C7
:10B9800038BD2B68002BFBD0236038BD7816002013
:10B9900070B500294BD006460C4610B1836B002BC6
:10B9A00048D0636ED80734D5B4F90C30002B3ED0A4
:10B9B00021463046FDF726F9E36A054633B13046A5
:10B9C000E16998470028B8BF4FF0FF35A3891A06F0
:10B9D0003BD4216B41B104F14003994202D030467F
:10B9E000FDF7CEFA00232363616C21B13046FDF7E9
:10B9F000C7FA00236364FDF751FA0022636EA28147
:10BA0000DB0727D5A06DFDF75DFDFDF74DFA284654
:10BA100070BDA3899905CBD4A06DFDF755FDB4F990
:10BA20000C30002BC4D1656E15F0010508D000253F
:10BA3000284670BDFDF7ACF9636ED807B4D4E8E7CB
:10BA4000A06DFDF743FD284670BD30462169FDF726
:10BA500097FABEE7A06DFDF739FDD3E70EB400B548
:10BA6000074A82B003AB0146106853F8042B0193D8
:10BA7000FEF7B6FF02B05DF804EB03B0704700BFFD
:10BA8000240400202DE9F04383B00746884614467D
:10BA900000F0A2F8012803D108F1FF33FE2B33D9BF
:10BAA0004246384604F15C0301A900F035F9421C16
:10BAB00006462FD018B39DF8041000250DF1050996
:10BAC00008E023685A1C226019700135B54216D26D
:10BAD00019F8011BA368013B002BA360F1DAA269EE
:10BAE000934201DB0A29ECD12246384600F0BCF82B
:10BAF000431CEAD10646304603B0BDE8F083464613
:10BB0000304603B0BDE8F0835FFA88F106468DF851
:10BB10000410D2E73046A38943F04003A38103B069
:10BB2000BDE8F08330B5536E144613F0010FB2F93F
:10BB30000C30054683B09AB201D198051CD590040B
:10BB400006D4626E43F4005342F40052A38162664D
:10BB500022462846FFF796FF636E0546DA0702D4B1
:10BB6000A3899B0502D5284603B030BDA06DFDF723
:10BB7000ADFC284603B030BDA06D0191FDF7A4FCDB
:10BB8000B4F90C3001999AB2D9E700BF70B500261C
:10BB9000074D0446084611462E60F6F768F8431C28
:10BBA00000D070BD2B68002BFBD0236070BD00BFA0
:10BBB00078160020002238B5064D044608462A6053
:10BBC000F6F75AF8431C00D038BD2B68002BFBD089
:10BBD000236038BD78160020014B93F82801704788
:10BBE000640C002038B50C46114600228446074DEF
:10BBF00020462A601A466446F6F740F8431C00D0F7
:10BC000038BD2B68002BFBD0236038BD7816002090
:10BC100082B049B15AB16BB113780B601278101E23
:10BC200018BF012002B0704701A9002AF3D11046C5
:10BC300002B070476FF00100F4E700BF38B50C4662
:10BC4000114600228446074D20462A601A46644663
:10BC5000F5F7ECFF431C00D038BD2B68002BFBD060
:10BC6000236038BD78160020F8B506460D46144608
:10BC700010B1836B002B43D0B4F90C20A3691007DB
:10BC8000A36091B21BD52369CBB1EDB289042F46D5
:10BC900022D522686169D31A994229DD0133A1684E
:10BCA0000139A160511C2160157062699A422AD045
:10BCB000A389DB0701D50A2D25D03846F8BD2146DA
:10BCC0003046FBF727FF20BBB4F90C20EDB291B250
:10BCD00089042F462369DCD442F40052A281626EAB
:10BCE000616922F4005262662268D31A9942D5DC57
:10BCF00021463046FDF718F858B901232268CEE7EF
:10BD0000FDF746F8B8E721463046FDF70DF8002864
:10BD1000D3D04FF0FF37D0E770B505461C4684B04E
:10BD200039B10B4ED6F8E060B047431C09D004B0DF
:10BD300070BD0A460649D1F8E06001A9B047431C2E
:10BD4000F5D100228A2322602B6004B070BD00BFB1
:10BD5000640C0020034649B1FF2A02D801200A7072
:10BD600070478A224FF0FF301A60704708467047CC
:10BD7000062008B500F004F80120F5F751FF00BFD8
:10BD800038B5154B1F281D6820D8D5F8DC2204468D
:10BD900062B152F820304BB1012B15D0591C0FD095
:10BDA000002542F820509847284638BD284600F024
:10BDB00029F8224601462846BDE8384000F00EB872
:10BDC000162301202B6038BD002038BD16234FF00C
:10BDD000FF302B6038BD00BF2404002070B5002662
:10BDE000074D0446084611462E60F5F711FF431C27
:10BDF00000D070BD2B68002BFBD0236070BD00BF4E
:10BE000078160020F5F702BFF8B500BFF8BC08BCF3
:10BE10009E467047F8B500BFF8BC08BC9E46704708
:10BE200068656C6C6F2CE5B58CE585A5E5BC8FE786
:10BE30009FA5E8AF86E5BC80E6BA90E7A4BEE58C96
:10BE4000BA52594D4355E6ACA2E8BF8EE4BDA0EF0F
:10BE5000BC810D0A0000000000000000000000008E
:10BE600000000000000000000000000000000000D2
:10BE700000000000000000000000000000000000C2
:10BE800000000000000000000000000000000000B2
:10BE900000000000000000000000000000000000A2
:10BEA0000D0A0D0A2D2D2D2D2D2D2D2D2D2D2D2D48
:10BEB0002D2D2D2D2D2D464C4153482046415446C5
:10BEC00053E69687E4BBB6E7B3BBE7BB9FE6B58B0B
:10BED000E8AF952D2D2D2D2D2D2D2D2D2D2D2D2DED
:10BEE0002D2D2D2D2D0D0A0D00000000303A0000E3
:10BEF000464C415348E4B88AE6B2A1E69C89E5BBCA
:10BF0000BAE7AB8BE69687E4BBB6E7B3BBE7BB9F6C
:10BF1000EFBC8CE5BC80E5A78BE6A0BCE5BC8FE55B
:10BF20008C96EFBC810D0000464C415348E6968745
:10BF3000E4BBB6E7B3BBE7BB9FE6A0BCE5BC8FE5BF
:10BF40008C96E68890E58A9FEFBC810D000000008A
:10BF5000E58F96E6B688E68C82E8BDBDE68890E57A
:10BF60008A9FEFBC81EFBC9A2025640D0A00000077
:10BF7000E9878DE696B0E68C82E8BDBDE68890E55F
:10BF80008A9FEFBC81EFBC9A2025640D0A00000057
:10BF9000464C415348E69687E4BBB6E7B3BBE7BBE4
:10BFA0009FE6A0BCE5BC8FE58C96E5A4B1E8B4A5FE
:10BFB000EFBC810D000000000D0A0D0A2D2D2D2D66
:10BFC0002D2D2D2D2D2D2D2D2D2D2D2D2D2D2D4688
:10BFD00041544653E7B3BBE7BB9FE6B58BE8AF954B
:10BFE000EFBC9AE58699E69687E4BBB62D2D2D2DFC
:10BFF0002D2D2D2D2D2D2D2D2D2D2D2D2D2D2D0D91
:10C000000000000052592E7478740000E68993E510
:10C01000BC80E68896E5889BE5BBBA52592E7478B9
:10C0200074E68890E58A9FEFBC810D00E68993E570
:10C03000BC80E68896E5889BE5BBBA52592E747899
:10C0400074E5A4B1E8B4A5EFBC810D00E5BE805253
:10C05000592E747874E58699E585A5E695B0E68D48
:10C06000AEEFBC9A0D0A257300000000E5BE8052B9
:10C07000592E747874E58699E585A5E695B0E68D28
:10C08000AEE5A4B1E8B4A52C636F64653A202564DD
:10C09000210D0A000D0A2D2D2D2D2D2D2D2D2D2D8F
:10C0A0002D2D2D2D2D2D2D2D2D4641544653E7B3ED
:10C0B000BBE7BB9FE6B58BE8AF95EFBC9AE8AFBB9B
:10C0C000E69687E4BBB62D2D2D2D2D2D2D2D2D2D56
:10C0D0002D2D2D2D2D2D2D2D2D0D0A0D00000000A7
:10C0E000E68993E5BC80E69687E4BBB6E5A4B1E8B3
:10C0F000B4A5EFBC810D0000E8AFBBE58F96E696D6
:10C1000087E4BBB6E5A4B1E8B4A5EFBC810D00009F
:10C11000E8AFBBE58F96E69687E4BBB6E695B0E65A
:10C120008DAEEFBC9A0D0A25730D0A00535049E6F7
:10C1300080BBE7BABFE9809AE4BFA1E5AE9EE9AA59
:10C140008CEFBC8CE8AFBBE58699384DE5A496E949
:10C1500083A8464C41534820573235513634210D7F
:10C160000A00000074686520464C4153482044652D
:10C170007669636520494420697320307825582109
:10C180000D0A000052656164206461746120666F6D
:10C19000726D205732355136343A200D00000000C0
:10C1A00030782530327820000D000000656570720F
:10C1B0006F6D20777269746520646F6E65210D0064
:10C1C000656570726F6D207772697465206661694C
:10C1D0006C210D00656570726F6D20726561642061
:10C1E000646F6E65210D0000457854693133206914
:10C1F0006E74657272707574210D0000000000008D
:10C200000000000001020304060708090000000006
:10C210000102030402030405060708090A0B0C0DBA
:10C220000E0F101000000000222A2B2C3A3B3C3D40
:10C230003E3F5B5D7C7F0000EBFE904D53444F53CF
:10C24000352E30004E4F204E414D452020202046B7
:10C2500041543332202020004E4F204E414D452086
:10C260002020204641542020202020000080004033
:10C27000002000100008004000200010000800040A
:10C2800000020000000400020001800040002000C5
:10C290001000080004000200000000002804002034
:10C2A000494E4600696E66004E414E006E616E005A
:10C2B000303132333435363738396162636465661C
:10C2C00000000000303132333435363738394142DE
:10C2D0004344454600000000286E756C6C29000040
:10C2E000300000002020202020202020202020209E
:10C2F000202020203030303030303030303030307E
:10C30000303030304E614E00496E66696E69747926
:10C310000000000042616C6C6F632073756363659D
:10C3200065646564000000002F746D702F6A656E8F
:10C330006B696E732D4743432D31302D70697065E5
:10C340006C696E652D3235395F32303231303732BB
:10C35000375F313632373334353030342F737263D0
:10C360002F6E65776C69622F6E65776C69622F6CD2
:10C370006962632F7374646C69622F64746F612ED9
:10C38000630000002F746D702F6A656E6B696E73A9
:10C390002D4743432D31302D706970656C696E6592
:10C3A0002D3235395F32303231303732375F313606
:10C3B00032373334353030342F7372632F6E6577F4
:10C3C0006C69622F6E65776C69622F6C6962632F8E
:10C3D0007374646C69622F6D707265632E63000004
:10C3E0000080E03779C34143176E05B5B5B8934671
:10C3F000F5F93FE9034F384D321D30F94877825A3D
:10C400003CBF737FDD4F1575000000000000F03F5A
:10C41000000000000000244000000000000059401F
:10C420000000000000408F40000000000088C34072
:10C4300000000000006AF8400000000080842E41E7
:10C4400000000000D01263410000000084D7974133
:10C450000000000065CDCD41000000205FA0024239
:10C46000000000E876483742000000A2941A6D42AE
:10C47000000040E59C30A2420000901EC4BCD642A1
:10C4800000003426F56B0C430080E03779C341434C
:10C4900000A0D8855734764300C84E676DC1AB43C2
:10C4A000003D9160E458E143408CB5781DAF1544E0
:10C4B00050EFE2D6E41A4B4492D54D06CFF08044BB
:10C4C000F64AE1C7022DB544B49DD9794378EA44D0
:10C4D00005000000190000007D0000002020202041
:10C4E000202020202020202020202020303030300C
:10C4F0003030303030303030303030302C206675D5
:10C500006E6374696F6E3A2000000000617373659A
:10C510007274696F6E2022257322206661696C65D2
:10C52000643A2066696C6520222573222C206C6990
:10C530006E65202564257325730A00004300000002
:10C54000504F5349580000002E00000000202020CA
:10C5500020202020202028282828282020202020B3
:10C560002020202020202020202020202088101083
:10C5700010101010101010101010101010040404DF
:10C58000040404040404041010101010101041419D
:10C59000414141410101010101010101010101018B
:10C5A000010101010101010110101010101042429F
:10C5B000424242420202020202020202020202025B
:10C5C00002020202020202021010101020000000FB
:10C5D000000000000000000000000000000000005B
:10C5E000000000000000000000000000000000004B
:10C5F000000000000000000000000000000000003B
:10C60000000000000000000000000000000000002A
:10C61000000000000000000000000000000000001A
:10C62000000000000000000000000000000000000A
:10C6300000000000000000000000000000000000FA
:10C6400000000000000000000000000000000000EA
:08C650004445FF7F01000000DA
:08C65800E97B00083501000830
:04C6600011010008BC
:10C66400008000C000E000F000FC000000000000BA
:10C6740000000000000000000000000000000000B6
:10C6840000000000000000000000000000000000A6
:10C694000000000000000000000000000000000096
:10C6A4000000000000000000000000000000000086
:10C6B4000000000000000000000000000000000076
:10C6C4000000000000000000000000000000000066
:10C6D400FEFEFEFEFEFEFE82828282FE38380000EE
:10C6E4000000000000000000000000000000000046
:10C6F4000000000000000000000000000000000036
:10C704000000000000000000000000000000000025
:10C714000000000000000000000000000000000015
:10C724000000000000000000000000000000000005
:10C7340000000000000000000000000000000000F5
:10C7440000000000000000000000000000000000E5
:10C7540000000000000000000000000000000000D5
:10C7640000000000000000000000000000000000C5
:10C7740000000000000000000000000000000000B5
:10C7840010101010303020E0C000003830C000001D
:10C79400000080C038000000000038C080000000A5
:10C7A400000080C070F800000000C0C040303018A5
:10C7B400181838303020000000F800000000000095
:10C7C400000000F000000000000000000000000075
:10C7D4000000000000000000000000000000000055
:10C7E4000000000000000000000000000000000045
:10C7F400000000000000000000000000000000FC39
:10C80400000000003C7C848303000000000303BCA0
:10C81400BCFC03010000000000FCFC01030C1C3004
:10C824001C02030100FF0000003F7F618080800044
:10C834000000000080800000007F80800000000075
:10C844000080807F00000000000000000000000065
:10C8540000000000000000000000000000000000D4
:10C8640000000000000000000000000000000000C4
:10C8740000000000000000000000000000000001B3
:10C8840000000000000000010100000000000001A1
:10C894000101000000000000000101000000000090
:10C8A400000000000001000000000000000001037F
:10C8B4000301010101000000000000010101030166
:10C8C4000101000000000000000000000000000062
:10C8D4000000000000000000000000000000000054
:10C8E4000000000000000000000000000000000044
:10C8F4000000000000000000000000000000000034
:10C904000000000000000000000000000000000023
:10C914000000000000000000000000000000000013
:10C924000000000000000000000000000000000003
:10C9340000000000000000000000000000000000F3
:10C9440000000000000000000000000000000000E3
:10C9540000000000000000000000000000000000D3
:10C9640000000000000000000000000000000000C3
:10C9740000000000000000000000000000000000B3
:10C9840000000000000000000000000000000000A3
:10C994000000000000000000000000000000000093
:10C9A4000000000000000000000000000000000083
:10C9B4000000000000000000000000000000000073
:10C9C4000000000000000000000000000000000063
:10C9D4000000000000000000000000000000000053
:10C9E4000000000000000000000000000000000043
:10C9F4000000000000000000000000000000000033
:10CA04000000000000000000000000000000000022
:10CA14000000000000000000000000000000000012
:10CA24000000000000000000000000000000000002
:10CA340000000000000000000000000000000000F2
:10CA440000000000000000000000000000000000E2
:10CA540000000000000000000000000000000000D2
:10CA64000024F40001000000100000000100000098
:10CA7400093E0008353E0008853E0008A53E000832
:10CA84004D3E000828040020000000001407002088
:10CA94007C070020E40700200000000000000000E4
:10CAA4000000000000000000000000000000000082
:10CAB4000000000000000000000000000000000072
:10CAC4000000000000000000000000000000000062
:10CAD4000000000000000000000000000000000052
:10CAE4000000000000000000000000000000000042
:10CAF4000000000000000000000000000000000032
:10CB04000000000000000000000000000000000021
:10CB14000000000000000000000000000000000011
:10CB24000000000000000000000000000000000001
:10CB340001000000000000000E33CDAB34126DE69E
:10CB4400ECDE05000B000000000000000000000007
:10CB540000000000000000000000000000000000D1
:10CB640000000000000000000000000000000000C1
:10CB740000000000000000000000000000000000B1
:10CB840000000000000000000000000000000000A1
:10CEB4003416002000000000000000005408002088
:10CEC400540800205C0800205C080020640800204E
:10CED400640800206C0800206C08002074080020FE
:10CEE400740800207C0800207C08002084080020AE
:10CEF400840800208C0800208C080020940800205E
:10CF0400940800209C0800209C080020A40800200D
:10CF1400A4080020AC080020AC080020B4080020BD
:10CF2400B4080020BC080020BC080020C40800206D
:10CF3400C4080020CC080020CC080020D40800201D
:10CF4400D4080020DC080020DC080020E4080020CD
:10CF5400E4080020EC080020EC080020F40800207D
:10CF6400F4080020FC080020FC080020040900202C
:10CF7400040900200C0900200C09002014090020D9
:10CF8400140900201C0900201C0900202409002089
:10CF9400240900202C0900202C0900203409002039
:10CFA400340900203C0900203C09002044090020E9
:10CFB400440900204C0900204C0900205409002099
:10CFC400540900205C0900205C0900206409002049
:10CFD400640900206C0900206C09002074090020F9
:10CFE400740900207C0900207C09002084090020A9
:10CFF400840900208C0900208C0900209409002059
:10D00400940900209C0900209C090020A409002008
:10D01400A4090020AC090020AC090020B4090020B8
:10D02400B4090020BC090020BC090020C409002068
:10D03400C4090020CC090020CC090020D409002018
:10D04400D4090020DC090020DC090020E4090020C8
:10D05400E4090020EC090020EC090020F409002078
:10D06400F4090020FC090020FC090020040A002027
:10D07400040A00200C0A00200C0A0020140A0020D4
:10D08400140A00201C0A00201C0A0020240A002084
:10D09400240A00202C0A00202C0A0020340A002034
:10D0A400340A00203C0A00203C0A0020440A0020E4
:10D0B400440A00204C0A00204C0A0020540A002094
:10D0C400540A00205C0A00205C0A0020640A002044
:10D0D400640A00206C0A00206C0A0020740A0020F4
:10D0E400740A00207C0A00207C0A0020840A0020A4
:10D0F400840A00208C0A00208C0A0020940A002054
:10D10400940A00209C0A00209C0A0020A40A002003
:10D11400A40A0020AC0A0020AC0A0020B40A0020B3
:10D12400B40A0020BC0A0020BC0A0020C40A002063
:10D13400C40A0020CC0A0020CC0A0020D40A002013
:10D14400D40A0020DC0A0020DC0A0020E40A0020C3
:10D15400E40A0020EC0A0020EC0A0020F40A002073
:10D16400F40A0020FC0A0020FC0A0020040B002022
:10D17400040B00200C0B00200C0B0020140B0020CF
:10D18400140B00201C0B00201C0B0020240B00207F
:10D19400240B00202C0B00202C0B0020340B00202F
:10D1A400340B00203C0B00203C0B0020440B0020DF
:10D1B400440B00204C0B00204C0B0020540B00208F
:10D1C400540B00205C0B00205C0B0020640B00203F
:10D1D400640B00206C0B00206C0B0020740B0020EF
:10D1E400740B00207C0B00207C0B0020840B00209F
:10D1F400840B00208C0B00208C0B0020940B00204F
:10D20400940B00209C0B00209C0B0020A40B0020FE
:10D21400A40B0020AC0B0020AC0B0020B40B0020AE
:10D22400B40B0020BC0B0020BC0B0020C40B00205E
:10D23400C40B0020CC0B0020CC0B0020D40B00200E
:10D24400D40B0020DC0B0020DC0B0020E40B0020BE
:10D25400E40B0020EC0B0020EC0B0020F40B00206E
:10D26400F40B0020FC0B0020FC0B0020040C00201D
:10D27400040C00200C0C00200C0C0020140C0020CA
:10D28400140C00201C0C00201C0C0020240C00207A
:10D29400240C00202C0C00202C0C0020340C00202A
:10D2A400340C00203C0C00203C0C0020440C0020DA
:10D2B400440C00204C0C00204C0C0020FFFFFFFF0E
:10D2C4000000020043000000000000000000000015
:10D2D400000000000000000000000000000000004A
:10D2E40000000000430000000000000000000000F7
:10D2F400000000000000000000000000000000002A
:10D3040000000000430000000000000000000000D6
:10D314000000000000000000000000000000000009
:10D3240000000000430000000000000000000000B6
:10D3340000000000000000000000000000000000E9
:10D344000000000043000000000000000000000096
:10D3540000000000000000000000000000000000C9
:10D364000000000043000000000000000000000076
:10D3740000000000000000000000000000000000A9
:10D384000000000043000000000000000000000056
:10D394000000000000000000000000000000000089
:10D3A4000000000055BD000811BC0008000000008A
:10D3B4004CC5000848C50008DCC00008DCC00008F3
:10D3C400DCC00008DCC00008DCC00008DCC00008C9
:10D3D400DCC00008DCC00008DCC00008FFFFFFFF61
:10D3E400FFFFFFFFFFFFFFFFFFFF000001004153AE
:10D3F4004349490000000000000000000000000054
:10D404000000000000000000000000000000415384
:10D414004349490000000000000000000000000033
:10D4240000000000000000000000000000000000F8
:0400000508001CCD06
:00000001FF
